{
  "_format": "hh-sol-artifact-1",
  "contractName": "DiceRoll",
  "sourceName": "contracts/DiceRoll.sol",
  "abi": [
    {
      "inputs": [],
      "name": "cadenceArch",
      "outputs": [
        {
          "internalType": "address",
          "name": "",
          "type": "address"
        }
      ],
      "stateMutability": "view",
      "type": "function"
    },
    {
      "inputs": [],
      "name": "revertibleRandom",
      "outputs": [
        {
          "internalType": "uint64",
          "name": "",
          "type": "uint64"
        }
      ],
      "stateMutability": "view",
      "type": "function"
    }
  ],
  "bytecode": "0x6080604052348015600f57600080fd5b5061051b8061001f6000396000f3fe608060405234801561001057600080fd5b50600436106100365760003560e01c8063705fab201461003b578063d0d250bd14610059575b600080fd5b610043610077565b604051610050919061021a565b60405180910390f35b6100616101ea565b60405161006e9190610276565b60405180910390f35b60008060006801000000000000000173ffffffffffffffffffffffffffffffffffffffff166040516024016040516020818303038152906040527f705fab20000000000000000000000000000000000000000000000000000000007bffffffffffffffffffffffffffffffffffffffffffffffffffffffff19166020820180517bffffffffffffffffffffffffffffffffffffffffffffffffffffffff838183161783525050505060405161012c9190610302565b600060405180830381855afa9150503d8060008114610167576040519150601f19603f3d011682016040523d82523d6000602084013e61016c565b606091505b5091509150816101b1576040517f08c379a00000000000000000000000000000000000000000000000000000000081526004016101a89061039c565b60405180910390fd5b600060016006838060200190518101906101cb91906103ed565b6101d59190610449565b6101df91906104a9565b905080935050505090565b6801000000000000000181565b600067ffffffffffffffff82169050919050565b610214816101f7565b82525050565b600060208201905061022f600083018461020b565b92915050565b600073ffffffffffffffffffffffffffffffffffffffff82169050919050565b600061026082610235565b9050919050565b61027081610255565b82525050565b600060208201905061028b6000830184610267565b92915050565b600081519050919050565b600081905092915050565b60005b838110156102c55780820151818401526020810190506102aa565b60008484015250505050565b60006102dc82610291565b6102e6818561029c565b93506102f68185602086016102a7565b80840191505092915050565b600061030e82846102d1565b915081905092915050565b600082825260208201905092915050565b7f4661696c656420746f20666574636820612072616e646f6d206e756d6265722060008201527f7468726f75676820436164656e63652041726368000000000000000000000000602082015250565b6000610386603483610319565b91506103918261032a565b604082019050919050565b600060208201905081810360008301526103b581610379565b9050919050565b600080fd5b6103ca816101f7565b81146103d557600080fd5b50565b6000815190506103e7816103c1565b92915050565b600060208284031215610403576104026103bc565b5b6000610411848285016103d8565b91505092915050565b7f4e487b7100000000000000000000000000000000000000000000000000000000600052601260045260246000fd5b6000610454826101f7565b915061045f836101f7565b92508261046f5761046e61041a565b5b828206905092915050565b7f4e487b7100000000000000000000000000000000000000000000000000000000600052601160045260246000fd5b60006104b4826101f7565b91506104bf836101f7565b9250828201905067ffffffffffffffff8111156104df576104de61047a565b5b9291505056fea264697066735822122064b0820d16b2dbf7a3733c073390808f6a0b8824ee5b6ffe8030b16464903a2864736f6c634300081c0033",
  "linkReferences": {},
  "deployedLinkReferences": {}
}