{
  "_format": "hh-sol-artifact-1",
  "contractName": "Multipoly",
  "sourceName": "contracts/Multipoly.sol",
  "abi": [
    {
      "inputs": [
        {
          "internalType": "address",
          "name": "initialOwner",
          "type": "address"
        },
        {
          "internalType": "address",
          "name": "_property_nft",
          "type": "address"
        }
      ],
      "stateMutability": "nonpayable",
      "type": "constructor"
    },
    {
      "inputs": [
        {
          "internalType": "address",
          "name": "owner",
          "type": "address"
        }
      ],
      "name": "OwnableInvalidOwner",
      "type": "error"
    },
    {
      "inputs": [
        {
          "internalType": "address",
          "name": "account",
          "type": "address"
        }
      ],
      "name": "OwnableUnauthorizedAccount",
      "type": "error"
    },
    {
      "anonymous": false,
      "inputs": [
        {
          "indexed": true,
          "internalType": "uint256",
          "name": "game_id",
          "type": "uint256"
        }
      ],
      "name": "GameCreated",
      "type": "event"
    },
    {
      "anonymous": false,
      "inputs": [
        {
          "indexed": true,
          "internalType": "address",
          "name": "previousOwner",
          "type": "address"
        },
        {
          "indexed": true,
          "internalType": "address",
          "name": "newOwner",
          "type": "address"
        }
      ],
      "name": "OwnershipTransferred",
      "type": "event"
    },
    {
      "anonymous": false,
      "inputs": [
        {
          "indexed": true,
          "internalType": "uint256",
          "name": "game_id",
          "type": "uint256"
        },
        {
          "indexed": true,
          "internalType": "address",
          "name": "user_account",
          "type": "address"
        }
      ],
      "name": "PlayerJoinedGame",
      "type": "event"
    },
    {
      "anonymous": false,
      "inputs": [
        {
          "indexed": true,
          "internalType": "uint256",
          "name": "game_id",
          "type": "uint256"
        },
        {
          "indexed": true,
          "internalType": "address",
          "name": "user_account",
          "type": "address"
        }
      ],
      "name": "PlayerLeftGame",
      "type": "event"
    },
    {
      "anonymous": false,
      "inputs": [
        {
          "indexed": true,
          "internalType": "uint256",
          "name": "game_id",
          "type": "uint256"
        },
        {
          "indexed": true,
          "internalType": "address",
          "name": "user_account",
          "type": "address"
        },
        {
          "indexed": false,
          "internalType": "uint256",
          "name": "position",
          "type": "uint256"
        }
      ],
      "name": "PlayerPositionUpdated",
      "type": "event"
    },
    {
      "anonymous": false,
      "inputs": [
        {
          "indexed": true,
          "internalType": "address",
          "name": "user_account",
          "type": "address"
        },
        {
          "indexed": true,
          "internalType": "uint256",
          "name": "game_id",
          "type": "uint256"
        },
        {
          "indexed": false,
          "internalType": "uint256",
          "name": "nft_id",
          "type": "uint256"
        },
        {
          "indexed": false,
          "internalType": "uint256",
          "name": "stake_amount",
          "type": "uint256"
        },
        {
          "indexed": false,
          "internalType": "address",
          "name": "token",
          "type": "address"
        }
      ],
      "name": "PlayerPropertiesSet",
      "type": "event"
    },
    {
      "anonymous": false,
      "inputs": [
        {
          "indexed": true,
          "internalType": "uint256",
          "name": "game_id",
          "type": "uint256"
        },
        {
          "indexed": true,
          "internalType": "address",
          "name": "user_account",
          "type": "address"
        }
      ],
      "name": "PlayerTurnSet",
      "type": "event"
    },
    {
      "inputs": [],
      "name": "PROPERTY_NFT",
      "outputs": [
        {
          "internalType": "address",
          "name": "",
          "type": "address"
        }
      ],
      "stateMutability": "view",
      "type": "function"
    },
    {
      "inputs": [
        {
          "internalType": "uint256",
          "name": "game_id",
          "type": "uint256"
        },
        {
          "internalType": "address[]",
          "name": "user_accounts",
          "type": "address[]"
        },
        {
          "internalType": "uint256[]",
          "name": "positions",
          "type": "uint256[]"
        }
      ],
      "name": "batchSetPlayerPositions",
      "outputs": [],
      "stateMutability": "nonpayable",
      "type": "function"
    },
    {
      "inputs": [
        {
          "internalType": "address",
          "name": "player_address",
          "type": "address"
        },
        {
          "internalType": "address",
          "name": "token_address_1",
          "type": "address"
        },
        {
          "internalType": "address",
          "name": "token_address_2",
          "type": "address"
        },
        {
          "internalType": "address",
          "name": "token_address_3",
          "type": "address"
        },
        {
          "internalType": "address",
          "name": "token_address_4",
          "type": "address"
        }
      ],
      "name": "burnAllTokens",
      "outputs": [],
      "stateMutability": "nonpayable",
      "type": "function"
    },
    {
      "inputs": [
        {
          "internalType": "address",
          "name": "player_address",
          "type": "address"
        },
        {
          "internalType": "address",
          "name": "token_address",
          "type": "address"
        },
        {
          "internalType": "uint256",
          "name": "amount",
          "type": "uint256"
        }
      ],
      "name": "credit",
      "outputs": [],
      "stateMutability": "nonpayable",
      "type": "function"
    },
    {
      "inputs": [
        {
          "internalType": "address",
          "name": "player_address",
          "type": "address"
        },
        {
          "internalType": "address",
          "name": "token_address",
          "type": "address"
        },
        {
          "internalType": "uint256",
          "name": "amount",
          "type": "uint256"
        }
      ],
      "name": "debit",
      "outputs": [],
      "stateMutability": "nonpayable",
      "type": "function"
    },
    {
      "inputs": [
        {
          "internalType": "uint256",
          "name": "game_id",
          "type": "uint256"
        },
        {
          "internalType": "address",
          "name": "user_account",
          "type": "address"
        }
      ],
      "name": "deletePlayerPosition",
      "outputs": [],
      "stateMutability": "nonpayable",
      "type": "function"
    },
    {
      "inputs": [
        {
          "internalType": "uint256",
          "name": "game_id",
          "type": "uint256"
        },
        {
          "internalType": "address",
          "name": "user_account",
          "type": "address"
        },
        {
          "internalType": "uint256",
          "name": "nft_id",
          "type": "uint256"
        }
      ],
      "name": "deletePlayerProperty",
      "outputs": [],
      "stateMutability": "nonpayable",
      "type": "function"
    },
    {
      "inputs": [
        {
          "internalType": "uint256",
          "name": "",
          "type": "uint256"
        },
        {
          "internalType": "uint256",
          "name": "",
          "type": "uint256"
        }
      ],
      "name": "gamePlayersList",
      "outputs": [
        {
          "internalType": "address",
          "name": "",
          "type": "address"
        }
      ],
      "stateMutability": "view",
      "type": "function"
    },
    {
      "inputs": [
        {
          "internalType": "uint256",
          "name": "game_id",
          "type": "uint256"
        }
      ],
      "name": "getAllPlayerPositionsInGame",
      "outputs": [
        {
          "components": [
            {
              "internalType": "address",
              "name": "user_account",
              "type": "address"
            },
            {
              "internalType": "uint256",
              "name": "game_id",
              "type": "uint256"
            },
            {
              "internalType": "uint256",
              "name": "position",
              "type": "uint256"
            }
          ],
          "internalType": "struct Multipoly.PlayerPos[]",
          "name": "",
          "type": "tuple[]"
        }
      ],
      "stateMutability": "view",
      "type": "function"
    },
    {
      "inputs": [
        {
          "internalType": "uint256",
          "name": "game_id",
          "type": "uint256"
        },
        {
          "internalType": "address",
          "name": "user_account",
          "type": "address"
        }
      ],
      "name": "getAllPlayerProperties",
      "outputs": [
        {
          "components": [
            {
              "internalType": "uint256",
              "name": "nft_id",
              "type": "uint256"
            },
            {
              "internalType": "uint256",
              "name": "stake_amount",
              "type": "uint256"
            },
            {
              "internalType": "address",
              "name": "token",
              "type": "address"
            },
            {
              "internalType": "bool",
              "name": "exists",
              "type": "bool"
            }
          ],
          "internalType": "struct Multipoly.PlayerProperties[]",
          "name": "",
          "type": "tuple[]"
        }
      ],
      "stateMutability": "view",
      "type": "function"
    },
    {
      "inputs": [
        {
          "internalType": "uint256",
          "name": "game_id",
          "type": "uint256"
        }
      ],
      "name": "getGamePlayers",
      "outputs": [
        {
          "internalType": "address[]",
          "name": "",
          "type": "address[]"
        }
      ],
      "stateMutability": "view",
      "type": "function"
    },
    {
      "inputs": [
        {
          "internalType": "uint256",
          "name": "game_id",
          "type": "uint256"
        },
        {
          "internalType": "address",
          "name": "user_account",
          "type": "address"
        }
      ],
      "name": "getGameState",
      "outputs": [
        {
          "components": [
            {
              "internalType": "address",
              "name": "user_account",
              "type": "address"
            },
            {
              "internalType": "uint256",
              "name": "game_id",
              "type": "uint256"
            },
            {
              "internalType": "uint256",
              "name": "position",
              "type": "uint256"
            }
          ],
          "internalType": "struct Multipoly.PlayerPos[]",
          "name": "",
          "type": "tuple[]"
        },
        {
          "components": [
            {
              "internalType": "uint256",
              "name": "nft_id",
              "type": "uint256"
            },
            {
              "internalType": "uint256",
              "name": "stake_amount",
              "type": "uint256"
            },
            {
              "internalType": "address",
              "name": "token",
              "type": "address"
            },
            {
              "internalType": "bool",
              "name": "exists",
              "type": "bool"
            }
          ],
          "internalType": "struct Multipoly.PlayerProperties[]",
          "name": "",
          "type": "tuple[]"
        }
      ],
      "stateMutability": "view",
      "type": "function"
    },
    {
      "inputs": [
        {
          "internalType": "uint256",
          "name": "game_id",
          "type": "uint256"
        }
      ],
      "name": "getPlayerCount",
      "outputs": [
        {
          "internalType": "uint256",
          "name": "",
          "type": "uint256"
        }
      ],
      "stateMutability": "view",
      "type": "function"
    },
    {
      "inputs": [
        {
          "internalType": "uint256",
          "name": "game_id",
          "type": "uint256"
        },
        {
          "internalType": "address",
          "name": "user_account",
          "type": "address"
        }
      ],
      "name": "getPlayerPosition",
      "outputs": [
        {
          "components": [
            {
              "internalType": "address",
              "name": "user_account",
              "type": "address"
            },
            {
              "internalType": "uint256",
              "name": "game_id",
              "type": "uint256"
            },
            {
              "internalType": "uint256",
              "name": "position",
              "type": "uint256"
            }
          ],
          "internalType": "struct Multipoly.PlayerPos",
          "name": "",
          "type": "tuple"
        }
      ],
      "stateMutability": "view",
      "type": "function"
    },
    {
      "inputs": [
        {
          "internalType": "uint256",
          "name": "game_id",
          "type": "uint256"
        },
        {
          "internalType": "address",
          "name": "user_account",
          "type": "address"
        },
        {
          "internalType": "uint256",
          "name": "nft_id",
          "type": "uint256"
        }
      ],
      "name": "getPlayerProperty",
      "outputs": [
        {
          "components": [
            {
              "internalType": "uint256",
              "name": "nft_id",
              "type": "uint256"
            },
            {
              "internalType": "uint256",
              "name": "stake_amount",
              "type": "uint256"
            },
            {
              "internalType": "address",
              "name": "token",
              "type": "address"
            },
            {
              "internalType": "bool",
              "name": "exists",
              "type": "bool"
            }
          ],
          "internalType": "struct Multipoly.PlayerProperties",
          "name": "",
          "type": "tuple"
        }
      ],
      "stateMutability": "view",
      "type": "function"
    },
    {
      "inputs": [
        {
          "internalType": "uint256",
          "name": "game_id",
          "type": "uint256"
        }
      ],
      "name": "getPlayerTurn",
      "outputs": [
        {
          "internalType": "address",
          "name": "",
          "type": "address"
        }
      ],
      "stateMutability": "view",
      "type": "function"
    },
    {
      "inputs": [
        {
          "internalType": "uint256",
          "name": "token_id",
          "type": "uint256"
        }
      ],
      "name": "getPropertyDetails",
      "outputs": [
        {
          "components": [
            {
              "internalType": "address",
              "name": "owner",
              "type": "address"
            },
            {
              "internalType": "string",
              "name": "name",
              "type": "string"
            },
            {
              "internalType": "uint256",
              "name": "position",
              "type": "uint256"
            },
            {
              "internalType": "address",
              "name": "tokenAddress",
              "type": "address"
            },
            {
              "internalType": "uint256",
              "name": "purchaseValue",
              "type": "uint256"
            },
            {
              "internalType": "uint256",
              "name": "rentAmount",
              "type": "uint256"
            }
          ],
          "internalType": "struct IPropertyNFT.Property",
          "name": "",
          "type": "tuple"
        }
      ],
      "stateMutability": "view",
      "type": "function"
    },
    {
      "inputs": [
        {
          "internalType": "address",
          "name": "user_account",
          "type": "address"
        }
      ],
      "name": "getUserGames",
      "outputs": [
        {
          "internalType": "uint256[]",
          "name": "",
          "type": "uint256[]"
        }
      ],
      "stateMutability": "view",
      "type": "function"
    },
    {
      "inputs": [
        {
          "internalType": "uint256",
          "name": "",
          "type": "uint256"
        },
        {
          "internalType": "address",
          "name": "",
          "type": "address"
        }
      ],
      "name": "isPlayerInGame",
      "outputs": [
        {
          "internalType": "bool",
          "name": "",
          "type": "bool"
        }
      ],
      "stateMutability": "view",
      "type": "function"
    },
    {
      "inputs": [
        {
          "internalType": "uint256",
          "name": "game_id",
          "type": "uint256"
        },
        {
          "internalType": "address",
          "name": "user_account",
          "type": "address"
        }
      ],
      "name": "isPlayerInGameView",
      "outputs": [
        {
          "internalType": "bool",
          "name": "",
          "type": "bool"
        }
      ],
      "stateMutability": "view",
      "type": "function"
    },
    {
      "inputs": [
        {
          "internalType": "address",
          "name": "player_address",
          "type": "address"
        },
        {
          "internalType": "address",
          "name": "token_address_1",
          "type": "address"
        },
        {
          "internalType": "address",
          "name": "token_address_2",
          "type": "address"
        },
        {
          "internalType": "address",
          "name": "token_address_3",
          "type": "address"
        },
        {
          "internalType": "address",
          "name": "token_address_4",
          "type": "address"
        }
      ],
      "name": "mintAllTokens",
      "outputs": [],
      "stateMutability": "nonpayable",
      "type": "function"
    },
    {
      "inputs": [
        {
          "internalType": "uint256",
          "name": "game_id",
          "type": "uint256"
        },
        {
          "internalType": "address",
          "name": "user_account",
          "type": "address"
        },
        {
          "internalType": "uint256",
          "name": "steps",
          "type": "uint256"
        },
        {
          "internalType": "bool",
          "name": "purchase",
          "type": "bool"
        },
        {
          "internalType": "string",
          "name": "name",
          "type": "string"
        },
        {
          "internalType": "address",
          "name": "token_address",
          "type": "address"
        },
        {
          "internalType": "uint256",
          "name": "purchase_value",
          "type": "uint256"
        },
        {
          "internalType": "address",
          "name": "next_player",
          "type": "address"
        }
      ],
      "name": "move",
      "outputs": [],
      "stateMutability": "nonpayable",
      "type": "function"
    },
    {
      "inputs": [
        {
          "internalType": "uint256",
          "name": "game_id",
          "type": "uint256"
        },
        {
          "internalType": "address",
          "name": "user_account",
          "type": "address"
        },
        {
          "internalType": "address",
          "name": "token_address_1",
          "type": "address"
        },
        {
          "internalType": "address",
          "name": "token_address_2",
          "type": "address"
        },
        {
          "internalType": "address",
          "name": "token_address_3",
          "type": "address"
        },
        {
          "internalType": "address",
          "name": "token_address_4",
          "type": "address"
        }
      ],
      "name": "onboardPlayer",
      "outputs": [],
      "stateMutability": "nonpayable",
      "type": "function"
    },
    {
      "inputs": [],
      "name": "owner",
      "outputs": [
        {
          "internalType": "address",
          "name": "",
          "type": "address"
        }
      ],
      "stateMutability": "view",
      "type": "function"
    },
    {
      "inputs": [
        {
          "internalType": "uint256",
          "name": "",
          "type": "uint256"
        },
        {
          "internalType": "address",
          "name": "",
          "type": "address"
        }
      ],
      "name": "playerPositions",
      "outputs": [
        {
          "internalType": "address",
          "name": "user_account",
          "type": "address"
        },
        {
          "internalType": "uint256",
          "name": "game_id",
          "type": "uint256"
        },
        {
          "internalType": "uint256",
          "name": "position",
          "type": "uint256"
        }
      ],
      "stateMutability": "view",
      "type": "function"
    },
    {
      "inputs": [
        {
          "internalType": "uint256",
          "name": "",
          "type": "uint256"
        },
        {
          "internalType": "address",
          "name": "",
          "type": "address"
        },
        {
          "internalType": "uint256",
          "name": "",
          "type": "uint256"
        }
      ],
      "name": "playerProperties",
      "outputs": [
        {
          "internalType": "uint256",
          "name": "nft_id",
          "type": "uint256"
        },
        {
          "internalType": "uint256",
          "name": "stake_amount",
          "type": "uint256"
        },
        {
          "internalType": "address",
          "name": "token",
          "type": "address"
        },
        {
          "internalType": "bool",
          "name": "exists",
          "type": "bool"
        }
      ],
      "stateMutability": "view",
      "type": "function"
    },
    {
      "inputs": [
        {
          "internalType": "uint256",
          "name": "",
          "type": "uint256"
        }
      ],
      "name": "playerTurns",
      "outputs": [
        {
          "internalType": "address",
          "name": "",
          "type": "address"
        }
      ],
      "stateMutability": "view",
      "type": "function"
    },
    {
      "inputs": [],
      "name": "renounceOwnership",
      "outputs": [],
      "stateMutability": "nonpayable",
      "type": "function"
    },
    {
      "inputs": [
        {
          "internalType": "address",
          "name": "player_address",
          "type": "address"
        },
        {
          "internalType": "address",
          "name": "burner_token",
          "type": "address"
        },
        {
          "internalType": "uint256",
          "name": "burn_amount",
          "type": "uint256"
        },
        {
          "internalType": "address",
          "name": "receiver_token",
          "type": "address"
        },
        {
          "internalType": "uint256",
          "name": "credit_amount",
          "type": "uint256"
        }
      ],
      "name": "swap",
      "outputs": [],
      "stateMutability": "nonpayable",
      "type": "function"
    },
    {
      "inputs": [
        {
          "internalType": "address",
          "name": "newOwner",
          "type": "address"
        }
      ],
      "name": "transferOwnership",
      "outputs": [],
      "stateMutability": "nonpayable",
      "type": "function"
    },
    {
      "inputs": [
        {
          "internalType": "uint256",
          "name": "game_id",
          "type": "uint256"
        },
        {
          "internalType": "address",
          "name": "user_account",
          "type": "address"
        },
        {
          "internalType": "uint256",
          "name": "nft_id",
          "type": "uint256"
        },
        {
          "internalType": "uint256",
          "name": "new_stake_amount",
          "type": "uint256"
        },
        {
          "internalType": "address",
          "name": "new_token_address",
          "type": "address"
        }
      ],
      "name": "updatePlayerStakeAmount",
      "outputs": [],
      "stateMutability": "nonpayable",
      "type": "function"
    },
    {
      "inputs": [
        {
          "internalType": "uint256",
          "name": "game_id",
          "type": "uint256"
        },
        {
          "internalType": "address",
          "name": "new_user_account",
          "type": "address"
        }
      ],
      "name": "updatePlayerTurn",
      "outputs": [],
      "stateMutability": "nonpayable",
      "type": "function"
    },
    {
      "inputs": [
        {
          "internalType": "address",
          "name": "",
          "type": "address"
        },
        {
          "internalType": "uint256",
          "name": "",
          "type": "uint256"
        }
      ],
      "name": "userGames",
      "outputs": [
        {
          "internalType": "uint256",
          "name": "",
          "type": "uint256"
        }
      ],
      "stateMutability": "view",
      "type": "function"
    }
  ],
  "bytecode": "0x60a060405234801561001057600080fd5b50604051615b1b380380615b1b83398181016040528101906100329190610217565b81600073ffffffffffffffffffffffffffffffffffffffff168173ffffffffffffffffffffffffffffffffffffffff16036100a55760006040517f1e4fbdf700000000000000000000000000000000000000000000000000000000815260040161009c9190610266565b60405180910390fd5b6100b4816100f060201b60201c565b508073ffffffffffffffffffffffffffffffffffffffff1660808173ffffffffffffffffffffffffffffffffffffffff16815250505050610281565b60008060009054906101000a900473ffffffffffffffffffffffffffffffffffffffff169050816000806101000a81548173ffffffffffffffffffffffffffffffffffffffff021916908373ffffffffffffffffffffffffffffffffffffffff1602179055508173ffffffffffffffffffffffffffffffffffffffff168173ffffffffffffffffffffffffffffffffffffffff167f8be0079c531659141344cd1fd0a4f28419497f9722a3daafe3b4186f6b6457e060405160405180910390a35050565b600080fd5b600073ffffffffffffffffffffffffffffffffffffffff82169050919050565b60006101e4826101b9565b9050919050565b6101f4816101d9565b81146101ff57600080fd5b50565b600081519050610211816101eb565b92915050565b6000806040838503121561022e5761022d6101b4565b5b600061023c85828601610202565b925050602061024d85828601610202565b9150509250929050565b610260816101d9565b82525050565b600060208201905061027b6000830184610257565b92915050565b6080516158716102aa6000396000818161082001528181611b5f0152613a0a01526158716000f3fe608060405234801561001057600080fd5b50600436106101fb5760003560e01c806373b1222a1161011a578063c02a8e43116100ad578063e319bc101161007c578063e319bc1014610609578063f0da2a1d14610639578063f2fde38b1461066a578063f5e9ca0814610686578063f7f281ce146106b8576101fb565b8063c02a8e431461055d578063cce8328c1461058d578063d75f3567146105bd578063da9a9089146105d9576101fb565b80638da5cb5b116100e95780638da5cb5b146104af578063a7010d93146104cd578063ab1205e9146104fd578063bc0167cd1461052d576101fb565b806373b1222a1461043d5780637cb0ec7e1461045b5780637de182c5146104775780638c247b2a14610493576101fb565b8063366adc60116101925780634ed4c5b0116101615780634ed4c5b0146103c857806352fcbcbf146103e4578063715018a61461040057806372e1ca501461040a576101fb565b8063366adc60146103445780633d85ed61146103745780634066a76514610390578063497eed80146103ac576101fb565b8063126dbe43116101ce578063126dbe43146102ac57806315a40f49146102dc57806317d88f461461030c578063262709e614610328576101fb565b80630892c56c146102005780630c7b77481461021c5780630d3b404f1461024c578063120aace61461027c575b600080fd5b61021a60048036038101906102159190614111565b6106e8565b005b6102366004803603810190610231919061419e565b61071d565b60405161024391906141da565b60405180910390f35b610266600480360381019061026191906141f5565b610750565b6040516102739190614250565b60405180910390f35b6102966004803603810190610291919061426b565b61077f565b6040516102a39190614356565b60405180910390f35b6102c660048036038101906102c1919061419e565b610816565b6040516102d391906144a0565b60405180910390f35b6102f660048036038101906102f1919061419e565b6108c4565b6040516103039190614571565b60405180910390f35b61032660048036038101906103219190614593565b610965565b005b610342600480360381019061033d919061460e565b610982565b005b61035e6004803603810190610359919061419e565b610b25565b60405161036b9190614752565b60405180910390f35b61038e60048036038101906103899190614774565b610d3d565b005b6103aa60048036038101906103a591906141f5565b610fe6565b005b6103c660048036038101906103c191906147ef565b61120e565b005b6103e260048036038101906103dd9190614842565b6114bf565b005b6103fe60048036038101906103f99190614a1e565b611991565b005b610408611ad2565b005b610424600480360381019061041f91906147ef565b611ae6565b6040516104349493929190614aff565b60405180910390f35b610445611b5d565b60405161045291906141da565b60405180910390f35b610475600480360381019061047091906141f5565b611b81565b005b610491600480360381019061048c919061460e565b611d29565b005b6104ad60048036038101906104a89190614842565b611e0a565b005b6104b76120e4565b6040516104c491906141da565b60405180910390f35b6104e760048036038101906104e291906141f5565b61210d565b6040516104f49190614250565b60405180910390f35b6105176004803603810190610512919061419e565b612175565b6040516105249190614b44565b60405180910390f35b61054760048036038101906105429190614b5f565b612195565b6040516105549190614b44565b60405180910390f35b610577600480360381019061057291906141f5565b6121c6565b6040516105849190614cb2565b60405180910390f35b6105a760048036038101906105a29190614cd4565b612412565b6040516105b491906141da565b60405180910390f35b6105d760048036038101906105d29190614dca565b612460565b005b6105f360048036038101906105ee919061419e565b612866565b60405161060091906141da565b60405180910390f35b610623600480360381019061061e91906147ef565b6128a3565b6040516106309190614eb4565b60405180910390f35b610653600480360381019061064e91906141f5565b612a56565b604051610661929190614ecf565b60405180910390f35b610684600480360381019061067f919061426b565b612bf4565b005b6106a0600480360381019061069b91906141f5565b612c7a565b6040516106af93929190614f06565b60405180910390f35b6106d260048036038101906106cd91906141f5565b612cd1565b6040516106df9190614f7f565b60405180910390f35b6106f28686612da6565b6106fe86866000612f94565b6107088686613250565b6107158585858585611e0a565b505050505050565b60046020528060005260406000206000915054906101000a900473ffffffffffffffffffffffffffffffffffffffff1681565b60066020528160005260406000206020528060005260406000206000915091509054906101000a900460ff1681565b6060600760008373ffffffffffffffffffffffffffffffffffffffff1673ffffffffffffffffffffffffffffffffffffffff16815260200190815260200160002080548060200260200160405190810160405280929190818152602001828054801561080a57602002820191906000526020600020905b8154815260200190600101908083116107f6575b50505050509050919050565b61081e613f90565b7f000000000000000000000000000000000000000000000000000000000000000073ffffffffffffffffffffffffffffffffffffffff166332665ffb836040518263ffffffff1660e01b81526004016108779190614b44565b600060405180830381865afa158015610894573d6000803e3d6000fd5b505050506040513d6000823e3d601f19601f820116820180604052508101906108bd91906150fa565b9050919050565b60606005600083815260200190815260200160002080548060200260200160405190810160405280929190818152602001828054801561095957602002820191906000526020600020905b8160009054906101000a900473ffffffffffffffffffffffffffffffffffffffff1673ffffffffffffffffffffffffffffffffffffffff168152602001906001019080831161090f575b50505050509050919050565b610970858585610982565b61097b858383611d29565b5050505050565b600073ffffffffffffffffffffffffffffffffffffffff168273ffffffffffffffffffffffffffffffffffffffff16036109f1576040517f08c379a00000000000000000000000000000000000000000000000000000000081526004016109e8906151a0565b60405180910390fd5b60008273ffffffffffffffffffffffffffffffffffffffff166370a08231856040518263ffffffff1660e01b8152600401610a2c91906141da565b602060405180830381865afa158015610a49573d6000803e3d6000fd5b505050506040513d601f19601f82011682018060405250810190610a6d91906151c0565b905081811015610ab2576040517f08c379a0000000000000000000000000000000000000000000000000000000008152600401610aa990615239565b60405180910390fd5b8273ffffffffffffffffffffffffffffffffffffffff166379cc679085846040518363ffffffff1660e01b8152600401610aed929190615259565b600060405180830381600087803b158015610b0757600080fd5b505af1158015610b1b573d6000803e3d6000fd5b5050505050505050565b6060600060056000848152602001908152602001600020805480602002602001604051908101604052809291908181526020018280548015610bbc57602002820191906000526020600020905b8160009054906101000a900473ffffffffffffffffffffffffffffffffffffffff1673ffffffffffffffffffffffffffffffffffffffff1681526020019060010190808311610b72575b505050505090506000815167ffffffffffffffff811115610be057610bdf6148f3565b5b604051908082528060200260200182016040528015610c1957816020015b610c06613ff2565b815260200190600190039081610bfe5790505b50905060005b8251811015610d3257600360008681526020019081526020016000206000848381518110610c5057610c4f615282565b5b602002602001015173ffffffffffffffffffffffffffffffffffffffff1673ffffffffffffffffffffffffffffffffffffffff1681526020019081526020016000206040518060600160405290816000820160009054906101000a900473ffffffffffffffffffffffffffffffffffffffff1673ffffffffffffffffffffffffffffffffffffffff1673ffffffffffffffffffffffffffffffffffffffff16815260200160018201548152602001600282015481525050828281518110610d1a57610d19615282565b5b60200260200101819052508080600101915050610c1f565b508092505050919050565b84846006600083815260200190815260200160002060008273ffffffffffffffffffffffffffffffffffffffff1673ffffffffffffffffffffffffffffffffffffffff16815260200190815260200160002060009054906101000a900460ff16610ddc576040517f08c379a0000000000000000000000000000000000000000000000000000000008152600401610dd3906152fd565b60405180910390fd5b610de46120e4565b73ffffffffffffffffffffffffffffffffffffffff163373ffffffffffffffffffffffffffffffffffffffff161480610e4857508573ffffffffffffffffffffffffffffffffffffffff163373ffffffffffffffffffffffffffffffffffffffff16145b610e87576040517f08c379a0000000000000000000000000000000000000000000000000000000008152600401610e7e90615369565b60405180910390fd5b60006001600089815260200190815260200160002060008873ffffffffffffffffffffffffffffffffffffffff1673ffffffffffffffffffffffffffffffffffffffff168152602001908152602001600020600087815260200190815260200160002090508060020160149054906101000a900460ff16610f3d576040517f08c379a0000000000000000000000000000000000000000000000000000000008152600401610f34906153d5565b60405180910390fd5b848160010181905550838160020160006101000a81548173ffffffffffffffffffffffffffffffffffffffff021916908373ffffffffffffffffffffffffffffffffffffffff160217905550878773ffffffffffffffffffffffffffffffffffffffff167f87647481c12b66c23d22b6734b51050f0f6e5b2af709e567489a3e473e120440888888604051610fd4939291906153f5565b60405180910390a35050505050505050565b81816006600083815260200190815260200160002060008273ffffffffffffffffffffffffffffffffffffffff1673ffffffffffffffffffffffffffffffffffffffff16815260200190815260200160002060009054906101000a900460ff16611085576040517f08c379a000000000000000000000000000000000000000000000000000000000815260040161107c906152fd565b60405180910390fd5b61108d6120e4565b73ffffffffffffffffffffffffffffffffffffffff163373ffffffffffffffffffffffffffffffffffffffff1614806110f157508273ffffffffffffffffffffffffffffffffffffffff163373ffffffffffffffffffffffffffffffffffffffff16145b611130576040517f08c379a000000000000000000000000000000000000000000000000000000000815260040161112790615369565b60405180910390fd5b6003600085815260200190815260200160002060008473ffffffffffffffffffffffffffffffffffffffff1673ffffffffffffffffffffffffffffffffffffffff168152602001908152602001600020600080820160006101000a81549073ffffffffffffffffffffffffffffffffffffffff02191690556001820160009055600282016000905550506111c484846133f8565b8273ffffffffffffffffffffffffffffffffffffffff16847fd0fc34423e42892f3ede9e76219ff22569925f08fd41017ecef6652484f93cbb60405160405180910390a350505050565b82826006600083815260200190815260200160002060008273ffffffffffffffffffffffffffffffffffffffff1673ffffffffffffffffffffffffffffffffffffffff16815260200190815260200160002060009054906101000a900460ff166112ad576040517f08c379a00000000000000000000000000000000000000000000000000000000081526004016112a4906152fd565b60405180910390fd5b6112b56120e4565b73ffffffffffffffffffffffffffffffffffffffff163373ffffffffffffffffffffffffffffffffffffffff16148061131957508373ffffffffffffffffffffffffffffffffffffffff163373ffffffffffffffffffffffffffffffffffffffff16145b611358576040517f08c379a000000000000000000000000000000000000000000000000000000000815260040161134f90615369565b60405180910390fd5b6001600086815260200190815260200160002060008573ffffffffffffffffffffffffffffffffffffffff1673ffffffffffffffffffffffffffffffffffffffff168152602001908152602001600020600084815260200190815260200160002060020160149054906101000a900460ff16611409576040517f08c379a0000000000000000000000000000000000000000000000000000000008152600401611400906153d5565b60405180910390fd5b6001600086815260200190815260200160002060008573ffffffffffffffffffffffffffffffffffffffff1673ffffffffffffffffffffffffffffffffffffffff168152602001908152602001600020600084815260200190815260200160002060008082016000905560018201600090556002820160006101000a81549073ffffffffffffffffffffffffffffffffffffffff02191690556002820160146101000a81549060ff021916905550505050505050565b600073ffffffffffffffffffffffffffffffffffffffff168473ffffffffffffffffffffffffffffffffffffffff16141580156115295750600073ffffffffffffffffffffffffffffffffffffffff168373ffffffffffffffffffffffffffffffffffffffff1614155b80156115625750600073ffffffffffffffffffffffffffffffffffffffff168273ffffffffffffffffffffffffffffffffffffffff1614155b801561159b5750600073ffffffffffffffffffffffffffffffffffffffff168173ffffffffffffffffffffffffffffffffffffffff1614155b6115da576040517f08c379a00000000000000000000000000000000000000000000000000000000081526004016115d1906151a0565b60405180910390fd5b60008473ffffffffffffffffffffffffffffffffffffffff166370a08231876040518263ffffffff1660e01b815260040161161591906141da565b602060405180830381865afa158015611632573d6000803e3d6000fd5b505050506040513d601f19601f8201168201806040525081019061165691906151c0565b905060008473ffffffffffffffffffffffffffffffffffffffff166370a08231886040518263ffffffff1660e01b815260040161169391906141da565b602060405180830381865afa1580156116b0573d6000803e3d6000fd5b505050506040513d601f19601f820116820180604052508101906116d491906151c0565b905060008473ffffffffffffffffffffffffffffffffffffffff166370a08231896040518263ffffffff1660e01b815260040161171191906141da565b602060405180830381865afa15801561172e573d6000803e3d6000fd5b505050506040513d601f19601f8201168201806040525081019061175291906151c0565b905060008473ffffffffffffffffffffffffffffffffffffffff166370a082318a6040518263ffffffff1660e01b815260040161178f91906141da565b602060405180830381865afa1580156117ac573d6000803e3d6000fd5b505050506040513d601f19601f820116820180604052508101906117d091906151c0565b90508773ffffffffffffffffffffffffffffffffffffffff166379cc67908a866040518363ffffffff1660e01b815260040161180d929190615259565b600060405180830381600087803b15801561182757600080fd5b505af115801561183b573d6000803e3d6000fd5b505050508673ffffffffffffffffffffffffffffffffffffffff166379cc67908a856040518363ffffffff1660e01b815260040161187a929190615259565b600060405180830381600087803b15801561189457600080fd5b505af11580156118a8573d6000803e3d6000fd5b505050508573ffffffffffffffffffffffffffffffffffffffff166379cc67908a846040518363ffffffff1660e01b81526004016118e7929190615259565b600060405180830381600087803b15801561190157600080fd5b505af1158015611915573d6000803e3d6000fd5b505050508473ffffffffffffffffffffffffffffffffffffffff166379cc67908a836040518363ffffffff1660e01b8152600401611954929190615259565b600060405180830381600087803b15801561196e57600080fd5b505af1158015611982573d6000803e3d6000fd5b50505050505050505050505050565b6006600089815260200190815260200160002060008873ffffffffffffffffffffffffffffffffffffffff1673ffffffffffffffffffffffffffffffffffffffff16815260200190815260200160002060009054906101000a900460ff16611a2e576040517f08c379a0000000000000000000000000000000000000000000000000000000008152600401611a25906152fd565b60405180910390fd5b6000600360008a815260200190815260200160002060008973ffffffffffffffffffffffffffffffffffffffff1673ffffffffffffffffffffffffffffffffffffffff16815260200190815260200160002060020154905060008782611a94919061545b565b9050611aa18a8a83613762565b8615611abb57611ab689878388888f8961395a565b611ac6565b611ac58a84613250565b5b50505050505050505050565b611ada613acd565b611ae46000613b54565b565b600160205282600052604060002060205281600052604060002060205280600052604060002060009250925050508060000154908060010154908060020160009054906101000a900473ffffffffffffffffffffffffffffffffffffffff16908060020160149054906101000a900460ff16905084565b7f000000000000000000000000000000000000000000000000000000000000000081565b80600073ffffffffffffffffffffffffffffffffffffffff168173ffffffffffffffffffffffffffffffffffffffff1603611bf1576040517f08c379a0000000000000000000000000000000000000000000000000000000008152600401611be8906154db565b60405180910390fd5b6006600084815260200190815260200160002060008373ffffffffffffffffffffffffffffffffffffffff1673ffffffffffffffffffffffffffffffffffffffff16815260200190815260200160002060009054906101000a900460ff16611c8e576040517f08c379a0000000000000000000000000000000000000000000000000000000008152600401611c85906152fd565b60405180910390fd5b816004600085815260200190815260200160002060006101000a81548173ffffffffffffffffffffffffffffffffffffffff021916908373ffffffffffffffffffffffffffffffffffffffff1602179055508173ffffffffffffffffffffffffffffffffffffffff16837f900138382a21b9499837672ce8cc6a4843799e62bcb2aa9880dda802a9a6903560405160405180910390a3505050565b600073ffffffffffffffffffffffffffffffffffffffff168273ffffffffffffffffffffffffffffffffffffffff1603611d98576040517f08c379a0000000000000000000000000000000000000000000000000000000008152600401611d8f906151a0565b60405180910390fd5b8173ffffffffffffffffffffffffffffffffffffffff166340c10f1984836040518363ffffffff1660e01b8152600401611dd3929190615259565b600060405180830381600087803b158015611ded57600080fd5b505af1158015611e01573d6000803e3d6000fd5b50505050505050565b600073ffffffffffffffffffffffffffffffffffffffff168473ffffffffffffffffffffffffffffffffffffffff1614158015611e745750600073ffffffffffffffffffffffffffffffffffffffff168373ffffffffffffffffffffffffffffffffffffffff1614155b8015611ead5750600073ffffffffffffffffffffffffffffffffffffffff168273ffffffffffffffffffffffffffffffffffffffff1614155b8015611ee65750600073ffffffffffffffffffffffffffffffffffffffff168173ffffffffffffffffffffffffffffffffffffffff1614155b611f25576040517f08c379a0000000000000000000000000000000000000000000000000000000008152600401611f1c906151a0565b60405180910390fd5b8373ffffffffffffffffffffffffffffffffffffffff166340c10f198660646040518363ffffffff1660e01b8152600401611f61929190615540565b600060405180830381600087803b158015611f7b57600080fd5b505af1158015611f8f573d6000803e3d6000fd5b505050508273ffffffffffffffffffffffffffffffffffffffff166340c10f198660646040518363ffffffff1660e01b8152600401611fcf929190615540565b600060405180830381600087803b158015611fe957600080fd5b505af1158015611ffd573d6000803e3d6000fd5b505050508173ffffffffffffffffffffffffffffffffffffffff166340c10f198660646040518363ffffffff1660e01b815260040161203d929190615540565b600060405180830381600087803b15801561205757600080fd5b505af115801561206b573d6000803e3d6000fd5b505050508073ffffffffffffffffffffffffffffffffffffffff166340c10f198660646040518363ffffffff1660e01b81526004016120ab929190615540565b600060405180830381600087803b1580156120c557600080fd5b505af11580156120d9573d6000803e3d6000fd5b505050505050505050565b60008060009054906101000a900473ffffffffffffffffffffffffffffffffffffffff16905090565b60006006600084815260200190815260200160002060008373ffffffffffffffffffffffffffffffffffffffff1673ffffffffffffffffffffffffffffffffffffffff16815260200190815260200160002060009054906101000a900460ff16905092915050565b600060056000838152602001908152602001600020805490509050919050565b600760205281600052604060002081815481106121b157600080fd5b90600052602060002001600091509150505481565b606060006002600085815260200190815260200160002060008473ffffffffffffffffffffffffffffffffffffffff1673ffffffffffffffffffffffffffffffffffffffff16815260200190815260200160002080548060200260200160405190810160405280929190818152602001828054801561226457602002820191906000526020600020905b815481526020019060010190808311612250575b505050505090506000815167ffffffffffffffff811115612288576122876148f3565b5b6040519080825280602002602001820160405280156122c157816020015b6122ae614029565b8152602001906001900390816122a65790505b50905060005b8251811015612406576001600087815260200190815260200160002060008673ffffffffffffffffffffffffffffffffffffffff1673ffffffffffffffffffffffffffffffffffffffff168152602001908152602001600020600084838151811061233557612334615282565b5b6020026020010151815260200190815260200160002060405180608001604052908160008201548152602001600182015481526020016002820160009054906101000a900473ffffffffffffffffffffffffffffffffffffffff1673ffffffffffffffffffffffffffffffffffffffff1673ffffffffffffffffffffffffffffffffffffffff1681526020016002820160149054906101000a900460ff1615151515815250508282815181106123ee576123ed615282565b5b602002602001018190525080806001019150506122c7565b50809250505092915050565b6005602052816000526040600020818154811061242e57600080fd5b906000526020600020016000915091509054906101000a900473ffffffffffffffffffffffffffffffffffffffff1681565b6124686120e4565b73ffffffffffffffffffffffffffffffffffffffff163373ffffffffffffffffffffffffffffffffffffffff16146124d5576040517f08c379a00000000000000000000000000000000000000000000000000000000081526004016124cc906155db565b60405180910390fd5b81819050848490501461251d576040517f08c379a000000000000000000000000000000000000000000000000000000000815260040161251490615647565b60405180910390fd5b60005b8484905081101561285e57600073ffffffffffffffffffffffffffffffffffffffff1685858381811061255657612555615282565b5b905060200201602081019061256b919061426b565b73ffffffffffffffffffffffffffffffffffffffff16036125c1576040517f08c379a00000000000000000000000000000000000000000000000000000000081526004016125b8906154db565b60405180910390fd5b6006600087815260200190815260200160002060008686848181106125e9576125e8615282565b5b90506020020160208101906125fe919061426b565b73ffffffffffffffffffffffffffffffffffffffff1673ffffffffffffffffffffffffffffffffffffffff16815260200190815260200160002060009054906101000a900460ff1661267c5761267b8686868481811061266157612660615282565b5b9050602002016020810190612676919061426b565b612da6565b5b604051806060016040528086868481811061269a57612699615282565b5b90506020020160208101906126af919061426b565b73ffffffffffffffffffffffffffffffffffffffff1681526020018781526020018484848181106126e3576126e2615282565b5b9050602002013581525060036000888152602001908152602001600020600087878581811061271557612714615282565b5b905060200201602081019061272a919061426b565b73ffffffffffffffffffffffffffffffffffffffff1673ffffffffffffffffffffffffffffffffffffffff16815260200190815260200160002060008201518160000160006101000a81548173ffffffffffffffffffffffffffffffffffffffff021916908373ffffffffffffffffffffffffffffffffffffffff16021790555060208201518160010155604082015181600201559050508484828181106127d5576127d4615282565b5b90506020020160208101906127ea919061426b565b73ffffffffffffffffffffffffffffffffffffffff16867fca15e30f8364a782f08c5f2fbc1d498daca1910d21d967d8b23ba8b596452c1a85858581811061283557612834615282565b5b905060200201356040516128499190614b44565b60405180910390a38080600101915050612520565b505050505050565b60006004600083815260200190815260200160002060009054906101000a900473ffffffffffffffffffffffffffffffffffffffff169050919050565b6128ab614029565b6001600085815260200190815260200160002060008473ffffffffffffffffffffffffffffffffffffffff1673ffffffffffffffffffffffffffffffffffffffff168152602001908152602001600020600083815260200190815260200160002060020160149054906101000a900460ff1661295c576040517f08c379a0000000000000000000000000000000000000000000000000000000008152600401612953906153d5565b60405180910390fd5b6001600085815260200190815260200160002060008473ffffffffffffffffffffffffffffffffffffffff1673ffffffffffffffffffffffffffffffffffffffff168152602001908152602001600020600083815260200190815260200160002060405180608001604052908160008201548152602001600182015481526020016002820160009054906101000a900473ffffffffffffffffffffffffffffffffffffffff1673ffffffffffffffffffffffffffffffffffffffff1673ffffffffffffffffffffffffffffffffffffffff1681526020016002820160149054906101000a900460ff16151515158152505090509392505050565b6060806000612a64856108c4565b90506000815167ffffffffffffffff811115612a8357612a826148f3565b5b604051908082528060200260200182016040528015612abc57816020015b612aa9613ff2565b815260200190600190039081612aa15790505b50905060005b8251811015612bd557600360008881526020019081526020016000206000848381518110612af357612af2615282565b5b602002602001015173ffffffffffffffffffffffffffffffffffffffff1673ffffffffffffffffffffffffffffffffffffffff1681526020019081526020016000206040518060600160405290816000820160009054906101000a900473ffffffffffffffffffffffffffffffffffffffff1673ffffffffffffffffffffffffffffffffffffffff1673ffffffffffffffffffffffffffffffffffffffff16815260200160018201548152602001600282015481525050828281518110612bbd57612bbc615282565b5b60200260200101819052508080600101915050612ac2565b506000612be287876121c6565b90508181945094505050509250929050565b612bfc613acd565b600073ffffffffffffffffffffffffffffffffffffffff168173ffffffffffffffffffffffffffffffffffffffff1603612c6e5760006040517f1e4fbdf7000000000000000000000000000000000000000000000000000000008152600401612c6591906141da565b60405180910390fd5b612c7781613b54565b50565b6003602052816000526040600020602052806000526040600020600091509150508060000160009054906101000a900473ffffffffffffffffffffffffffffffffffffffff16908060010154908060020154905083565b612cd9613ff2565b6003600084815260200190815260200160002060008373ffffffffffffffffffffffffffffffffffffffff1673ffffffffffffffffffffffffffffffffffffffff1681526020019081526020016000206040518060600160405290816000820160009054906101000a900473ffffffffffffffffffffffffffffffffffffffff1673ffffffffffffffffffffffffffffffffffffffff1673ffffffffffffffffffffffffffffffffffffffff16815260200160018201548152602001600282015481525050905092915050565b6006600083815260200190815260200160002060008273ffffffffffffffffffffffffffffffffffffffff1673ffffffffffffffffffffffffffffffffffffffff16815260200190815260200160002060009054906101000a900460ff16612f905760056000838152602001908152602001600020819080600181540180825580915050600190039060005260206000200160009091909190916101000a81548173ffffffffffffffffffffffffffffffffffffffff021916908373ffffffffffffffffffffffffffffffffffffffff16021790555060016006600084815260200190815260200160002060008373ffffffffffffffffffffffffffffffffffffffff1673ffffffffffffffffffffffffffffffffffffffff16815260200190815260200160002060006101000a81548160ff021916908315150217905550600760008273ffffffffffffffffffffffffffffffffffffffff1673ffffffffffffffffffffffffffffffffffffffff1681526020019081526020016000208290806001815401808255809150506001900390600052602060002001600090919091909150558073ffffffffffffffffffffffffffffffffffffffff16827fe52d81459d9994c73740ea14247d27531f0f00be7c54bc1b8b759df2feda9fe760405160405180910390a35b5050565b81600073ffffffffffffffffffffffffffffffffffffffff168173ffffffffffffffffffffffffffffffffffffffff1603613004576040517f08c379a0000000000000000000000000000000000000000000000000000000008152600401612ffb906154db565b60405180910390fd5b61300c6120e4565b73ffffffffffffffffffffffffffffffffffffffff163373ffffffffffffffffffffffffffffffffffffffff16148061307057508273ffffffffffffffffffffffffffffffffffffffff163373ffffffffffffffffffffffffffffffffffffffff16145b6130af576040517f08c379a00000000000000000000000000000000000000000000000000000000081526004016130a690615369565b60405180910390fd5b6006600085815260200190815260200160002060008473ffffffffffffffffffffffffffffffffffffffff1673ffffffffffffffffffffffffffffffffffffffff16815260200190815260200160002060009054906101000a900460ff1661311c5761311b8484612da6565b5b60405180606001604052808473ffffffffffffffffffffffffffffffffffffffff168152602001858152602001838152506003600086815260200190815260200160002060008573ffffffffffffffffffffffffffffffffffffffff1673ffffffffffffffffffffffffffffffffffffffff16815260200190815260200160002060008201518160000160006101000a81548173ffffffffffffffffffffffffffffffffffffffff021916908373ffffffffffffffffffffffffffffffffffffffff16021790555060208201518160010155604082015181600201559050508273ffffffffffffffffffffffffffffffffffffffff16847fca15e30f8364a782f08c5f2fbc1d498daca1910d21d967d8b23ba8b596452c1a846040516132429190614b44565b60405180910390a350505050565b80600073ffffffffffffffffffffffffffffffffffffffff168173ffffffffffffffffffffffffffffffffffffffff16036132c0576040517f08c379a00000000000000000000000000000000000000000000000000000000081526004016132b7906154db565b60405180910390fd5b6006600084815260200190815260200160002060008373ffffffffffffffffffffffffffffffffffffffff1673ffffffffffffffffffffffffffffffffffffffff16815260200190815260200160002060009054906101000a900460ff1661335d576040517f08c379a0000000000000000000000000000000000000000000000000000000008152600401613354906152fd565b60405180910390fd5b816004600085815260200190815260200160002060006101000a81548173ffffffffffffffffffffffffffffffffffffffff021916908373ffffffffffffffffffffffffffffffffffffffff1602179055508173ffffffffffffffffffffffffffffffffffffffff16837f900138382a21b9499837672ce8cc6a4843799e62bcb2aa9880dda802a9a6903560405160405180910390a3505050565b6006600083815260200190815260200160002060008273ffffffffffffffffffffffffffffffffffffffff1673ffffffffffffffffffffffffffffffffffffffff16815260200190815260200160002060009054906101000a900460ff161561375e5760006006600084815260200190815260200160002060008373ffffffffffffffffffffffffffffffffffffffff1673ffffffffffffffffffffffffffffffffffffffff16815260200190815260200160002060006101000a81548160ff021916908315150217905550600060056000848152602001908152602001600020905060005b818054905081101561365b578273ffffffffffffffffffffffffffffffffffffffff1682828154811061351457613513615282565b5b9060005260206000200160009054906101000a900473ffffffffffffffffffffffffffffffffffffffff1673ffffffffffffffffffffffffffffffffffffffff160361364e57816001838054905061356c9190615667565b8154811061357d5761357c615282565b5b9060005260206000200160009054906101000a900473ffffffffffffffffffffffffffffffffffffffff168282815481106135bb576135ba615282565b5b9060005260206000200160006101000a81548173ffffffffffffffffffffffffffffffffffffffff021916908373ffffffffffffffffffffffffffffffffffffffff160217905550818054806136145761361361569b565b5b6001900381819060005260206000200160006101000a81549073ffffffffffffffffffffffffffffffffffffffff0219169055905561365b565b80806001019150506134de565b506000600760008473ffffffffffffffffffffffffffffffffffffffff1673ffffffffffffffffffffffffffffffffffffffff168152602001908152602001600020905060005b818054905081101561375a57848282815481106136c2576136c1615282565b5b90600052602060002001540361374d5781600183805490506136e49190615667565b815481106136f5576136f4615282565b5b906000526020600020015482828154811061371357613712615282565b5b9060005260206000200181905550818054806137325761373161569b565b5b6001900381819060005260206000200160009055905561375a565b80806001019150506136a2565b5050505b5050565b82826006600083815260200190815260200160002060008273ffffffffffffffffffffffffffffffffffffffff1673ffffffffffffffffffffffffffffffffffffffff16815260200190815260200160002060009054906101000a900460ff16613801576040517f08c379a00000000000000000000000000000000000000000000000000000000081526004016137f8906152fd565b60405180910390fd5b6138096120e4565b73ffffffffffffffffffffffffffffffffffffffff163373ffffffffffffffffffffffffffffffffffffffff16148061386d57508373ffffffffffffffffffffffffffffffffffffffff163373ffffffffffffffffffffffffffffffffffffffff16145b6138ac576040517f08c379a00000000000000000000000000000000000000000000000000000000081526004016138a390615369565b60405180910390fd5b826003600087815260200190815260200160002060008673ffffffffffffffffffffffffffffffffffffffff1673ffffffffffffffffffffffffffffffffffffffff168152602001908152602001600020600201819055508373ffffffffffffffffffffffffffffffffffffffff16857fca15e30f8364a782f08c5f2fbc1d498daca1910d21d967d8b23ba8b596452c1a8560405161394b9190614b44565b60405180910390a35050505050565b8673ffffffffffffffffffffffffffffffffffffffff166004600084815260200190815260200160002060009054906101000a900473ffffffffffffffffffffffffffffffffffffffff1673ffffffffffffffffffffffffffffffffffffffff16146139fb576040517f08c379a00000000000000000000000000000000000000000000000000000000081526004016139f290615716565b60405180910390fd5b613a06878585610982565b60007f000000000000000000000000000000000000000000000000000000000000000073ffffffffffffffffffffffffffffffffffffffff16635d94337f89898989896040518663ffffffff1660e01b8152600401613a6995949392919061576f565b6020604051808303816000875af1158015613a88573d6000803e3d6000fd5b505050506040513d601f19601f82011682018060405250810190613aac91906151c0565b9050613ab9838983613c18565b613ac38383613250565b5050505050505050565b613ad5613f88565b73ffffffffffffffffffffffffffffffffffffffff16613af36120e4565b73ffffffffffffffffffffffffffffffffffffffff1614613b5257613b16613f88565b6040517f118cdaa7000000000000000000000000000000000000000000000000000000008152600401613b4991906141da565b60405180910390fd5b565b60008060009054906101000a900473ffffffffffffffffffffffffffffffffffffffff169050816000806101000a81548173ffffffffffffffffffffffffffffffffffffffff021916908373ffffffffffffffffffffffffffffffffffffffff1602179055508173ffffffffffffffffffffffffffffffffffffffff168173ffffffffffffffffffffffffffffffffffffffff167f8be0079c531659141344cd1fd0a4f28419497f9722a3daafe3b4186f6b6457e060405160405180910390a35050565b81600073ffffffffffffffffffffffffffffffffffffffff168173ffffffffffffffffffffffffffffffffffffffff1603613c88576040517f08c379a0000000000000000000000000000000000000000000000000000000008152600401613c7f906154db565b60405180910390fd5b6006600085815260200190815260200160002060008473ffffffffffffffffffffffffffffffffffffffff1673ffffffffffffffffffffffffffffffffffffffff16815260200190815260200160002060009054906101000a900460ff16613d25576040517f08c379a0000000000000000000000000000000000000000000000000000000008152600401613d1c906152fd565b60405180910390fd5b6001600085815260200190815260200160002060008473ffffffffffffffffffffffffffffffffffffffff1673ffffffffffffffffffffffffffffffffffffffff168152602001908152602001600020600083815260200190815260200160002060020160149054906101000a900460ff16613e13576002600085815260200190815260200160002060008473ffffffffffffffffffffffffffffffffffffffff1673ffffffffffffffffffffffffffffffffffffffff1681526020019081526020016000208290806001815401808255809150506001900390600052602060002001600090919091909150555b604051806080016040528083815260200160008152602001600073ffffffffffffffffffffffffffffffffffffffff168152602001600115158152506001600086815260200190815260200160002060008573ffffffffffffffffffffffffffffffffffffffff1673ffffffffffffffffffffffffffffffffffffffff1681526020019081526020016000206000848152602001908152602001600020600082015181600001556020820151816001015560408201518160020160006101000a81548173ffffffffffffffffffffffffffffffffffffffff021916908373ffffffffffffffffffffffffffffffffffffffff16021790555060608201518160020160146101000a81548160ff021916908315150217905550905050838373ffffffffffffffffffffffffffffffffffffffff167f87647481c12b66c23d22b6734b51050f0f6e5b2af709e567489a3e473e12044084600080604051613f7a93929190615804565b60405180910390a350505050565b600033905090565b6040518060c00160405280600073ffffffffffffffffffffffffffffffffffffffff1681526020016060815260200160008152602001600073ffffffffffffffffffffffffffffffffffffffff16815260200160008152602001600081525090565b6040518060600160405280600073ffffffffffffffffffffffffffffffffffffffff16815260200160008152602001600081525090565b60405180608001604052806000815260200160008152602001600073ffffffffffffffffffffffffffffffffffffffff1681526020016000151581525090565b6000604051905090565b600080fd5b600080fd5b6000819050919050565b6140908161407d565b811461409b57600080fd5b50565b6000813590506140ad81614087565b92915050565b600073ffffffffffffffffffffffffffffffffffffffff82169050919050565b60006140de826140b3565b9050919050565b6140ee816140d3565b81146140f957600080fd5b50565b60008135905061410b816140e5565b92915050565b60008060008060008060c0878903121561412e5761412d614073565b5b600061413c89828a0161409e565b965050602061414d89828a016140fc565b955050604061415e89828a016140fc565b945050606061416f89828a016140fc565b935050608061418089828a016140fc565b92505060a061419189828a016140fc565b9150509295509295509295565b6000602082840312156141b4576141b3614073565b5b60006141c28482850161409e565b91505092915050565b6141d4816140d3565b82525050565b60006020820190506141ef60008301846141cb565b92915050565b6000806040838503121561420c5761420b614073565b5b600061421a8582860161409e565b925050602061422b858286016140fc565b9150509250929050565b60008115159050919050565b61424a81614235565b82525050565b60006020820190506142656000830184614241565b92915050565b60006020828403121561428157614280614073565b5b600061428f848285016140fc565b91505092915050565b600081519050919050565b600082825260208201905092915050565b6000819050602082019050919050565b6142cd8161407d565b82525050565b60006142df83836142c4565b60208301905092915050565b6000602082019050919050565b600061430382614298565b61430d81856142a3565b9350614318836142b4565b8060005b8381101561434957815161433088826142d3565b975061433b836142eb565b92505060018101905061431c565b5085935050505092915050565b6000602082019050818103600083015261437081846142f8565b905092915050565b614381816140d3565b82525050565b600081519050919050565b600082825260208201905092915050565b60005b838110156143c15780820151818401526020810190506143a6565b60008484015250505050565b6000601f19601f8301169050919050565b60006143e982614387565b6143f38185614392565b93506144038185602086016143a3565b61440c816143cd565b840191505092915050565b600060c08301600083015161442f6000860182614378565b506020830151848203602086015261444782826143de565b915050604083015161445c60408601826142c4565b50606083015161446f6060860182614378565b50608083015161448260808601826142c4565b5060a083015161449560a08601826142c4565b508091505092915050565b600060208201905081810360008301526144ba8184614417565b905092915050565b600081519050919050565b600082825260208201905092915050565b6000819050602082019050919050565b60006144fa8383614378565b60208301905092915050565b6000602082019050919050565b600061451e826144c2565b61452881856144cd565b9350614533836144de565b8060005b8381101561456457815161454b88826144ee565b975061455683614506565b925050600181019050614537565b5085935050505092915050565b6000602082019050818103600083015261458b8184614513565b905092915050565b600080600080600060a086880312156145af576145ae614073565b5b60006145bd888289016140fc565b95505060206145ce888289016140fc565b94505060406145df8882890161409e565b93505060606145f0888289016140fc565b92505060806146018882890161409e565b9150509295509295909350565b60008060006060848603121561462757614626614073565b5b6000614635868287016140fc565b9350506020614646868287016140fc565b92505060406146578682870161409e565b9150509250925092565b600081519050919050565b600082825260208201905092915050565b6000819050602082019050919050565b6060820160008201516146a36000850182614378565b5060208201516146b660208501826142c4565b5060408201516146c960408501826142c4565b50505050565b60006146db838361468d565b60608301905092915050565b6000602082019050919050565b60006146ff82614661565b614709818561466c565b93506147148361467d565b8060005b8381101561474557815161472c88826146cf565b9750614737836146e7565b925050600181019050614718565b5085935050505092915050565b6000602082019050818103600083015261476c81846146f4565b905092915050565b600080600080600060a086880312156147905761478f614073565b5b600061479e8882890161409e565b95505060206147af888289016140fc565b94505060406147c08882890161409e565b93505060606147d18882890161409e565b92505060806147e2888289016140fc565b9150509295509295909350565b60008060006060848603121561480857614807614073565b5b60006148168682870161409e565b9350506020614827868287016140fc565b92505060406148388682870161409e565b9150509250925092565b600080600080600060a0868803121561485e5761485d614073565b5b600061486c888289016140fc565b955050602061487d888289016140fc565b945050604061488e888289016140fc565b935050606061489f888289016140fc565b92505060806148b0888289016140fc565b9150509295509295909350565b6148c681614235565b81146148d157600080fd5b50565b6000813590506148e3816148bd565b92915050565b600080fd5b600080fd5b7f4e487b7100000000000000000000000000000000000000000000000000000000600052604160045260246000fd5b61492b826143cd565b810181811067ffffffffffffffff8211171561494a576149496148f3565b5b80604052505050565b600061495d614069565b90506149698282614922565b919050565b600067ffffffffffffffff821115614989576149886148f3565b5b614992826143cd565b9050602081019050919050565b82818337600083830152505050565b60006149c16149bc8461496e565b614953565b9050828152602081018484840111156149dd576149dc6148ee565b5b6149e884828561499f565b509392505050565b600082601f830112614a0557614a046148e9565b5b8135614a158482602086016149ae565b91505092915050565b600080600080600080600080610100898b031215614a3f57614a3e614073565b5b6000614a4d8b828c0161409e565b9850506020614a5e8b828c016140fc565b9750506040614a6f8b828c0161409e565b9650506060614a808b828c016148d4565b955050608089013567ffffffffffffffff811115614aa157614aa0614078565b5b614aad8b828c016149f0565b94505060a0614abe8b828c016140fc565b93505060c0614acf8b828c0161409e565b92505060e0614ae08b828c016140fc565b9150509295985092959890939650565b614af98161407d565b82525050565b6000608082019050614b146000830187614af0565b614b216020830186614af0565b614b2e60408301856141cb565b614b3b6060830184614241565b95945050505050565b6000602082019050614b596000830184614af0565b92915050565b60008060408385031215614b7657614b75614073565b5b6000614b84858286016140fc565b9250506020614b958582860161409e565b9150509250929050565b600081519050919050565b600082825260208201905092915050565b6000819050602082019050919050565b614bd481614235565b82525050565b608082016000820151614bf060008501826142c4565b506020820151614c0360208501826142c4565b506040820151614c166040850182614378565b506060820151614c296060850182614bcb565b50505050565b6000614c3b8383614bda565b60808301905092915050565b6000602082019050919050565b6000614c5f82614b9f565b614c698185614baa565b9350614c7483614bbb565b8060005b83811015614ca5578151614c8c8882614c2f565b9750614c9783614c47565b925050600181019050614c78565b5085935050505092915050565b60006020820190508181036000830152614ccc8184614c54565b905092915050565b60008060408385031215614ceb57614cea614073565b5b6000614cf98582860161409e565b9250506020614d0a8582860161409e565b9150509250929050565b600080fd5b600080fd5b60008083601f840112614d3457614d336148e9565b5b8235905067ffffffffffffffff811115614d5157614d50614d14565b5b602083019150836020820283011115614d6d57614d6c614d19565b5b9250929050565b60008083601f840112614d8a57614d896148e9565b5b8235905067ffffffffffffffff811115614da757614da6614d14565b5b602083019150836020820283011115614dc357614dc2614d19565b5b9250929050565b600080600080600060608688031215614de657614de5614073565b5b6000614df48882890161409e565b955050602086013567ffffffffffffffff811115614e1557614e14614078565b5b614e2188828901614d1e565b9450945050604086013567ffffffffffffffff811115614e4457614e43614078565b5b614e5088828901614d74565b92509250509295509295909350565b608082016000820151614e7560008501826142c4565b506020820151614e8860208501826142c4565b506040820151614e9b6040850182614378565b506060820151614eae6060850182614bcb565b50505050565b6000608082019050614ec96000830184614e5f565b92915050565b60006040820190508181036000830152614ee981856146f4565b90508181036020830152614efd8184614c54565b90509392505050565b6000606082019050614f1b60008301866141cb565b614f286020830185614af0565b614f356040830184614af0565b949350505050565b606082016000820151614f536000850182614378565b506020820151614f6660208501826142c4565b506040820151614f7960408501826142c4565b50505050565b6000606082019050614f946000830184614f3d565b92915050565b600080fd5b600080fd5b600081519050614fb3816140e5565b92915050565b6000614fcc614fc78461496e565b614953565b905082815260208101848484011115614fe857614fe76148ee565b5b614ff38482856143a3565b509392505050565b600082601f8301126150105761500f6148e9565b5b8151615020848260208601614fb9565b91505092915050565b60008151905061503881614087565b92915050565b600060c0828403121561505457615053614f9a565b5b61505e60c0614953565b9050600061506e84828501614fa4565b600083015250602082015167ffffffffffffffff81111561509257615091614f9f565b5b61509e84828501614ffb565b60208301525060406150b284828501615029565b60408301525060606150c684828501614fa4565b60608301525060806150da84828501615029565b60808301525060a06150ee84828501615029565b60a08301525092915050565b6000602082840312156151105761510f614073565b5b600082015167ffffffffffffffff81111561512e5761512d614078565b5b61513a8482850161503e565b91505092915050565b600082825260208201905092915050565b7f496e76616c696420746f6b656e20616464726573730000000000000000000000600082015250565b600061518a601583615143565b915061519582615154565b602082019050919050565b600060208201905081810360008301526151b98161517d565b9050919050565b6000602082840312156151d6576151d5614073565b5b60006151e484828501615029565b91505092915050565b7f496e73756666696369656e742062616c616e6365000000000000000000000000600082015250565b6000615223601483615143565b915061522e826151ed565b602082019050919050565b6000602082019050818103600083015261525281615216565b9050919050565b600060408201905061526e60008301856141cb565b61527b6020830184614af0565b9392505050565b7f4e487b7100000000000000000000000000000000000000000000000000000000600052603260045260246000fd5b7f506c61796572206e6f7420696e2067616d650000000000000000000000000000600082015250565b60006152e7601283615143565b91506152f2826152b1565b602082019050919050565b60006020820190508181036000830152615316816152da565b9050919050565b7f556e617574686f72697a65640000000000000000000000000000000000000000600082015250565b6000615353600c83615143565b915061535e8261531d565b602082019050919050565b6000602082019050818103600083015261538281615346565b9050919050565b7f50726f7065727479206e6f7420666f756e640000000000000000000000000000600082015250565b60006153bf601283615143565b91506153ca82615389565b602082019050919050565b600060208201905081810360008301526153ee816153b2565b9050919050565b600060608201905061540a6000830186614af0565b6154176020830185614af0565b61542460408301846141cb565b949350505050565b7f4e487b7100000000000000000000000000000000000000000000000000000000600052601160045260246000fd5b60006154668261407d565b91506154718361407d565b92508282019050808211156154895761548861542c565b5b92915050565b7f496e76616c696420616464726573730000000000000000000000000000000000600082015250565b60006154c5600f83615143565b91506154d08261548f565b602082019050919050565b600060208201905081810360008301526154f4816154b8565b9050919050565b6000819050919050565b6000819050919050565b600061552a615525615520846154fb565b615505565b61407d565b9050919050565b61553a8161550f565b82525050565b600060408201905061555560008301856141cb565b6155626020830184615531565b9392505050565b7f4f6e6c79206f776e65722063616e2062617463682073657420706f736974696f60008201527f6e73000000000000000000000000000000000000000000000000000000000000602082015250565b60006155c5602283615143565b91506155d082615569565b604082019050919050565b600060208201905081810360008301526155f4816155b8565b9050919050565b7f417272617973206c656e677468206d69736d6174636800000000000000000000600082015250565b6000615631601683615143565b915061563c826155fb565b602082019050919050565b6000602082019050818103600083015261566081615624565b9050919050565b60006156728261407d565b915061567d8361407d565b92508282039050818111156156955761569461542c565b5b92915050565b7f4e487b7100000000000000000000000000000000000000000000000000000000600052603160045260246000fd5b7f4e6f7420796f7572207475726e00000000000000000000000000000000000000600082015250565b6000615700600d83615143565b915061570b826156ca565b602082019050919050565b6000602082019050818103600083015261572f816156f3565b9050919050565b600061574182614387565b61574b8185615143565b935061575b8185602086016143a3565b615764816143cd565b840191505092915050565b600060a08201905061578460008301886141cb565b81810360208301526157968187615736565b90506157a56040830186614af0565b6157b260608301856141cb565b6157bf6080830184614af0565b9695505050505050565b6000819050919050565b60006157ee6157e96157e4846157c9565b615505565b61407d565b9050919050565b6157fe816157d3565b82525050565b60006060820190506158196000830186614af0565b61582660208301856157f5565b61583360408301846141cb565b94935050505056fea26469706673582212201ff5ff6a9cf2d001ca85416351312cd1602cd95b72ecde34a1c55c19582b16f564736f6c634300081c0033",
  "linkReferences": {},
  "deployedLinkReferences": {}
}