{
  "_format": "hh-sol-artifact-1",
  "contractName": "Multipoly",
  "sourceName": "contracts/Multipoly.sol",
  "abi": [
    {
      "inputs": [
        {
          "internalType": "address",
          "name": "initialOwner",
          "type": "address"
        },
        {
          "internalType": "address",
          "name": "_property_nft",
          "type": "address"
        }
      ],
      "stateMutability": "nonpayable",
      "type": "constructor"
    },
    {
      "inputs": [
        {
          "internalType": "address",
          "name": "owner",
          "type": "address"
        }
      ],
      "name": "OwnableInvalidOwner",
      "type": "error"
    },
    {
      "inputs": [
        {
          "internalType": "address",
          "name": "account",
          "type": "address"
        }
      ],
      "name": "OwnableUnauthorizedAccount",
      "type": "error"
    },
    {
      "anonymous": false,
      "inputs": [
        {
          "indexed": true,
          "internalType": "uint256",
          "name": "game_id",
          "type": "uint256"
        }
      ],
      "name": "GameCreated",
      "type": "event"
    },
    {
      "anonymous": false,
      "inputs": [
        {
          "indexed": true,
          "internalType": "address",
          "name": "previousOwner",
          "type": "address"
        },
        {
          "indexed": true,
          "internalType": "address",
          "name": "newOwner",
          "type": "address"
        }
      ],
      "name": "OwnershipTransferred",
      "type": "event"
    },
    {
      "anonymous": false,
      "inputs": [
        {
          "indexed": true,
          "internalType": "uint256",
          "name": "game_id",
          "type": "uint256"
        },
        {
          "indexed": true,
          "internalType": "address",
          "name": "user_account",
          "type": "address"
        }
      ],
      "name": "PlayerJoinedGame",
      "type": "event"
    },
    {
      "anonymous": false,
      "inputs": [
        {
          "indexed": true,
          "internalType": "uint256",
          "name": "game_id",
          "type": "uint256"
        },
        {
          "indexed": true,
          "internalType": "address",
          "name": "user_account",
          "type": "address"
        }
      ],
      "name": "PlayerLeftGame",
      "type": "event"
    },
    {
      "anonymous": false,
      "inputs": [
        {
          "indexed": true,
          "internalType": "uint256",
          "name": "game_id",
          "type": "uint256"
        },
        {
          "indexed": true,
          "internalType": "address",
          "name": "user_account",
          "type": "address"
        },
        {
          "indexed": false,
          "internalType": "uint256",
          "name": "position",
          "type": "uint256"
        }
      ],
      "name": "PlayerPositionUpdated",
      "type": "event"
    },
    {
      "anonymous": false,
      "inputs": [
        {
          "indexed": true,
          "internalType": "address",
          "name": "user_account",
          "type": "address"
        },
        {
          "indexed": true,
          "internalType": "uint256",
          "name": "game_id",
          "type": "uint256"
        },
        {
          "indexed": false,
          "internalType": "uint256",
          "name": "nft_id",
          "type": "uint256"
        },
        {
          "indexed": false,
          "internalType": "uint256",
          "name": "stake_amount",
          "type": "uint256"
        },
        {
          "indexed": false,
          "internalType": "address",
          "name": "token",
          "type": "address"
        }
      ],
      "name": "PlayerPropertiesSet",
      "type": "event"
    },
    {
      "anonymous": false,
      "inputs": [
        {
          "indexed": true,
          "internalType": "uint256",
          "name": "game_id",
          "type": "uint256"
        },
        {
          "indexed": true,
          "internalType": "address",
          "name": "user_account",
          "type": "address"
        }
      ],
      "name": "PlayerTurnSet",
      "type": "event"
    },
    {
      "inputs": [],
      "name": "PROPERTY_NFT",
      "outputs": [
        {
          "internalType": "address",
          "name": "",
          "type": "address"
        }
      ],
      "stateMutability": "view",
      "type": "function"
    },
    {
      "inputs": [
        {
          "internalType": "uint256",
          "name": "game_id",
          "type": "uint256"
        },
        {
          "internalType": "address[]",
          "name": "user_accounts",
          "type": "address[]"
        },
        {
          "internalType": "uint256[]",
          "name": "positions",
          "type": "uint256[]"
        }
      ],
      "name": "batchSetPlayerPositions",
      "outputs": [],
      "stateMutability": "nonpayable",
      "type": "function"
    },
    {
      "inputs": [
        {
          "internalType": "address",
          "name": "player_address",
          "type": "address"
        },
        {
          "internalType": "address",
          "name": "token_address_1",
          "type": "address"
        },
        {
          "internalType": "address",
          "name": "token_address_2",
          "type": "address"
        },
        {
          "internalType": "address",
          "name": "token_address_3",
          "type": "address"
        },
        {
          "internalType": "address",
          "name": "token_address_4",
          "type": "address"
        }
      ],
      "name": "burnAllTokens",
      "outputs": [],
      "stateMutability": "nonpayable",
      "type": "function"
    },
    {
      "inputs": [
        {
          "internalType": "address",
          "name": "player_address",
          "type": "address"
        },
        {
          "internalType": "address",
          "name": "token_address",
          "type": "address"
        },
        {
          "internalType": "uint256",
          "name": "amount",
          "type": "uint256"
        }
      ],
      "name": "credit",
      "outputs": [],
      "stateMutability": "nonpayable",
      "type": "function"
    },
    {
      "inputs": [
        {
          "internalType": "address",
          "name": "player_address",
          "type": "address"
        },
        {
          "internalType": "address",
          "name": "token_address",
          "type": "address"
        },
        {
          "internalType": "uint256",
          "name": "amount",
          "type": "uint256"
        }
      ],
      "name": "debit",
      "outputs": [],
      "stateMutability": "nonpayable",
      "type": "function"
    },
    {
      "inputs": [
        {
          "internalType": "uint256",
          "name": "game_id",
          "type": "uint256"
        },
        {
          "internalType": "address",
          "name": "user_account",
          "type": "address"
        }
      ],
      "name": "deletePlayerPosition",
      "outputs": [],
      "stateMutability": "nonpayable",
      "type": "function"
    },
    {
      "inputs": [
        {
          "internalType": "uint256",
          "name": "game_id",
          "type": "uint256"
        },
        {
          "internalType": "address",
          "name": "user_account",
          "type": "address"
        },
        {
          "internalType": "uint256",
          "name": "nft_id",
          "type": "uint256"
        }
      ],
      "name": "deletePlayerProperty",
      "outputs": [],
      "stateMutability": "nonpayable",
      "type": "function"
    },
    {
      "inputs": [
        {
          "internalType": "uint256",
          "name": "",
          "type": "uint256"
        },
        {
          "internalType": "uint256",
          "name": "",
          "type": "uint256"
        }
      ],
      "name": "gamePlayersList",
      "outputs": [
        {
          "internalType": "address",
          "name": "",
          "type": "address"
        }
      ],
      "stateMutability": "view",
      "type": "function"
    },
    {
      "inputs": [
        {
          "internalType": "uint256",
          "name": "game_id",
          "type": "uint256"
        }
      ],
      "name": "getAllPlayerPositionsInGame",
      "outputs": [
        {
          "components": [
            {
              "internalType": "address",
              "name": "user_account",
              "type": "address"
            },
            {
              "internalType": "uint256",
              "name": "game_id",
              "type": "uint256"
            },
            {
              "internalType": "uint256",
              "name": "position",
              "type": "uint256"
            }
          ],
          "internalType": "struct Multipoly.PlayerPos[]",
          "name": "",
          "type": "tuple[]"
        }
      ],
      "stateMutability": "view",
      "type": "function"
    },
    {
      "inputs": [
        {
          "internalType": "uint256",
          "name": "game_id",
          "type": "uint256"
        },
        {
          "internalType": "address",
          "name": "user_account",
          "type": "address"
        }
      ],
      "name": "getAllPlayerProperties",
      "outputs": [
        {
          "components": [
            {
              "internalType": "uint256",
              "name": "nft_id",
              "type": "uint256"
            },
            {
              "internalType": "uint256",
              "name": "stake_amount",
              "type": "uint256"
            },
            {
              "internalType": "address",
              "name": "token",
              "type": "address"
            },
            {
              "internalType": "bool",
              "name": "exists",
              "type": "bool"
            }
          ],
          "internalType": "struct Multipoly.PlayerProperties[]",
          "name": "",
          "type": "tuple[]"
        }
      ],
      "stateMutability": "view",
      "type": "function"
    },
    {
      "inputs": [
        {
          "internalType": "uint256",
          "name": "game_id",
          "type": "uint256"
        }
      ],
      "name": "getGamePlayers",
      "outputs": [
        {
          "internalType": "address[]",
          "name": "",
          "type": "address[]"
        }
      ],
      "stateMutability": "view",
      "type": "function"
    },
    {
      "inputs": [
        {
          "internalType": "uint256",
          "name": "game_id",
          "type": "uint256"
        },
        {
          "internalType": "address",
          "name": "user_account",
          "type": "address"
        }
      ],
      "name": "getGameState",
      "outputs": [
        {
          "components": [
            {
              "internalType": "address",
              "name": "user_account",
              "type": "address"
            },
            {
              "internalType": "uint256",
              "name": "game_id",
              "type": "uint256"
            },
            {
              "internalType": "uint256",
              "name": "position",
              "type": "uint256"
            }
          ],
          "internalType": "struct Multipoly.PlayerPos[]",
          "name": "",
          "type": "tuple[]"
        },
        {
          "components": [
            {
              "internalType": "uint256",
              "name": "nft_id",
              "type": "uint256"
            },
            {
              "internalType": "uint256",
              "name": "stake_amount",
              "type": "uint256"
            },
            {
              "internalType": "address",
              "name": "token",
              "type": "address"
            },
            {
              "internalType": "bool",
              "name": "exists",
              "type": "bool"
            }
          ],
          "internalType": "struct Multipoly.PlayerProperties[]",
          "name": "",
          "type": "tuple[]"
        }
      ],
      "stateMutability": "view",
      "type": "function"
    },
    {
      "inputs": [
        {
          "internalType": "uint256",
          "name": "game_id",
          "type": "uint256"
        }
      ],
      "name": "getPlayerCount",
      "outputs": [
        {
          "internalType": "uint256",
          "name": "",
          "type": "uint256"
        }
      ],
      "stateMutability": "view",
      "type": "function"
    },
    {
      "inputs": [
        {
          "internalType": "uint256",
          "name": "game_id",
          "type": "uint256"
        },
        {
          "internalType": "address",
          "name": "user_account",
          "type": "address"
        }
      ],
      "name": "getPlayerPosition",
      "outputs": [
        {
          "components": [
            {
              "internalType": "address",
              "name": "user_account",
              "type": "address"
            },
            {
              "internalType": "uint256",
              "name": "game_id",
              "type": "uint256"
            },
            {
              "internalType": "uint256",
              "name": "position",
              "type": "uint256"
            }
          ],
          "internalType": "struct Multipoly.PlayerPos",
          "name": "",
          "type": "tuple"
        }
      ],
      "stateMutability": "view",
      "type": "function"
    },
    {
      "inputs": [
        {
          "internalType": "uint256",
          "name": "game_id",
          "type": "uint256"
        },
        {
          "internalType": "address",
          "name": "user_account",
          "type": "address"
        },
        {
          "internalType": "uint256",
          "name": "nft_id",
          "type": "uint256"
        }
      ],
      "name": "getPlayerProperty",
      "outputs": [
        {
          "components": [
            {
              "internalType": "uint256",
              "name": "nft_id",
              "type": "uint256"
            },
            {
              "internalType": "uint256",
              "name": "stake_amount",
              "type": "uint256"
            },
            {
              "internalType": "address",
              "name": "token",
              "type": "address"
            },
            {
              "internalType": "bool",
              "name": "exists",
              "type": "bool"
            }
          ],
          "internalType": "struct Multipoly.PlayerProperties",
          "name": "",
          "type": "tuple"
        }
      ],
      "stateMutability": "view",
      "type": "function"
    },
    {
      "inputs": [
        {
          "internalType": "uint256",
          "name": "game_id",
          "type": "uint256"
        }
      ],
      "name": "getPlayerTurn",
      "outputs": [
        {
          "internalType": "address",
          "name": "",
          "type": "address"
        }
      ],
      "stateMutability": "view",
      "type": "function"
    },
    {
      "inputs": [
        {
          "internalType": "uint256",
          "name": "token_id",
          "type": "uint256"
        }
      ],
      "name": "getPropertyDetails",
      "outputs": [
        {
          "components": [
            {
              "internalType": "address",
              "name": "owner",
              "type": "address"
            },
            {
              "internalType": "string",
              "name": "name",
              "type": "string"
            },
            {
              "internalType": "uint256",
              "name": "position",
              "type": "uint256"
            },
            {
              "internalType": "address",
              "name": "tokenAddress",
              "type": "address"
            },
            {
              "internalType": "uint256",
              "name": "purchaseValue",
              "type": "uint256"
            },
            {
              "internalType": "uint256",
              "name": "rentAmount",
              "type": "uint256"
            }
          ],
          "internalType": "struct IPropertyNFT.Property",
          "name": "",
          "type": "tuple"
        }
      ],
      "stateMutability": "view",
      "type": "function"
    },
    {
      "inputs": [
        {
          "internalType": "address",
          "name": "user_account",
          "type": "address"
        }
      ],
      "name": "getUserGames",
      "outputs": [
        {
          "internalType": "uint256[]",
          "name": "",
          "type": "uint256[]"
        }
      ],
      "stateMutability": "view",
      "type": "function"
    },
    {
      "inputs": [
        {
          "internalType": "uint256",
          "name": "",
          "type": "uint256"
        },
        {
          "internalType": "address",
          "name": "",
          "type": "address"
        }
      ],
      "name": "isPlayerInGame",
      "outputs": [
        {
          "internalType": "bool",
          "name": "",
          "type": "bool"
        }
      ],
      "stateMutability": "view",
      "type": "function"
    },
    {
      "inputs": [
        {
          "internalType": "uint256",
          "name": "game_id",
          "type": "uint256"
        },
        {
          "internalType": "address",
          "name": "user_account",
          "type": "address"
        }
      ],
      "name": "isPlayerInGameView",
      "outputs": [
        {
          "internalType": "bool",
          "name": "",
          "type": "bool"
        }
      ],
      "stateMutability": "view",
      "type": "function"
    },
    {
      "inputs": [
        {
          "internalType": "address",
          "name": "player_address",
          "type": "address"
        },
        {
          "internalType": "address",
          "name": "token_address_1",
          "type": "address"
        },
        {
          "internalType": "address",
          "name": "token_address_2",
          "type": "address"
        },
        {
          "internalType": "address",
          "name": "token_address_3",
          "type": "address"
        },
        {
          "internalType": "address",
          "name": "token_address_4",
          "type": "address"
        }
      ],
      "name": "mintAllTokens",
      "outputs": [],
      "stateMutability": "nonpayable",
      "type": "function"
    },
    {
      "inputs": [
        {
          "internalType": "uint256",
          "name": "game_id",
          "type": "uint256"
        },
        {
          "internalType": "address",
          "name": "user_account",
          "type": "address"
        },
        {
          "internalType": "uint256",
          "name": "steps",
          "type": "uint256"
        },
        {
          "internalType": "bool",
          "name": "purchase",
          "type": "bool"
        },
        {
          "internalType": "string",
          "name": "name",
          "type": "string"
        },
        {
          "internalType": "address",
          "name": "token_address",
          "type": "address"
        },
        {
          "internalType": "uint256",
          "name": "purchase_value",
          "type": "uint256"
        },
        {
          "internalType": "address",
          "name": "next_player",
          "type": "address"
        }
      ],
      "name": "move",
      "outputs": [],
      "stateMutability": "nonpayable",
      "type": "function"
    },
    {
      "inputs": [
        {
          "internalType": "uint256",
          "name": "game_id",
          "type": "uint256"
        },
        {
          "internalType": "address",
          "name": "user_account",
          "type": "address"
        }
      ],
      "name": "onboardPlayer",
      "outputs": [],
      "stateMutability": "nonpayable",
      "type": "function"
    },
    {
      "inputs": [],
      "name": "owner",
      "outputs": [
        {
          "internalType": "address",
          "name": "",
          "type": "address"
        }
      ],
      "stateMutability": "view",
      "type": "function"
    },
    {
      "inputs": [
        {
          "internalType": "uint256",
          "name": "",
          "type": "uint256"
        },
        {
          "internalType": "address",
          "name": "",
          "type": "address"
        }
      ],
      "name": "playerPositions",
      "outputs": [
        {
          "internalType": "address",
          "name": "user_account",
          "type": "address"
        },
        {
          "internalType": "uint256",
          "name": "game_id",
          "type": "uint256"
        },
        {
          "internalType": "uint256",
          "name": "position",
          "type": "uint256"
        }
      ],
      "stateMutability": "view",
      "type": "function"
    },
    {
      "inputs": [
        {
          "internalType": "uint256",
          "name": "",
          "type": "uint256"
        },
        {
          "internalType": "address",
          "name": "",
          "type": "address"
        },
        {
          "internalType": "uint256",
          "name": "",
          "type": "uint256"
        }
      ],
      "name": "playerProperties",
      "outputs": [
        {
          "internalType": "uint256",
          "name": "nft_id",
          "type": "uint256"
        },
        {
          "internalType": "uint256",
          "name": "stake_amount",
          "type": "uint256"
        },
        {
          "internalType": "address",
          "name": "token",
          "type": "address"
        },
        {
          "internalType": "bool",
          "name": "exists",
          "type": "bool"
        }
      ],
      "stateMutability": "view",
      "type": "function"
    },
    {
      "inputs": [
        {
          "internalType": "uint256",
          "name": "",
          "type": "uint256"
        }
      ],
      "name": "playerTurns",
      "outputs": [
        {
          "internalType": "address",
          "name": "",
          "type": "address"
        }
      ],
      "stateMutability": "view",
      "type": "function"
    },
    {
      "inputs": [],
      "name": "renounceOwnership",
      "outputs": [],
      "stateMutability": "nonpayable",
      "type": "function"
    },
    {
      "inputs": [
        {
          "internalType": "address",
          "name": "newOwner",
          "type": "address"
        }
      ],
      "name": "transferOwnership",
      "outputs": [],
      "stateMutability": "nonpayable",
      "type": "function"
    },
    {
      "inputs": [
        {
          "internalType": "uint256",
          "name": "game_id",
          "type": "uint256"
        },
        {
          "internalType": "address",
          "name": "user_account",
          "type": "address"
        },
        {
          "internalType": "uint256",
          "name": "nft_id",
          "type": "uint256"
        },
        {
          "internalType": "uint256",
          "name": "new_stake_amount",
          "type": "uint256"
        },
        {
          "internalType": "address",
          "name": "new_token_address",
          "type": "address"
        }
      ],
      "name": "updatePlayerStakeAmount",
      "outputs": [],
      "stateMutability": "nonpayable",
      "type": "function"
    },
    {
      "inputs": [
        {
          "internalType": "uint256",
          "name": "game_id",
          "type": "uint256"
        },
        {
          "internalType": "address",
          "name": "new_user_account",
          "type": "address"
        }
      ],
      "name": "updatePlayerTurn",
      "outputs": [],
      "stateMutability": "nonpayable",
      "type": "function"
    },
    {
      "inputs": [
        {
          "internalType": "address",
          "name": "",
          "type": "address"
        },
        {
          "internalType": "uint256",
          "name": "",
          "type": "uint256"
        }
      ],
      "name": "userGames",
      "outputs": [
        {
          "internalType": "uint256",
          "name": "",
          "type": "uint256"
        }
      ],
      "stateMutability": "view",
      "type": "function"
    }
  ],
  "bytecode": "0x60a060405234801561001057600080fd5b506040516159be3803806159be83398181016040528101906100329190610217565b81600073ffffffffffffffffffffffffffffffffffffffff168173ffffffffffffffffffffffffffffffffffffffff16036100a55760006040517f1e4fbdf700000000000000000000000000000000000000000000000000000000815260040161009c9190610266565b60405180910390fd5b6100b4816100f060201b60201c565b508073ffffffffffffffffffffffffffffffffffffffff1660808173ffffffffffffffffffffffffffffffffffffffff16815250505050610281565b60008060009054906101000a900473ffffffffffffffffffffffffffffffffffffffff169050816000806101000a81548173ffffffffffffffffffffffffffffffffffffffff021916908373ffffffffffffffffffffffffffffffffffffffff1602179055508173ffffffffffffffffffffffffffffffffffffffff168173ffffffffffffffffffffffffffffffffffffffff167f8be0079c531659141344cd1fd0a4f28419497f9722a3daafe3b4186f6b6457e060405160405180910390a35050565b600080fd5b600073ffffffffffffffffffffffffffffffffffffffff82169050919050565b60006101e4826101b9565b9050919050565b6101f4816101d9565b81146101ff57600080fd5b50565b600081519050610211816101eb565b92915050565b6000806040838503121561022e5761022d6101b4565b5b600061023c85828601610202565b925050602061024d85828601610202565b9150509250929050565b610260816101d9565b82525050565b600060208201905061027b6000830184610257565b92915050565b6080516157146102aa600039600081816107c401528181611b0a01526139b501526157146000f3fe608060405234801561001057600080fd5b50600436106101f05760003560e01c80637cb0ec7e1161010f578063cce8328c116100a2578063f0da2a1d11610071578063f0da2a1d14610612578063f2fde38b14610643578063f5e9ca081461065f578063f7f281ce14610691576101f0565b8063cce8328c14610566578063d75f356714610596578063da9a9089146105b2578063e319bc10146105e2576101f0565b8063a7010d93116100de578063a7010d93146104a6578063ab1205e9146104d6578063bc0167cd14610506578063c02a8e4314610536576101f0565b80637cb0ec7e146104345780637de182c5146104505780638c247b2a1461046c5780638da5cb5b14610488576101f0565b80633d85ed611161018757806352fcbcbf1161015657806352fcbcbf146103bd578063715018a6146103d957806372e1ca50146103e357806373b1222a14610416576101f0565b80633d85ed611461034d5780634066a76514610369578063497eed80146103855780634ed4c5b0146103a1576101f0565b806315a40f49116101c357806315a40f49146102b557806318536540146102e5578063262709e614610301578063366adc601461031d576101f0565b80630c7b7748146101f55780630d3b404f14610225578063120aace614610255578063126dbe4314610285575b600080fd5b61020f600480360381019061020a919061405e565b6106c1565b60405161021c91906140cc565b60405180910390f35b61023f600480360381019061023a9190614113565b6106f4565b60405161024c919061416e565b60405180910390f35b61026f600480360381019061026a9190614189565b610723565b60405161027c9190614274565b60405180910390f35b61029f600480360381019061029a919061405e565b6107ba565b6040516102ac91906143be565b60405180910390f35b6102cf60048036038101906102ca919061405e565b610868565b6040516102dc919061448f565b60405180910390f35b6102ff60048036038101906102fa9190614113565b610909565b005b61031b600480360381019061031691906144b1565b61092d565b005b6103376004803603810190610332919061405e565b610ad0565b60405161034491906145f5565b60405180910390f35b61036760048036038101906103629190614617565b610ce8565b005b610383600480360381019061037e9190614113565b610f91565b005b61039f600480360381019061039a9190614692565b6111b9565b005b6103bb60048036038101906103b691906146e5565b61146a565b005b6103d760048036038101906103d291906148c1565b61193c565b005b6103e1611a7d565b005b6103fd60048036038101906103f89190614692565b611a91565b60405161040d94939291906149a2565b60405180910390f35b61041e611b08565b60405161042b91906140cc565b60405180910390f35b61044e60048036038101906104499190614113565b611b2c565b005b61046a600480360381019061046591906144b1565b611cd4565b005b610486600480360381019061048191906146e5565b611db5565b005b61049061208f565b60405161049d91906140cc565b60405180910390f35b6104c060048036038101906104bb9190614113565b6120b8565b6040516104cd919061416e565b60405180910390f35b6104f060048036038101906104eb919061405e565b612120565b6040516104fd91906149e7565b60405180910390f35b610520600480360381019061051b9190614a02565b612140565b60405161052d91906149e7565b60405180910390f35b610550600480360381019061054b9190614113565b612171565b60405161055d9190614b55565b60405180910390f35b610580600480360381019061057b9190614b77565b6123bd565b60405161058d91906140cc565b60405180910390f35b6105b060048036038101906105ab9190614c6d565b61240b565b005b6105cc60048036038101906105c7919061405e565b612811565b6040516105d991906140cc565b60405180910390f35b6105fc60048036038101906105f79190614692565b61284e565b6040516106099190614d57565b60405180910390f35b61062c60048036038101906106279190614113565b612a01565b60405161063a929190614d72565b60405180910390f35b61065d60048036038101906106589190614189565b612b9f565b005b61067960048036038101906106749190614113565b612c25565b60405161068893929190614da9565b60405180910390f35b6106ab60048036038101906106a69190614113565b612c7c565b6040516106b89190614e22565b60405180910390f35b60046020528060005260406000206000915054906101000a900473ffffffffffffffffffffffffffffffffffffffff1681565b60066020528160005260406000206020528060005260406000206000915091509054906101000a900460ff1681565b6060600760008373ffffffffffffffffffffffffffffffffffffffff1673ffffffffffffffffffffffffffffffffffffffff1681526020019081526020016000208054806020026020016040519081016040528092919081815260200182805480156107ae57602002820191906000526020600020905b81548152602001906001019080831161079a575b50505050509050919050565b6107c2613f3b565b7f000000000000000000000000000000000000000000000000000000000000000073ffffffffffffffffffffffffffffffffffffffff166332665ffb836040518263ffffffff1660e01b815260040161081b91906149e7565b600060405180830381865afa158015610838573d6000803e3d6000fd5b505050506040513d6000823e3d601f19601f820116820180604052508101906108619190614f9d565b9050919050565b6060600560008381526020019081526020016000208054806020026020016040519081016040528092919081815260200182805480156108fd57602002820191906000526020600020905b8160009054906101000a900473ffffffffffffffffffffffffffffffffffffffff1673ffffffffffffffffffffffffffffffffffffffff16815260200190600101908083116108b3575b50505050509050919050565b6109138282612d51565b61091f82826000612f3f565b61092982826131fb565b5050565b600073ffffffffffffffffffffffffffffffffffffffff168273ffffffffffffffffffffffffffffffffffffffff160361099c576040517f08c379a000000000000000000000000000000000000000000000000000000000815260040161099390615043565b60405180910390fd5b60008273ffffffffffffffffffffffffffffffffffffffff166370a08231856040518263ffffffff1660e01b81526004016109d791906140cc565b602060405180830381865afa1580156109f4573d6000803e3d6000fd5b505050506040513d601f19601f82011682018060405250810190610a189190615063565b905081811015610a5d576040517f08c379a0000000000000000000000000000000000000000000000000000000008152600401610a54906150dc565b60405180910390fd5b8273ffffffffffffffffffffffffffffffffffffffff166379cc679085846040518363ffffffff1660e01b8152600401610a989291906150fc565b600060405180830381600087803b158015610ab257600080fd5b505af1158015610ac6573d6000803e3d6000fd5b5050505050505050565b6060600060056000848152602001908152602001600020805480602002602001604051908101604052809291908181526020018280548015610b6757602002820191906000526020600020905b8160009054906101000a900473ffffffffffffffffffffffffffffffffffffffff1673ffffffffffffffffffffffffffffffffffffffff1681526020019060010190808311610b1d575b505050505090506000815167ffffffffffffffff811115610b8b57610b8a614796565b5b604051908082528060200260200182016040528015610bc457816020015b610bb1613f9d565b815260200190600190039081610ba95790505b50905060005b8251811015610cdd57600360008681526020019081526020016000206000848381518110610bfb57610bfa615125565b5b602002602001015173ffffffffffffffffffffffffffffffffffffffff1673ffffffffffffffffffffffffffffffffffffffff1681526020019081526020016000206040518060600160405290816000820160009054906101000a900473ffffffffffffffffffffffffffffffffffffffff1673ffffffffffffffffffffffffffffffffffffffff1673ffffffffffffffffffffffffffffffffffffffff16815260200160018201548152602001600282015481525050828281518110610cc557610cc4615125565b5b60200260200101819052508080600101915050610bca565b508092505050919050565b84846006600083815260200190815260200160002060008273ffffffffffffffffffffffffffffffffffffffff1673ffffffffffffffffffffffffffffffffffffffff16815260200190815260200160002060009054906101000a900460ff16610d87576040517f08c379a0000000000000000000000000000000000000000000000000000000008152600401610d7e906151a0565b60405180910390fd5b610d8f61208f565b73ffffffffffffffffffffffffffffffffffffffff163373ffffffffffffffffffffffffffffffffffffffff161480610df357508573ffffffffffffffffffffffffffffffffffffffff163373ffffffffffffffffffffffffffffffffffffffff16145b610e32576040517f08c379a0000000000000000000000000000000000000000000000000000000008152600401610e299061520c565b60405180910390fd5b60006001600089815260200190815260200160002060008873ffffffffffffffffffffffffffffffffffffffff1673ffffffffffffffffffffffffffffffffffffffff168152602001908152602001600020600087815260200190815260200160002090508060020160149054906101000a900460ff16610ee8576040517f08c379a0000000000000000000000000000000000000000000000000000000008152600401610edf90615278565b60405180910390fd5b848160010181905550838160020160006101000a81548173ffffffffffffffffffffffffffffffffffffffff021916908373ffffffffffffffffffffffffffffffffffffffff160217905550878773ffffffffffffffffffffffffffffffffffffffff167f87647481c12b66c23d22b6734b51050f0f6e5b2af709e567489a3e473e120440888888604051610f7f93929190615298565b60405180910390a35050505050505050565b81816006600083815260200190815260200160002060008273ffffffffffffffffffffffffffffffffffffffff1673ffffffffffffffffffffffffffffffffffffffff16815260200190815260200160002060009054906101000a900460ff16611030576040517f08c379a0000000000000000000000000000000000000000000000000000000008152600401611027906151a0565b60405180910390fd5b61103861208f565b73ffffffffffffffffffffffffffffffffffffffff163373ffffffffffffffffffffffffffffffffffffffff16148061109c57508273ffffffffffffffffffffffffffffffffffffffff163373ffffffffffffffffffffffffffffffffffffffff16145b6110db576040517f08c379a00000000000000000000000000000000000000000000000000000000081526004016110d29061520c565b60405180910390fd5b6003600085815260200190815260200160002060008473ffffffffffffffffffffffffffffffffffffffff1673ffffffffffffffffffffffffffffffffffffffff168152602001908152602001600020600080820160006101000a81549073ffffffffffffffffffffffffffffffffffffffff021916905560018201600090556002820160009055505061116f84846133a3565b8273ffffffffffffffffffffffffffffffffffffffff16847fd0fc34423e42892f3ede9e76219ff22569925f08fd41017ecef6652484f93cbb60405160405180910390a350505050565b82826006600083815260200190815260200160002060008273ffffffffffffffffffffffffffffffffffffffff1673ffffffffffffffffffffffffffffffffffffffff16815260200190815260200160002060009054906101000a900460ff16611258576040517f08c379a000000000000000000000000000000000000000000000000000000000815260040161124f906151a0565b60405180910390fd5b61126061208f565b73ffffffffffffffffffffffffffffffffffffffff163373ffffffffffffffffffffffffffffffffffffffff1614806112c457508373ffffffffffffffffffffffffffffffffffffffff163373ffffffffffffffffffffffffffffffffffffffff16145b611303576040517f08c379a00000000000000000000000000000000000000000000000000000000081526004016112fa9061520c565b60405180910390fd5b6001600086815260200190815260200160002060008573ffffffffffffffffffffffffffffffffffffffff1673ffffffffffffffffffffffffffffffffffffffff168152602001908152602001600020600084815260200190815260200160002060020160149054906101000a900460ff166113b4576040517f08c379a00000000000000000000000000000000000000000000000000000000081526004016113ab90615278565b60405180910390fd5b6001600086815260200190815260200160002060008573ffffffffffffffffffffffffffffffffffffffff1673ffffffffffffffffffffffffffffffffffffffff168152602001908152602001600020600084815260200190815260200160002060008082016000905560018201600090556002820160006101000a81549073ffffffffffffffffffffffffffffffffffffffff02191690556002820160146101000a81549060ff021916905550505050505050565b600073ffffffffffffffffffffffffffffffffffffffff168473ffffffffffffffffffffffffffffffffffffffff16141580156114d45750600073ffffffffffffffffffffffffffffffffffffffff168373ffffffffffffffffffffffffffffffffffffffff1614155b801561150d5750600073ffffffffffffffffffffffffffffffffffffffff168273ffffffffffffffffffffffffffffffffffffffff1614155b80156115465750600073ffffffffffffffffffffffffffffffffffffffff168173ffffffffffffffffffffffffffffffffffffffff1614155b611585576040517f08c379a000000000000000000000000000000000000000000000000000000000815260040161157c90615043565b60405180910390fd5b60008473ffffffffffffffffffffffffffffffffffffffff166370a08231876040518263ffffffff1660e01b81526004016115c091906140cc565b602060405180830381865afa1580156115dd573d6000803e3d6000fd5b505050506040513d601f19601f820116820180604052508101906116019190615063565b905060008473ffffffffffffffffffffffffffffffffffffffff166370a08231886040518263ffffffff1660e01b815260040161163e91906140cc565b602060405180830381865afa15801561165b573d6000803e3d6000fd5b505050506040513d601f19601f8201168201806040525081019061167f9190615063565b905060008473ffffffffffffffffffffffffffffffffffffffff166370a08231896040518263ffffffff1660e01b81526004016116bc91906140cc565b602060405180830381865afa1580156116d9573d6000803e3d6000fd5b505050506040513d601f19601f820116820180604052508101906116fd9190615063565b905060008473ffffffffffffffffffffffffffffffffffffffff166370a082318a6040518263ffffffff1660e01b815260040161173a91906140cc565b602060405180830381865afa158015611757573d6000803e3d6000fd5b505050506040513d601f19601f8201168201806040525081019061177b9190615063565b90508773ffffffffffffffffffffffffffffffffffffffff166379cc67908a866040518363ffffffff1660e01b81526004016117b89291906150fc565b600060405180830381600087803b1580156117d257600080fd5b505af11580156117e6573d6000803e3d6000fd5b505050508673ffffffffffffffffffffffffffffffffffffffff166379cc67908a856040518363ffffffff1660e01b81526004016118259291906150fc565b600060405180830381600087803b15801561183f57600080fd5b505af1158015611853573d6000803e3d6000fd5b505050508573ffffffffffffffffffffffffffffffffffffffff166379cc67908a846040518363ffffffff1660e01b81526004016118929291906150fc565b600060405180830381600087803b1580156118ac57600080fd5b505af11580156118c0573d6000803e3d6000fd5b505050508473ffffffffffffffffffffffffffffffffffffffff166379cc67908a836040518363ffffffff1660e01b81526004016118ff9291906150fc565b600060405180830381600087803b15801561191957600080fd5b505af115801561192d573d6000803e3d6000fd5b50505050505050505050505050565b6006600089815260200190815260200160002060008873ffffffffffffffffffffffffffffffffffffffff1673ffffffffffffffffffffffffffffffffffffffff16815260200190815260200160002060009054906101000a900460ff166119d9576040517f08c379a00000000000000000000000000000000000000000000000000000000081526004016119d0906151a0565b60405180910390fd5b6000600360008a815260200190815260200160002060008973ffffffffffffffffffffffffffffffffffffffff1673ffffffffffffffffffffffffffffffffffffffff16815260200190815260200160002060020154905060008782611a3f91906152fe565b9050611a4c8a8a8361370d565b8615611a6657611a6189878388888f89613905565b611a71565b611a708a846131fb565b5b50505050505050505050565b611a85613a78565b611a8f6000613aff565b565b600160205282600052604060002060205281600052604060002060205280600052604060002060009250925050508060000154908060010154908060020160009054906101000a900473ffffffffffffffffffffffffffffffffffffffff16908060020160149054906101000a900460ff16905084565b7f000000000000000000000000000000000000000000000000000000000000000081565b80600073ffffffffffffffffffffffffffffffffffffffff168173ffffffffffffffffffffffffffffffffffffffff1603611b9c576040517f08c379a0000000000000000000000000000000000000000000000000000000008152600401611b939061537e565b60405180910390fd5b6006600084815260200190815260200160002060008373ffffffffffffffffffffffffffffffffffffffff1673ffffffffffffffffffffffffffffffffffffffff16815260200190815260200160002060009054906101000a900460ff16611c39576040517f08c379a0000000000000000000000000000000000000000000000000000000008152600401611c30906151a0565b60405180910390fd5b816004600085815260200190815260200160002060006101000a81548173ffffffffffffffffffffffffffffffffffffffff021916908373ffffffffffffffffffffffffffffffffffffffff1602179055508173ffffffffffffffffffffffffffffffffffffffff16837f900138382a21b9499837672ce8cc6a4843799e62bcb2aa9880dda802a9a6903560405160405180910390a3505050565b600073ffffffffffffffffffffffffffffffffffffffff168273ffffffffffffffffffffffffffffffffffffffff1603611d43576040517f08c379a0000000000000000000000000000000000000000000000000000000008152600401611d3a90615043565b60405180910390fd5b8173ffffffffffffffffffffffffffffffffffffffff166340c10f1984836040518363ffffffff1660e01b8152600401611d7e9291906150fc565b600060405180830381600087803b158015611d9857600080fd5b505af1158015611dac573d6000803e3d6000fd5b50505050505050565b600073ffffffffffffffffffffffffffffffffffffffff168473ffffffffffffffffffffffffffffffffffffffff1614158015611e1f5750600073ffffffffffffffffffffffffffffffffffffffff168373ffffffffffffffffffffffffffffffffffffffff1614155b8015611e585750600073ffffffffffffffffffffffffffffffffffffffff168273ffffffffffffffffffffffffffffffffffffffff1614155b8015611e915750600073ffffffffffffffffffffffffffffffffffffffff168173ffffffffffffffffffffffffffffffffffffffff1614155b611ed0576040517f08c379a0000000000000000000000000000000000000000000000000000000008152600401611ec790615043565b60405180910390fd5b8373ffffffffffffffffffffffffffffffffffffffff166340c10f198660646040518363ffffffff1660e01b8152600401611f0c9291906153e3565b600060405180830381600087803b158015611f2657600080fd5b505af1158015611f3a573d6000803e3d6000fd5b505050508273ffffffffffffffffffffffffffffffffffffffff166340c10f198660646040518363ffffffff1660e01b8152600401611f7a9291906153e3565b600060405180830381600087803b158015611f9457600080fd5b505af1158015611fa8573d6000803e3d6000fd5b505050508173ffffffffffffffffffffffffffffffffffffffff166340c10f198660646040518363ffffffff1660e01b8152600401611fe89291906153e3565b600060405180830381600087803b15801561200257600080fd5b505af1158015612016573d6000803e3d6000fd5b505050508073ffffffffffffffffffffffffffffffffffffffff166340c10f198660646040518363ffffffff1660e01b81526004016120569291906153e3565b600060405180830381600087803b15801561207057600080fd5b505af1158015612084573d6000803e3d6000fd5b505050505050505050565b60008060009054906101000a900473ffffffffffffffffffffffffffffffffffffffff16905090565b60006006600084815260200190815260200160002060008373ffffffffffffffffffffffffffffffffffffffff1673ffffffffffffffffffffffffffffffffffffffff16815260200190815260200160002060009054906101000a900460ff16905092915050565b600060056000838152602001908152602001600020805490509050919050565b6007602052816000526040600020818154811061215c57600080fd5b90600052602060002001600091509150505481565b606060006002600085815260200190815260200160002060008473ffffffffffffffffffffffffffffffffffffffff1673ffffffffffffffffffffffffffffffffffffffff16815260200190815260200160002080548060200260200160405190810160405280929190818152602001828054801561220f57602002820191906000526020600020905b8154815260200190600101908083116121fb575b505050505090506000815167ffffffffffffffff81111561223357612232614796565b5b60405190808252806020026020018201604052801561226c57816020015b612259613fd4565b8152602001906001900390816122515790505b50905060005b82518110156123b1576001600087815260200190815260200160002060008673ffffffffffffffffffffffffffffffffffffffff1673ffffffffffffffffffffffffffffffffffffffff16815260200190815260200160002060008483815181106122e0576122df615125565b5b6020026020010151815260200190815260200160002060405180608001604052908160008201548152602001600182015481526020016002820160009054906101000a900473ffffffffffffffffffffffffffffffffffffffff1673ffffffffffffffffffffffffffffffffffffffff1673ffffffffffffffffffffffffffffffffffffffff1681526020016002820160149054906101000a900460ff16151515158152505082828151811061239957612398615125565b5b60200260200101819052508080600101915050612272565b50809250505092915050565b600560205281600052604060002081815481106123d957600080fd5b906000526020600020016000915091509054906101000a900473ffffffffffffffffffffffffffffffffffffffff1681565b61241361208f565b73ffffffffffffffffffffffffffffffffffffffff163373ffffffffffffffffffffffffffffffffffffffff1614612480576040517f08c379a00000000000000000000000000000000000000000000000000000000081526004016124779061547e565b60405180910390fd5b8181905084849050146124c8576040517f08c379a00000000000000000000000000000000000000000000000000000000081526004016124bf906154ea565b60405180910390fd5b60005b8484905081101561280957600073ffffffffffffffffffffffffffffffffffffffff1685858381811061250157612500615125565b5b90506020020160208101906125169190614189565b73ffffffffffffffffffffffffffffffffffffffff160361256c576040517f08c379a00000000000000000000000000000000000000000000000000000000081526004016125639061537e565b60405180910390fd5b60066000878152602001908152602001600020600086868481811061259457612593615125565b5b90506020020160208101906125a99190614189565b73ffffffffffffffffffffffffffffffffffffffff1673ffffffffffffffffffffffffffffffffffffffff16815260200190815260200160002060009054906101000a900460ff16612627576126268686868481811061260c5761260b615125565b5b90506020020160208101906126219190614189565b612d51565b5b604051806060016040528086868481811061264557612644615125565b5b905060200201602081019061265a9190614189565b73ffffffffffffffffffffffffffffffffffffffff16815260200187815260200184848481811061268e5761268d615125565b5b905060200201358152506003600088815260200190815260200160002060008787858181106126c0576126bf615125565b5b90506020020160208101906126d59190614189565b73ffffffffffffffffffffffffffffffffffffffff1673ffffffffffffffffffffffffffffffffffffffff16815260200190815260200160002060008201518160000160006101000a81548173ffffffffffffffffffffffffffffffffffffffff021916908373ffffffffffffffffffffffffffffffffffffffff16021790555060208201518160010155604082015181600201559050508484828181106127805761277f615125565b5b90506020020160208101906127959190614189565b73ffffffffffffffffffffffffffffffffffffffff16867fca15e30f8364a782f08c5f2fbc1d498daca1910d21d967d8b23ba8b596452c1a8585858181106127e0576127df615125565b5b905060200201356040516127f491906149e7565b60405180910390a380806001019150506124cb565b505050505050565b60006004600083815260200190815260200160002060009054906101000a900473ffffffffffffffffffffffffffffffffffffffff169050919050565b612856613fd4565b6001600085815260200190815260200160002060008473ffffffffffffffffffffffffffffffffffffffff1673ffffffffffffffffffffffffffffffffffffffff168152602001908152602001600020600083815260200190815260200160002060020160149054906101000a900460ff16612907576040517f08c379a00000000000000000000000000000000000000000000000000000000081526004016128fe90615278565b60405180910390fd5b6001600085815260200190815260200160002060008473ffffffffffffffffffffffffffffffffffffffff1673ffffffffffffffffffffffffffffffffffffffff168152602001908152602001600020600083815260200190815260200160002060405180608001604052908160008201548152602001600182015481526020016002820160009054906101000a900473ffffffffffffffffffffffffffffffffffffffff1673ffffffffffffffffffffffffffffffffffffffff1673ffffffffffffffffffffffffffffffffffffffff1681526020016002820160149054906101000a900460ff16151515158152505090509392505050565b6060806000612a0f85610868565b90506000815167ffffffffffffffff811115612a2e57612a2d614796565b5b604051908082528060200260200182016040528015612a6757816020015b612a54613f9d565b815260200190600190039081612a4c5790505b50905060005b8251811015612b8057600360008881526020019081526020016000206000848381518110612a9e57612a9d615125565b5b602002602001015173ffffffffffffffffffffffffffffffffffffffff1673ffffffffffffffffffffffffffffffffffffffff1681526020019081526020016000206040518060600160405290816000820160009054906101000a900473ffffffffffffffffffffffffffffffffffffffff1673ffffffffffffffffffffffffffffffffffffffff1673ffffffffffffffffffffffffffffffffffffffff16815260200160018201548152602001600282015481525050828281518110612b6857612b67615125565b5b60200260200101819052508080600101915050612a6d565b506000612b8d8787612171565b90508181945094505050509250929050565b612ba7613a78565b600073ffffffffffffffffffffffffffffffffffffffff168173ffffffffffffffffffffffffffffffffffffffff1603612c195760006040517f1e4fbdf7000000000000000000000000000000000000000000000000000000008152600401612c1091906140cc565b60405180910390fd5b612c2281613aff565b50565b6003602052816000526040600020602052806000526040600020600091509150508060000160009054906101000a900473ffffffffffffffffffffffffffffffffffffffff16908060010154908060020154905083565b612c84613f9d565b6003600084815260200190815260200160002060008373ffffffffffffffffffffffffffffffffffffffff1673ffffffffffffffffffffffffffffffffffffffff1681526020019081526020016000206040518060600160405290816000820160009054906101000a900473ffffffffffffffffffffffffffffffffffffffff1673ffffffffffffffffffffffffffffffffffffffff1673ffffffffffffffffffffffffffffffffffffffff16815260200160018201548152602001600282015481525050905092915050565b6006600083815260200190815260200160002060008273ffffffffffffffffffffffffffffffffffffffff1673ffffffffffffffffffffffffffffffffffffffff16815260200190815260200160002060009054906101000a900460ff16612f3b5760056000838152602001908152602001600020819080600181540180825580915050600190039060005260206000200160009091909190916101000a81548173ffffffffffffffffffffffffffffffffffffffff021916908373ffffffffffffffffffffffffffffffffffffffff16021790555060016006600084815260200190815260200160002060008373ffffffffffffffffffffffffffffffffffffffff1673ffffffffffffffffffffffffffffffffffffffff16815260200190815260200160002060006101000a81548160ff021916908315150217905550600760008273ffffffffffffffffffffffffffffffffffffffff1673ffffffffffffffffffffffffffffffffffffffff1681526020019081526020016000208290806001815401808255809150506001900390600052602060002001600090919091909150558073ffffffffffffffffffffffffffffffffffffffff16827fe52d81459d9994c73740ea14247d27531f0f00be7c54bc1b8b759df2feda9fe760405160405180910390a35b5050565b81600073ffffffffffffffffffffffffffffffffffffffff168173ffffffffffffffffffffffffffffffffffffffff1603612faf576040517f08c379a0000000000000000000000000000000000000000000000000000000008152600401612fa69061537e565b60405180910390fd5b612fb761208f565b73ffffffffffffffffffffffffffffffffffffffff163373ffffffffffffffffffffffffffffffffffffffff16148061301b57508273ffffffffffffffffffffffffffffffffffffffff163373ffffffffffffffffffffffffffffffffffffffff16145b61305a576040517f08c379a00000000000000000000000000000000000000000000000000000000081526004016130519061520c565b60405180910390fd5b6006600085815260200190815260200160002060008473ffffffffffffffffffffffffffffffffffffffff1673ffffffffffffffffffffffffffffffffffffffff16815260200190815260200160002060009054906101000a900460ff166130c7576130c68484612d51565b5b60405180606001604052808473ffffffffffffffffffffffffffffffffffffffff168152602001858152602001838152506003600086815260200190815260200160002060008573ffffffffffffffffffffffffffffffffffffffff1673ffffffffffffffffffffffffffffffffffffffff16815260200190815260200160002060008201518160000160006101000a81548173ffffffffffffffffffffffffffffffffffffffff021916908373ffffffffffffffffffffffffffffffffffffffff16021790555060208201518160010155604082015181600201559050508273ffffffffffffffffffffffffffffffffffffffff16847fca15e30f8364a782f08c5f2fbc1d498daca1910d21d967d8b23ba8b596452c1a846040516131ed91906149e7565b60405180910390a350505050565b80600073ffffffffffffffffffffffffffffffffffffffff168173ffffffffffffffffffffffffffffffffffffffff160361326b576040517f08c379a00000000000000000000000000000000000000000000000000000000081526004016132629061537e565b60405180910390fd5b6006600084815260200190815260200160002060008373ffffffffffffffffffffffffffffffffffffffff1673ffffffffffffffffffffffffffffffffffffffff16815260200190815260200160002060009054906101000a900460ff16613308576040517f08c379a00000000000000000000000000000000000000000000000000000000081526004016132ff906151a0565b60405180910390fd5b816004600085815260200190815260200160002060006101000a81548173ffffffffffffffffffffffffffffffffffffffff021916908373ffffffffffffffffffffffffffffffffffffffff1602179055508173ffffffffffffffffffffffffffffffffffffffff16837f900138382a21b9499837672ce8cc6a4843799e62bcb2aa9880dda802a9a6903560405160405180910390a3505050565b6006600083815260200190815260200160002060008273ffffffffffffffffffffffffffffffffffffffff1673ffffffffffffffffffffffffffffffffffffffff16815260200190815260200160002060009054906101000a900460ff16156137095760006006600084815260200190815260200160002060008373ffffffffffffffffffffffffffffffffffffffff1673ffffffffffffffffffffffffffffffffffffffff16815260200190815260200160002060006101000a81548160ff021916908315150217905550600060056000848152602001908152602001600020905060005b8180549050811015613606578273ffffffffffffffffffffffffffffffffffffffff168282815481106134bf576134be615125565b5b9060005260206000200160009054906101000a900473ffffffffffffffffffffffffffffffffffffffff1673ffffffffffffffffffffffffffffffffffffffff16036135f9578160018380549050613517919061550a565b8154811061352857613527615125565b5b9060005260206000200160009054906101000a900473ffffffffffffffffffffffffffffffffffffffff1682828154811061356657613565615125565b5b9060005260206000200160006101000a81548173ffffffffffffffffffffffffffffffffffffffff021916908373ffffffffffffffffffffffffffffffffffffffff160217905550818054806135bf576135be61553e565b5b6001900381819060005260206000200160006101000a81549073ffffffffffffffffffffffffffffffffffffffff02191690559055613606565b8080600101915050613489565b506000600760008473ffffffffffffffffffffffffffffffffffffffff1673ffffffffffffffffffffffffffffffffffffffff168152602001908152602001600020905060005b8180549050811015613705578482828154811061366d5761366c615125565b5b9060005260206000200154036136f857816001838054905061368f919061550a565b815481106136a05761369f615125565b5b90600052602060002001548282815481106136be576136bd615125565b5b9060005260206000200181905550818054806136dd576136dc61553e565b5b60019003818190600052602060002001600090559055613705565b808060010191505061364d565b5050505b5050565b82826006600083815260200190815260200160002060008273ffffffffffffffffffffffffffffffffffffffff1673ffffffffffffffffffffffffffffffffffffffff16815260200190815260200160002060009054906101000a900460ff166137ac576040517f08c379a00000000000000000000000000000000000000000000000000000000081526004016137a3906151a0565b60405180910390fd5b6137b461208f565b73ffffffffffffffffffffffffffffffffffffffff163373ffffffffffffffffffffffffffffffffffffffff16148061381857508373ffffffffffffffffffffffffffffffffffffffff163373ffffffffffffffffffffffffffffffffffffffff16145b613857576040517f08c379a000000000000000000000000000000000000000000000000000000000815260040161384e9061520c565b60405180910390fd5b826003600087815260200190815260200160002060008673ffffffffffffffffffffffffffffffffffffffff1673ffffffffffffffffffffffffffffffffffffffff168152602001908152602001600020600201819055508373ffffffffffffffffffffffffffffffffffffffff16857fca15e30f8364a782f08c5f2fbc1d498daca1910d21d967d8b23ba8b596452c1a856040516138f691906149e7565b60405180910390a35050505050565b8673ffffffffffffffffffffffffffffffffffffffff166004600084815260200190815260200160002060009054906101000a900473ffffffffffffffffffffffffffffffffffffffff1673ffffffffffffffffffffffffffffffffffffffff16146139a6576040517f08c379a000000000000000000000000000000000000000000000000000000000815260040161399d906155b9565b60405180910390fd5b6139b187858561092d565b60007f000000000000000000000000000000000000000000000000000000000000000073ffffffffffffffffffffffffffffffffffffffff16635d94337f89898989896040518663ffffffff1660e01b8152600401613a14959493929190615612565b6020604051808303816000875af1158015613a33573d6000803e3d6000fd5b505050506040513d601f19601f82011682018060405250810190613a579190615063565b9050613a64838983613bc3565b613a6e83836131fb565b5050505050505050565b613a80613f33565b73ffffffffffffffffffffffffffffffffffffffff16613a9e61208f565b73ffffffffffffffffffffffffffffffffffffffff1614613afd57613ac1613f33565b6040517f118cdaa7000000000000000000000000000000000000000000000000000000008152600401613af491906140cc565b60405180910390fd5b565b60008060009054906101000a900473ffffffffffffffffffffffffffffffffffffffff169050816000806101000a81548173ffffffffffffffffffffffffffffffffffffffff021916908373ffffffffffffffffffffffffffffffffffffffff1602179055508173ffffffffffffffffffffffffffffffffffffffff168173ffffffffffffffffffffffffffffffffffffffff167f8be0079c531659141344cd1fd0a4f28419497f9722a3daafe3b4186f6b6457e060405160405180910390a35050565b81600073ffffffffffffffffffffffffffffffffffffffff168173ffffffffffffffffffffffffffffffffffffffff1603613c33576040517f08c379a0000000000000000000000000000000000000000000000000000000008152600401613c2a9061537e565b60405180910390fd5b6006600085815260200190815260200160002060008473ffffffffffffffffffffffffffffffffffffffff1673ffffffffffffffffffffffffffffffffffffffff16815260200190815260200160002060009054906101000a900460ff16613cd0576040517f08c379a0000000000000000000000000000000000000000000000000000000008152600401613cc7906151a0565b60405180910390fd5b6001600085815260200190815260200160002060008473ffffffffffffffffffffffffffffffffffffffff1673ffffffffffffffffffffffffffffffffffffffff168152602001908152602001600020600083815260200190815260200160002060020160149054906101000a900460ff16613dbe576002600085815260200190815260200160002060008473ffffffffffffffffffffffffffffffffffffffff1673ffffffffffffffffffffffffffffffffffffffff1681526020019081526020016000208290806001815401808255809150506001900390600052602060002001600090919091909150555b604051806080016040528083815260200160008152602001600073ffffffffffffffffffffffffffffffffffffffff168152602001600115158152506001600086815260200190815260200160002060008573ffffffffffffffffffffffffffffffffffffffff1673ffffffffffffffffffffffffffffffffffffffff1681526020019081526020016000206000848152602001908152602001600020600082015181600001556020820151816001015560408201518160020160006101000a81548173ffffffffffffffffffffffffffffffffffffffff021916908373ffffffffffffffffffffffffffffffffffffffff16021790555060608201518160020160146101000a81548160ff021916908315150217905550905050838373ffffffffffffffffffffffffffffffffffffffff167f87647481c12b66c23d22b6734b51050f0f6e5b2af709e567489a3e473e12044084600080604051613f25939291906156a7565b60405180910390a350505050565b600033905090565b6040518060c00160405280600073ffffffffffffffffffffffffffffffffffffffff1681526020016060815260200160008152602001600073ffffffffffffffffffffffffffffffffffffffff16815260200160008152602001600081525090565b6040518060600160405280600073ffffffffffffffffffffffffffffffffffffffff16815260200160008152602001600081525090565b60405180608001604052806000815260200160008152602001600073ffffffffffffffffffffffffffffffffffffffff1681526020016000151581525090565b6000604051905090565b600080fd5b600080fd5b6000819050919050565b61403b81614028565b811461404657600080fd5b50565b60008135905061405881614032565b92915050565b6000602082840312156140745761407361401e565b5b600061408284828501614049565b91505092915050565b600073ffffffffffffffffffffffffffffffffffffffff82169050919050565b60006140b68261408b565b9050919050565b6140c6816140ab565b82525050565b60006020820190506140e160008301846140bd565b92915050565b6140f0816140ab565b81146140fb57600080fd5b50565b60008135905061410d816140e7565b92915050565b6000806040838503121561412a5761412961401e565b5b600061413885828601614049565b9250506020614149858286016140fe565b9150509250929050565b60008115159050919050565b61416881614153565b82525050565b6000602082019050614183600083018461415f565b92915050565b60006020828403121561419f5761419e61401e565b5b60006141ad848285016140fe565b91505092915050565b600081519050919050565b600082825260208201905092915050565b6000819050602082019050919050565b6141eb81614028565b82525050565b60006141fd83836141e2565b60208301905092915050565b6000602082019050919050565b6000614221826141b6565b61422b81856141c1565b9350614236836141d2565b8060005b8381101561426757815161424e88826141f1565b975061425983614209565b92505060018101905061423a565b5085935050505092915050565b6000602082019050818103600083015261428e8184614216565b905092915050565b61429f816140ab565b82525050565b600081519050919050565b600082825260208201905092915050565b60005b838110156142df5780820151818401526020810190506142c4565b60008484015250505050565b6000601f19601f8301169050919050565b6000614307826142a5565b61431181856142b0565b93506143218185602086016142c1565b61432a816142eb565b840191505092915050565b600060c08301600083015161434d6000860182614296565b506020830151848203602086015261436582826142fc565b915050604083015161437a60408601826141e2565b50606083015161438d6060860182614296565b5060808301516143a060808601826141e2565b5060a08301516143b360a08601826141e2565b508091505092915050565b600060208201905081810360008301526143d88184614335565b905092915050565b600081519050919050565b600082825260208201905092915050565b6000819050602082019050919050565b60006144188383614296565b60208301905092915050565b6000602082019050919050565b600061443c826143e0565b61444681856143eb565b9350614451836143fc565b8060005b83811015614482578151614469888261440c565b975061447483614424565b925050600181019050614455565b5085935050505092915050565b600060208201905081810360008301526144a98184614431565b905092915050565b6000806000606084860312156144ca576144c961401e565b5b60006144d8868287016140fe565b93505060206144e9868287016140fe565b92505060406144fa86828701614049565b9150509250925092565b600081519050919050565b600082825260208201905092915050565b6000819050602082019050919050565b6060820160008201516145466000850182614296565b50602082015161455960208501826141e2565b50604082015161456c60408501826141e2565b50505050565b600061457e8383614530565b60608301905092915050565b6000602082019050919050565b60006145a282614504565b6145ac818561450f565b93506145b783614520565b8060005b838110156145e85781516145cf8882614572565b97506145da8361458a565b9250506001810190506145bb565b5085935050505092915050565b6000602082019050818103600083015261460f8184614597565b905092915050565b600080600080600060a086880312156146335761463261401e565b5b600061464188828901614049565b9550506020614652888289016140fe565b945050604061466388828901614049565b935050606061467488828901614049565b9250506080614685888289016140fe565b9150509295509295909350565b6000806000606084860312156146ab576146aa61401e565b5b60006146b986828701614049565b93505060206146ca868287016140fe565b92505060406146db86828701614049565b9150509250925092565b600080600080600060a086880312156147015761470061401e565b5b600061470f888289016140fe565b9550506020614720888289016140fe565b9450506040614731888289016140fe565b9350506060614742888289016140fe565b9250506080614753888289016140fe565b9150509295509295909350565b61476981614153565b811461477457600080fd5b50565b60008135905061478681614760565b92915050565b600080fd5b600080fd5b7f4e487b7100000000000000000000000000000000000000000000000000000000600052604160045260246000fd5b6147ce826142eb565b810181811067ffffffffffffffff821117156147ed576147ec614796565b5b80604052505050565b6000614800614014565b905061480c82826147c5565b919050565b600067ffffffffffffffff82111561482c5761482b614796565b5b614835826142eb565b9050602081019050919050565b82818337600083830152505050565b600061486461485f84614811565b6147f6565b9050828152602081018484840111156148805761487f614791565b5b61488b848285614842565b509392505050565b600082601f8301126148a8576148a761478c565b5b81356148b8848260208601614851565b91505092915050565b600080600080600080600080610100898b0312156148e2576148e161401e565b5b60006148f08b828c01614049565b98505060206149018b828c016140fe565b97505060406149128b828c01614049565b96505060606149238b828c01614777565b955050608089013567ffffffffffffffff81111561494457614943614023565b5b6149508b828c01614893565b94505060a06149618b828c016140fe565b93505060c06149728b828c01614049565b92505060e06149838b828c016140fe565b9150509295985092959890939650565b61499c81614028565b82525050565b60006080820190506149b76000830187614993565b6149c46020830186614993565b6149d160408301856140bd565b6149de606083018461415f565b95945050505050565b60006020820190506149fc6000830184614993565b92915050565b60008060408385031215614a1957614a1861401e565b5b6000614a27858286016140fe565b9250506020614a3885828601614049565b9150509250929050565b600081519050919050565b600082825260208201905092915050565b6000819050602082019050919050565b614a7781614153565b82525050565b608082016000820151614a9360008501826141e2565b506020820151614aa660208501826141e2565b506040820151614ab96040850182614296565b506060820151614acc6060850182614a6e565b50505050565b6000614ade8383614a7d565b60808301905092915050565b6000602082019050919050565b6000614b0282614a42565b614b0c8185614a4d565b9350614b1783614a5e565b8060005b83811015614b48578151614b2f8882614ad2565b9750614b3a83614aea565b925050600181019050614b1b565b5085935050505092915050565b60006020820190508181036000830152614b6f8184614af7565b905092915050565b60008060408385031215614b8e57614b8d61401e565b5b6000614b9c85828601614049565b9250506020614bad85828601614049565b9150509250929050565b600080fd5b600080fd5b60008083601f840112614bd757614bd661478c565b5b8235905067ffffffffffffffff811115614bf457614bf3614bb7565b5b602083019150836020820283011115614c1057614c0f614bbc565b5b9250929050565b60008083601f840112614c2d57614c2c61478c565b5b8235905067ffffffffffffffff811115614c4a57614c49614bb7565b5b602083019150836020820283011115614c6657614c65614bbc565b5b9250929050565b600080600080600060608688031215614c8957614c8861401e565b5b6000614c9788828901614049565b955050602086013567ffffffffffffffff811115614cb857614cb7614023565b5b614cc488828901614bc1565b9450945050604086013567ffffffffffffffff811115614ce757614ce6614023565b5b614cf388828901614c17565b92509250509295509295909350565b608082016000820151614d1860008501826141e2565b506020820151614d2b60208501826141e2565b506040820151614d3e6040850182614296565b506060820151614d516060850182614a6e565b50505050565b6000608082019050614d6c6000830184614d02565b92915050565b60006040820190508181036000830152614d8c8185614597565b90508181036020830152614da08184614af7565b90509392505050565b6000606082019050614dbe60008301866140bd565b614dcb6020830185614993565b614dd86040830184614993565b949350505050565b606082016000820151614df66000850182614296565b506020820151614e0960208501826141e2565b506040820151614e1c60408501826141e2565b50505050565b6000606082019050614e376000830184614de0565b92915050565b600080fd5b600080fd5b600081519050614e56816140e7565b92915050565b6000614e6f614e6a84614811565b6147f6565b905082815260208101848484011115614e8b57614e8a614791565b5b614e968482856142c1565b509392505050565b600082601f830112614eb357614eb261478c565b5b8151614ec3848260208601614e5c565b91505092915050565b600081519050614edb81614032565b92915050565b600060c08284031215614ef757614ef6614e3d565b5b614f0160c06147f6565b90506000614f1184828501614e47565b600083015250602082015167ffffffffffffffff811115614f3557614f34614e42565b5b614f4184828501614e9e565b6020830152506040614f5584828501614ecc565b6040830152506060614f6984828501614e47565b6060830152506080614f7d84828501614ecc565b60808301525060a0614f9184828501614ecc565b60a08301525092915050565b600060208284031215614fb357614fb261401e565b5b600082015167ffffffffffffffff811115614fd157614fd0614023565b5b614fdd84828501614ee1565b91505092915050565b600082825260208201905092915050565b7f496e76616c696420746f6b656e20616464726573730000000000000000000000600082015250565b600061502d601583614fe6565b915061503882614ff7565b602082019050919050565b6000602082019050818103600083015261505c81615020565b9050919050565b6000602082840312156150795761507861401e565b5b600061508784828501614ecc565b91505092915050565b7f496e73756666696369656e742062616c616e6365000000000000000000000000600082015250565b60006150c6601483614fe6565b91506150d182615090565b602082019050919050565b600060208201905081810360008301526150f5816150b9565b9050919050565b600060408201905061511160008301856140bd565b61511e6020830184614993565b9392505050565b7f4e487b7100000000000000000000000000000000000000000000000000000000600052603260045260246000fd5b7f506c61796572206e6f7420696e2067616d650000000000000000000000000000600082015250565b600061518a601283614fe6565b915061519582615154565b602082019050919050565b600060208201905081810360008301526151b98161517d565b9050919050565b7f556e617574686f72697a65640000000000000000000000000000000000000000600082015250565b60006151f6600c83614fe6565b9150615201826151c0565b602082019050919050565b60006020820190508181036000830152615225816151e9565b9050919050565b7f50726f7065727479206e6f7420666f756e640000000000000000000000000000600082015250565b6000615262601283614fe6565b915061526d8261522c565b602082019050919050565b6000602082019050818103600083015261529181615255565b9050919050565b60006060820190506152ad6000830186614993565b6152ba6020830185614993565b6152c760408301846140bd565b949350505050565b7f4e487b7100000000000000000000000000000000000000000000000000000000600052601160045260246000fd5b600061530982614028565b915061531483614028565b925082820190508082111561532c5761532b6152cf565b5b92915050565b7f496e76616c696420616464726573730000000000000000000000000000000000600082015250565b6000615368600f83614fe6565b915061537382615332565b602082019050919050565b600060208201905081810360008301526153978161535b565b9050919050565b6000819050919050565b6000819050919050565b60006153cd6153c86153c38461539e565b6153a8565b614028565b9050919050565b6153dd816153b2565b82525050565b60006040820190506153f860008301856140bd565b61540560208301846153d4565b9392505050565b7f4f6e6c79206f776e65722063616e2062617463682073657420706f736974696f60008201527f6e73000000000000000000000000000000000000000000000000000000000000602082015250565b6000615468602283614fe6565b91506154738261540c565b604082019050919050565b600060208201905081810360008301526154978161545b565b9050919050565b7f417272617973206c656e677468206d69736d6174636800000000000000000000600082015250565b60006154d4601683614fe6565b91506154df8261549e565b602082019050919050565b60006020820190508181036000830152615503816154c7565b9050919050565b600061551582614028565b915061552083614028565b9250828203905081811115615538576155376152cf565b5b92915050565b7f4e487b7100000000000000000000000000000000000000000000000000000000600052603160045260246000fd5b7f4e6f7420796f7572207475726e00000000000000000000000000000000000000600082015250565b60006155a3600d83614fe6565b91506155ae8261556d565b602082019050919050565b600060208201905081810360008301526155d281615596565b9050919050565b60006155e4826142a5565b6155ee8185614fe6565b93506155fe8185602086016142c1565b615607816142eb565b840191505092915050565b600060a08201905061562760008301886140bd565b818103602083015261563981876155d9565b90506156486040830186614993565b61565560608301856140bd565b6156626080830184614993565b9695505050505050565b6000819050919050565b600061569161568c6156878461566c565b6153a8565b614028565b9050919050565b6156a181615676565b82525050565b60006060820190506156bc6000830186614993565b6156c96020830185615698565b6156d660408301846140bd565b94935050505056fea26469706673582212206c45c29a63df11572c64247257b1f02d5c65781217657053b6afa132be841e3d64736f6c634300081c0033",
  "linkReferences": {},
  "deployedLinkReferences": {}
}