{
  "_format": "hh-sol-artifact-1",
  "contractName": "Token",
  "sourceName": "contracts/Token.sol",
  "abi": [
    {
      "inputs": [
        {
          "internalType": "string",
          "name": "name",
          "type": "string"
        },
        {
          "internalType": "string",
          "name": "symbol",
          "type": "string"
        },
        {
          "internalType": "uint256",
          "name": "initialSupply",
          "type": "uint256"
        },
        {
          "internalType": "uint8",
          "name": "tokenDecimals",
          "type": "uint8"
        },
        {
          "internalType": "address",
          "name": "initialOwner",
          "type": "address"
        },
        {
          "internalType": "address",
          "name": "minterContract",
          "type": "address"
        }
      ],
      "stateMutability": "nonpayable",
      "type": "constructor"
    },
    {
      "inputs": [
        {
          "internalType": "address",
          "name": "spender",
          "type": "address"
        },
        {
          "internalType": "uint256",
          "name": "allowance",
          "type": "uint256"
        },
        {
          "internalType": "uint256",
          "name": "needed",
          "type": "uint256"
        }
      ],
      "name": "ERC20InsufficientAllowance",
      "type": "error"
    },
    {
      "inputs": [
        {
          "internalType": "address",
          "name": "sender",
          "type": "address"
        },
        {
          "internalType": "uint256",
          "name": "balance",
          "type": "uint256"
        },
        {
          "internalType": "uint256",
          "name": "needed",
          "type": "uint256"
        }
      ],
      "name": "ERC20InsufficientBalance",
      "type": "error"
    },
    {
      "inputs": [
        {
          "internalType": "address",
          "name": "approver",
          "type": "address"
        }
      ],
      "name": "ERC20InvalidApprover",
      "type": "error"
    },
    {
      "inputs": [
        {
          "internalType": "address",
          "name": "receiver",
          "type": "address"
        }
      ],
      "name": "ERC20InvalidReceiver",
      "type": "error"
    },
    {
      "inputs": [
        {
          "internalType": "address",
          "name": "sender",
          "type": "address"
        }
      ],
      "name": "ERC20InvalidSender",
      "type": "error"
    },
    {
      "inputs": [
        {
          "internalType": "address",
          "name": "spender",
          "type": "address"
        }
      ],
      "name": "ERC20InvalidSpender",
      "type": "error"
    },
    {
      "inputs": [
        {
          "internalType": "address",
          "name": "owner",
          "type": "address"
        }
      ],
      "name": "OwnableInvalidOwner",
      "type": "error"
    },
    {
      "inputs": [
        {
          "internalType": "address",
          "name": "account",
          "type": "address"
        }
      ],
      "name": "OwnableUnauthorizedAccount",
      "type": "error"
    },
    {
      "anonymous": false,
      "inputs": [
        {
          "indexed": true,
          "internalType": "address",
          "name": "owner",
          "type": "address"
        },
        {
          "indexed": true,
          "internalType": "address",
          "name": "spender",
          "type": "address"
        },
        {
          "indexed": false,
          "internalType": "uint256",
          "name": "value",
          "type": "uint256"
        }
      ],
      "name": "Approval",
      "type": "event"
    },
    {
      "anonymous": false,
      "inputs": [
        {
          "indexed": true,
          "internalType": "address",
          "name": "previousOwner",
          "type": "address"
        },
        {
          "indexed": true,
          "internalType": "address",
          "name": "newOwner",
          "type": "address"
        }
      ],
      "name": "OwnershipTransferred",
      "type": "event"
    },
    {
      "anonymous": false,
      "inputs": [
        {
          "indexed": true,
          "internalType": "address",
          "name": "from",
          "type": "address"
        },
        {
          "indexed": true,
          "internalType": "address",
          "name": "to",
          "type": "address"
        },
        {
          "indexed": false,
          "internalType": "uint256",
          "name": "value",
          "type": "uint256"
        }
      ],
      "name": "Transfer",
      "type": "event"
    },
    {
      "inputs": [
        {
          "internalType": "address",
          "name": "owner",
          "type": "address"
        },
        {
          "internalType": "address",
          "name": "spender",
          "type": "address"
        }
      ],
      "name": "allowance",
      "outputs": [
        {
          "internalType": "uint256",
          "name": "",
          "type": "uint256"
        }
      ],
      "stateMutability": "view",
      "type": "function"
    },
    {
      "inputs": [],
      "name": "allowedMinter",
      "outputs": [
        {
          "internalType": "address",
          "name": "",
          "type": "address"
        }
      ],
      "stateMutability": "view",
      "type": "function"
    },
    {
      "inputs": [
        {
          "internalType": "address",
          "name": "spender",
          "type": "address"
        },
        {
          "internalType": "uint256",
          "name": "value",
          "type": "uint256"
        }
      ],
      "name": "approve",
      "outputs": [
        {
          "internalType": "bool",
          "name": "",
          "type": "bool"
        }
      ],
      "stateMutability": "nonpayable",
      "type": "function"
    },
    {
      "inputs": [
        {
          "internalType": "address",
          "name": "account",
          "type": "address"
        }
      ],
      "name": "balanceOf",
      "outputs": [
        {
          "internalType": "uint256",
          "name": "",
          "type": "uint256"
        }
      ],
      "stateMutability": "view",
      "type": "function"
    },
    {
      "inputs": [
        {
          "internalType": "uint256",
          "name": "amount",
          "type": "uint256"
        }
      ],
      "name": "burn",
      "outputs": [],
      "stateMutability": "nonpayable",
      "type": "function"
    },
    {
      "inputs": [
        {
          "internalType": "address",
          "name": "from",
          "type": "address"
        },
        {
          "internalType": "uint256",
          "name": "amount",
          "type": "uint256"
        }
      ],
      "name": "burnFrom",
      "outputs": [],
      "stateMutability": "nonpayable",
      "type": "function"
    },
    {
      "inputs": [],
      "name": "decimals",
      "outputs": [
        {
          "internalType": "uint8",
          "name": "",
          "type": "uint8"
        }
      ],
      "stateMutability": "view",
      "type": "function"
    },
    {
      "inputs": [
        {
          "internalType": "address",
          "name": "to",
          "type": "address"
        },
        {
          "internalType": "uint256",
          "name": "amount",
          "type": "uint256"
        }
      ],
      "name": "mint",
      "outputs": [],
      "stateMutability": "nonpayable",
      "type": "function"
    },
    {
      "inputs": [],
      "name": "name",
      "outputs": [
        {
          "internalType": "string",
          "name": "",
          "type": "string"
        }
      ],
      "stateMutability": "view",
      "type": "function"
    },
    {
      "inputs": [],
      "name": "owner",
      "outputs": [
        {
          "internalType": "address",
          "name": "",
          "type": "address"
        }
      ],
      "stateMutability": "view",
      "type": "function"
    },
    {
      "inputs": [],
      "name": "renounceOwnership",
      "outputs": [],
      "stateMutability": "nonpayable",
      "type": "function"
    },
    {
      "inputs": [],
      "name": "symbol",
      "outputs": [
        {
          "internalType": "string",
          "name": "",
          "type": "string"
        }
      ],
      "stateMutability": "view",
      "type": "function"
    },
    {
      "inputs": [],
      "name": "totalSupply",
      "outputs": [
        {
          "internalType": "uint256",
          "name": "",
          "type": "uint256"
        }
      ],
      "stateMutability": "view",
      "type": "function"
    },
    {
      "inputs": [
        {
          "internalType": "address",
          "name": "to",
          "type": "address"
        },
        {
          "internalType": "uint256",
          "name": "value",
          "type": "uint256"
        }
      ],
      "name": "transfer",
      "outputs": [
        {
          "internalType": "bool",
          "name": "",
          "type": "bool"
        }
      ],
      "stateMutability": "nonpayable",
      "type": "function"
    },
    {
      "inputs": [
        {
          "internalType": "address",
          "name": "from",
          "type": "address"
        },
        {
          "internalType": "address",
          "name": "to",
          "type": "address"
        },
        {
          "internalType": "uint256",
          "name": "value",
          "type": "uint256"
        }
      ],
      "name": "transferFrom",
      "outputs": [
        {
          "internalType": "bool",
          "name": "",
          "type": "bool"
        }
      ],
      "stateMutability": "nonpayable",
      "type": "function"
    },
    {
      "inputs": [
        {
          "internalType": "address",
          "name": "newOwner",
          "type": "address"
        }
      ],
      "name": "transferOwnership",
      "outputs": [],
      "stateMutability": "nonpayable",
      "type": "function"
    }
  ],
  "bytecode": "0x608060405234801561001057600080fd5b506040516121a63803806121a68339818101604052810190610032919061071c565b818686816003908161004491906109f8565b50806004908161005491906109f8565b505050600073ffffffffffffffffffffffffffffffffffffffff168173ffffffffffffffffffffffffffffffffffffffff16036100c95760006040517f1e4fbdf70000000000000000000000000000000000000000000000000000000081526004016100c09190610ad9565b60405180910390fd5b6100d88161016760201b60201c565b5082600560146101000a81548160ff021916908360ff16021790555061011b8284600a6101059190610c56565b866101109190610ca1565b61022d60201b60201c565b80600660006101000a81548173ffffffffffffffffffffffffffffffffffffffff021916908373ffffffffffffffffffffffffffffffffffffffff160217905550505050505050610d78565b6000600560009054906101000a900473ffffffffffffffffffffffffffffffffffffffff16905081600560006101000a81548173ffffffffffffffffffffffffffffffffffffffff021916908373ffffffffffffffffffffffffffffffffffffffff1602179055508173ffffffffffffffffffffffffffffffffffffffff168173ffffffffffffffffffffffffffffffffffffffff167f8be0079c531659141344cd1fd0a4f28419497f9722a3daafe3b4186f6b6457e060405160405180910390a35050565b600073ffffffffffffffffffffffffffffffffffffffff168273ffffffffffffffffffffffffffffffffffffffff160361029f5760006040517fec442f050000000000000000000000000000000000000000000000000000000081526004016102969190610ad9565b60405180910390fd5b6102b1600083836102b560201b60201c565b5050565b600073ffffffffffffffffffffffffffffffffffffffff168373ffffffffffffffffffffffffffffffffffffffff16036103075780600260008282546102fb9190610ce3565b925050819055506103da565b60008060008573ffffffffffffffffffffffffffffffffffffffff1673ffffffffffffffffffffffffffffffffffffffff16815260200190815260200160002054905081811015610393578381836040517fe450d38c00000000000000000000000000000000000000000000000000000000815260040161038a93929190610d26565b60405180910390fd5b8181036000808673ffffffffffffffffffffffffffffffffffffffff1673ffffffffffffffffffffffffffffffffffffffff16815260200190815260200160002081905550505b600073ffffffffffffffffffffffffffffffffffffffff168273ffffffffffffffffffffffffffffffffffffffff16036104235780600260008282540392505081905550610470565b806000808473ffffffffffffffffffffffffffffffffffffffff1673ffffffffffffffffffffffffffffffffffffffff168152602001908152602001600020600082825401925050819055505b8173ffffffffffffffffffffffffffffffffffffffff168373ffffffffffffffffffffffffffffffffffffffff167fddf252ad1be2c89b69c2b068fc378daa952ba7f163c4a11628f55a4df523b3ef836040516104cd9190610d5d565b60405180910390a3505050565b6000604051905090565b600080fd5b600080fd5b600080fd5b600080fd5b6000601f19601f8301169050919050565b7f4e487b7100000000000000000000000000000000000000000000000000000000600052604160045260246000fd5b610541826104f8565b810181811067ffffffffffffffff821117156105605761055f610509565b5b80604052505050565b60006105736104da565b905061057f8282610538565b919050565b600067ffffffffffffffff82111561059f5761059e610509565b5b6105a8826104f8565b9050602081019050919050565b60005b838110156105d35780820151818401526020810190506105b8565b60008484015250505050565b60006105f26105ed84610584565b610569565b90508281526020810184848401111561060e5761060d6104f3565b5b6106198482856105b5565b509392505050565b600082601f830112610636576106356104ee565b5b81516106468482602086016105df565b91505092915050565b6000819050919050565b6106628161064f565b811461066d57600080fd5b50565b60008151905061067f81610659565b92915050565b600060ff82169050919050565b61069b81610685565b81146106a657600080fd5b50565b6000815190506106b881610692565b92915050565b600073ffffffffffffffffffffffffffffffffffffffff82169050919050565b60006106e9826106be565b9050919050565b6106f9816106de565b811461070457600080fd5b50565b600081519050610716816106f0565b92915050565b60008060008060008060c08789031215610739576107386104e4565b5b600087015167ffffffffffffffff811115610757576107566104e9565b5b61076389828a01610621565b965050602087015167ffffffffffffffff811115610784576107836104e9565b5b61079089828a01610621565b95505060406107a189828a01610670565b94505060606107b289828a016106a9565b93505060806107c389828a01610707565b92505060a06107d489828a01610707565b9150509295509295509295565b600081519050919050565b7f4e487b7100000000000000000000000000000000000000000000000000000000600052602260045260246000fd5b6000600282049050600182168061083357607f821691505b602082108103610846576108456107ec565b5b50919050565b60008190508160005260206000209050919050565b60006020601f8301049050919050565b600082821b905092915050565b6000600883026108ae7fffffffffffffffffffffffffffffffffffffffffffffffffffffffffffffffff82610871565b6108b88683610871565b95508019841693508086168417925050509392505050565b6000819050919050565b60006108f56108f06108eb8461064f565b6108d0565b61064f565b9050919050565b6000819050919050565b61090f836108da565b61092361091b826108fc565b84845461087e565b825550505050565b600090565b61093861092b565b610943818484610906565b505050565b5b818110156109675761095c600082610930565b600181019050610949565b5050565b601f8211156109ac5761097d8161084c565b61098684610861565b81016020851015610995578190505b6109a96109a185610861565b830182610948565b50505b505050565b600082821c905092915050565b60006109cf600019846008026109b1565b1980831691505092915050565b60006109e883836109be565b9150826002028217905092915050565b610a01826107e1565b67ffffffffffffffff811115610a1a57610a19610509565b5b610a24825461081b565b610a2f82828561096b565b600060209050601f831160018114610a625760008415610a50578287015190505b610a5a85826109dc565b865550610ac2565b601f198416610a708661084c565b60005b82811015610a9857848901518255600182019150602085019450602081019050610a73565b86831015610ab55784890151610ab1601f8916826109be565b8355505b6001600288020188555050505b505050505050565b610ad3816106de565b82525050565b6000602082019050610aee6000830184610aca565b92915050565b7f4e487b7100000000000000000000000000000000000000000000000000000000600052601160045260246000fd5b60008160011c9050919050565b6000808291508390505b6001851115610b7a57808604811115610b5657610b55610af4565b5b6001851615610b655780820291505b8081029050610b7385610b23565b9450610b3a565b94509492505050565b600082610b935760019050610c4f565b81610ba15760009050610c4f565b8160018114610bb75760028114610bc157610bf0565b6001915050610c4f565b60ff841115610bd357610bd2610af4565b5b8360020a915084821115610bea57610be9610af4565b5b50610c4f565b5060208310610133831016604e8410600b8410161715610c255782820a905083811115610c2057610c1f610af4565b5b610c4f565b610c328484846001610b30565b92509050818404811115610c4957610c48610af4565b5b81810290505b9392505050565b6000610c618261064f565b9150610c6c83610685565b9250610c997fffffffffffffffffffffffffffffffffffffffffffffffffffffffffffffffff8484610b83565b905092915050565b6000610cac8261064f565b9150610cb78361064f565b9250828202610cc58161064f565b91508282048414831517610cdc57610cdb610af4565b5b5092915050565b6000610cee8261064f565b9150610cf98361064f565b9250828201905080821115610d1157610d10610af4565b5b92915050565b610d208161064f565b82525050565b6000606082019050610d3b6000830186610aca565b610d486020830185610d17565b610d556040830184610d17565b949350505050565b6000602082019050610d726000830184610d17565b92915050565b61141f80610d876000396000f3fe608060405234801561001057600080fd5b50600436106101005760003560e01c8063715018a6116100975780639e812c7b116100665780639e812c7b14610289578063a9059cbb146102a7578063dd62ed3e146102d7578063f2fde38b1461030757610100565b8063715018a61461022757806379cc6790146102315780638da5cb5b1461024d57806395d89b411461026b57610100565b8063313ce567116100d3578063313ce567146101a157806340c10f19146101bf57806342966c68146101db57806370a08231146101f757610100565b806306fdde0314610105578063095ea7b31461012357806318160ddd1461015357806323b872dd14610171575b600080fd5b61010d610323565b60405161011a9190610fda565b60405180910390f35b61013d60048036038101906101389190611095565b6103b5565b60405161014a91906110f0565b60405180910390f35b61015b6103d8565b604051610168919061111a565b60405180910390f35b61018b60048036038101906101869190611135565b6103e2565b60405161019891906110f0565b60405180910390f35b6101a9610411565b6040516101b691906111a4565b60405180910390f35b6101d960048036038101906101d49190611095565b610428565b005b6101f560048036038101906101f091906111bf565b6104c6565b005b610211600480360381019061020c91906111ec565b6104d3565b60405161021e919061111a565b60405180910390f35b61022f61051b565b005b61024b60048036038101906102469190611095565b61052f565b005b610255610548565b6040516102629190611228565b60405180910390f35b610273610572565b6040516102809190610fda565b60405180910390f35b610291610604565b60405161029e9190611228565b60405180910390f35b6102c160048036038101906102bc9190611095565b61062a565b6040516102ce91906110f0565b60405180910390f35b6102f160048036038101906102ec9190611243565b61064d565b6040516102fe919061111a565b60405180910390f35b610321600480360381019061031c91906111ec565b6106d4565b005b606060038054610332906112b2565b80601f016020809104026020016040519081016040528092919081815260200182805461035e906112b2565b80156103ab5780601f10610380576101008083540402835291602001916103ab565b820191906000526020600020905b81548152906001019060200180831161038e57829003601f168201915b5050505050905090565b6000806103c061075a565b90506103cd818585610762565b600191505092915050565b6000600254905090565b6000806103ed61075a565b90506103fa858285610774565b610405858585610809565b60019150509392505050565b6000600560149054906101000a900460ff16905090565b600660009054906101000a900473ffffffffffffffffffffffffffffffffffffffff1673ffffffffffffffffffffffffffffffffffffffff163373ffffffffffffffffffffffffffffffffffffffff16146104b8576040517f08c379a00000000000000000000000000000000000000000000000000000000081526004016104af9061132f565b60405180910390fd5b6104c282826108fd565b5050565b6104d0338261097f565b50565b60008060008373ffffffffffffffffffffffffffffffffffffffff1673ffffffffffffffffffffffffffffffffffffffff168152602001908152602001600020549050919050565b610523610a01565b61052d6000610a88565b565b61053a823383610774565b610544828261097f565b5050565b6000600560009054906101000a900473ffffffffffffffffffffffffffffffffffffffff16905090565b606060048054610581906112b2565b80601f01602080910402602001604051908101604052809291908181526020018280546105ad906112b2565b80156105fa5780601f106105cf576101008083540402835291602001916105fa565b820191906000526020600020905b8154815290600101906020018083116105dd57829003601f168201915b5050505050905090565b600660009054906101000a900473ffffffffffffffffffffffffffffffffffffffff1681565b60008061063561075a565b9050610642818585610809565b600191505092915050565b6000600160008473ffffffffffffffffffffffffffffffffffffffff1673ffffffffffffffffffffffffffffffffffffffff16815260200190815260200160002060008373ffffffffffffffffffffffffffffffffffffffff1673ffffffffffffffffffffffffffffffffffffffff16815260200190815260200160002054905092915050565b6106dc610a01565b600073ffffffffffffffffffffffffffffffffffffffff168173ffffffffffffffffffffffffffffffffffffffff160361074e5760006040517f1e4fbdf70000000000000000000000000000000000000000000000000000000081526004016107459190611228565b60405180910390fd5b61075781610a88565b50565b600033905090565b61076f8383836001610b4e565b505050565b6000610780848461064d565b90507fffffffffffffffffffffffffffffffffffffffffffffffffffffffffffffffff81101561080357818110156107f3578281836040517ffb8f41b20000000000000000000000000000000000000000000000000000000081526004016107ea9392919061134f565b60405180910390fd5b61080284848484036000610b4e565b5b50505050565b600073ffffffffffffffffffffffffffffffffffffffff168373ffffffffffffffffffffffffffffffffffffffff160361087b5760006040517f96c6fd1e0000000000000000000000000000000000000000000000000000000081526004016108729190611228565b60405180910390fd5b600073ffffffffffffffffffffffffffffffffffffffff168273ffffffffffffffffffffffffffffffffffffffff16036108ed5760006040517fec442f050000000000000000000000000000000000000000000000000000000081526004016108e49190611228565b60405180910390fd5b6108f8838383610d25565b505050565b600073ffffffffffffffffffffffffffffffffffffffff168273ffffffffffffffffffffffffffffffffffffffff160361096f5760006040517fec442f050000000000000000000000000000000000000000000000000000000081526004016109669190611228565b60405180910390fd5b61097b60008383610d25565b5050565b600073ffffffffffffffffffffffffffffffffffffffff168273ffffffffffffffffffffffffffffffffffffffff16036109f15760006040517f96c6fd1e0000000000000000000000000000000000000000000000000000000081526004016109e89190611228565b60405180910390fd5b6109fd82600083610d25565b5050565b610a0961075a565b73ffffffffffffffffffffffffffffffffffffffff16610a27610548565b73ffffffffffffffffffffffffffffffffffffffff1614610a8657610a4a61075a565b6040517f118cdaa7000000000000000000000000000000000000000000000000000000008152600401610a7d9190611228565b60405180910390fd5b565b6000600560009054906101000a900473ffffffffffffffffffffffffffffffffffffffff16905081600560006101000a81548173ffffffffffffffffffffffffffffffffffffffff021916908373ffffffffffffffffffffffffffffffffffffffff1602179055508173ffffffffffffffffffffffffffffffffffffffff168173ffffffffffffffffffffffffffffffffffffffff167f8be0079c531659141344cd1fd0a4f28419497f9722a3daafe3b4186f6b6457e060405160405180910390a35050565b600073ffffffffffffffffffffffffffffffffffffffff168473ffffffffffffffffffffffffffffffffffffffff1603610bc05760006040517fe602df05000000000000000000000000000000000000000000000000000000008152600401610bb79190611228565b60405180910390fd5b600073ffffffffffffffffffffffffffffffffffffffff168373ffffffffffffffffffffffffffffffffffffffff1603610c325760006040517f94280d62000000000000000000000000000000000000000000000000000000008152600401610c299190611228565b60405180910390fd5b81600160008673ffffffffffffffffffffffffffffffffffffffff1673ffffffffffffffffffffffffffffffffffffffff16815260200190815260200160002060008573ffffffffffffffffffffffffffffffffffffffff1673ffffffffffffffffffffffffffffffffffffffff168152602001908152602001600020819055508015610d1f578273ffffffffffffffffffffffffffffffffffffffff168473ffffffffffffffffffffffffffffffffffffffff167f8c5be1e5ebec7d5bd14f71427d1e84f3dd0314c0f7b2291e5b200ac8c7c3b92584604051610d16919061111a565b60405180910390a35b50505050565b600073ffffffffffffffffffffffffffffffffffffffff168373ffffffffffffffffffffffffffffffffffffffff1603610d77578060026000828254610d6b91906113b5565b92505081905550610e4a565b60008060008573ffffffffffffffffffffffffffffffffffffffff1673ffffffffffffffffffffffffffffffffffffffff16815260200190815260200160002054905081811015610e03578381836040517fe450d38c000000000000000000000000000000000000000000000000000000008152600401610dfa9392919061134f565b60405180910390fd5b8181036000808673ffffffffffffffffffffffffffffffffffffffff1673ffffffffffffffffffffffffffffffffffffffff16815260200190815260200160002081905550505b600073ffffffffffffffffffffffffffffffffffffffff168273ffffffffffffffffffffffffffffffffffffffff1603610e935780600260008282540392505081905550610ee0565b806000808473ffffffffffffffffffffffffffffffffffffffff1673ffffffffffffffffffffffffffffffffffffffff168152602001908152602001600020600082825401925050819055505b8173ffffffffffffffffffffffffffffffffffffffff168373ffffffffffffffffffffffffffffffffffffffff167fddf252ad1be2c89b69c2b068fc378daa952ba7f163c4a11628f55a4df523b3ef83604051610f3d919061111a565b60405180910390a3505050565b600081519050919050565b600082825260208201905092915050565b60005b83811015610f84578082015181840152602081019050610f69565b60008484015250505050565b6000601f19601f8301169050919050565b6000610fac82610f4a565b610fb68185610f55565b9350610fc6818560208601610f66565b610fcf81610f90565b840191505092915050565b60006020820190508181036000830152610ff48184610fa1565b905092915050565b600080fd5b600073ffffffffffffffffffffffffffffffffffffffff82169050919050565b600061102c82611001565b9050919050565b61103c81611021565b811461104757600080fd5b50565b60008135905061105981611033565b92915050565b6000819050919050565b6110728161105f565b811461107d57600080fd5b50565b60008135905061108f81611069565b92915050565b600080604083850312156110ac576110ab610ffc565b5b60006110ba8582860161104a565b92505060206110cb85828601611080565b9150509250929050565b60008115159050919050565b6110ea816110d5565b82525050565b600060208201905061110560008301846110e1565b92915050565b6111148161105f565b82525050565b600060208201905061112f600083018461110b565b92915050565b60008060006060848603121561114e5761114d610ffc565b5b600061115c8682870161104a565b935050602061116d8682870161104a565b925050604061117e86828701611080565b9150509250925092565b600060ff82169050919050565b61119e81611188565b82525050565b60006020820190506111b96000830184611195565b92915050565b6000602082840312156111d5576111d4610ffc565b5b60006111e384828501611080565b91505092915050565b60006020828403121561120257611201610ffc565b5b60006112108482850161104a565b91505092915050565b61122281611021565b82525050565b600060208201905061123d6000830184611219565b92915050565b6000806040838503121561125a57611259610ffc565b5b60006112688582860161104a565b92505060206112798582860161104a565b9150509250929050565b7f4e487b7100000000000000000000000000000000000000000000000000000000600052602260045260246000fd5b600060028204905060018216806112ca57607f821691505b6020821081036112dd576112dc611283565b5b50919050565b7f4e6f7420617574686f72697a656420746f206d696e7400000000000000000000600082015250565b6000611319601683610f55565b9150611324826112e3565b602082019050919050565b600060208201905081810360008301526113488161130c565b9050919050565b60006060820190506113646000830186611219565b611371602083018561110b565b61137e604083018461110b565b949350505050565b7f4e487b7100000000000000000000000000000000000000000000000000000000600052601160045260246000fd5b60006113c08261105f565b91506113cb8361105f565b92508282019050808211156113e3576113e2611386565b5b9291505056fea264697066735822122053bf6b21dbbe2c6c1f205b6a7670aa416f6605d1ab2f766a9986fd753cbdeeaf64736f6c634300081c0033",
  "linkReferences": {},
  "deployedLinkReferences": {}
}