{
  "_format": "hh-sol-artifact-1",
  "contractName": "Multipoly",
  "sourceName": "contracts/Multipoly.sol",
  "abi": [
    {
      "inputs": [
        {
          "internalType": "address",
          "name": "initialOwner",
          "type": "address"
        },
        {
          "internalType": "address",
          "name": "_property_nft",
          "type": "address"
        }
      ],
      "stateMutability": "nonpayable",
      "type": "constructor"
    },
    {
      "inputs": [
        {
          "internalType": "address",
          "name": "owner",
          "type": "address"
        }
      ],
      "name": "OwnableInvalidOwner",
      "type": "error"
    },
    {
      "inputs": [
        {
          "internalType": "address",
          "name": "account",
          "type": "address"
        }
      ],
      "name": "OwnableUnauthorizedAccount",
      "type": "error"
    },
    {
      "anonymous": false,
      "inputs": [
        {
          "indexed": true,
          "internalType": "uint256",
          "name": "game_id",
          "type": "uint256"
        }
      ],
      "name": "GameCreated",
      "type": "event"
    },
    {
      "anonymous": false,
      "inputs": [
        {
          "indexed": true,
          "internalType": "address",
          "name": "previousOwner",
          "type": "address"
        },
        {
          "indexed": true,
          "internalType": "address",
          "name": "newOwner",
          "type": "address"
        }
      ],
      "name": "OwnershipTransferred",
      "type": "event"
    },
    {
      "anonymous": false,
      "inputs": [
        {
          "indexed": true,
          "internalType": "uint256",
          "name": "game_id",
          "type": "uint256"
        },
        {
          "indexed": true,
          "internalType": "address",
          "name": "user_account",
          "type": "address"
        }
      ],
      "name": "PlayerJoinedGame",
      "type": "event"
    },
    {
      "anonymous": false,
      "inputs": [
        {
          "indexed": true,
          "internalType": "uint256",
          "name": "game_id",
          "type": "uint256"
        },
        {
          "indexed": true,
          "internalType": "address",
          "name": "user_account",
          "type": "address"
        }
      ],
      "name": "PlayerLeftGame",
      "type": "event"
    },
    {
      "anonymous": false,
      "inputs": [
        {
          "indexed": true,
          "internalType": "uint256",
          "name": "game_id",
          "type": "uint256"
        },
        {
          "indexed": true,
          "internalType": "address",
          "name": "user_account",
          "type": "address"
        },
        {
          "indexed": false,
          "internalType": "uint256",
          "name": "position",
          "type": "uint256"
        }
      ],
      "name": "PlayerPositionUpdated",
      "type": "event"
    },
    {
      "anonymous": false,
      "inputs": [
        {
          "indexed": true,
          "internalType": "address",
          "name": "user_account",
          "type": "address"
        },
        {
          "indexed": true,
          "internalType": "uint256",
          "name": "game_id",
          "type": "uint256"
        },
        {
          "indexed": false,
          "internalType": "uint256",
          "name": "nft_id",
          "type": "uint256"
        },
        {
          "indexed": false,
          "internalType": "uint256",
          "name": "stake_amount",
          "type": "uint256"
        },
        {
          "indexed": false,
          "internalType": "address",
          "name": "token",
          "type": "address"
        }
      ],
      "name": "PlayerPropertiesSet",
      "type": "event"
    },
    {
      "anonymous": false,
      "inputs": [
        {
          "indexed": true,
          "internalType": "uint256",
          "name": "game_id",
          "type": "uint256"
        },
        {
          "indexed": true,
          "internalType": "address",
          "name": "user_account",
          "type": "address"
        }
      ],
      "name": "PlayerTurnSet",
      "type": "event"
    },
    {
      "inputs": [],
      "name": "PROPERTY_NFT",
      "outputs": [
        {
          "internalType": "address",
          "name": "",
          "type": "address"
        }
      ],
      "stateMutability": "view",
      "type": "function"
    },
    {
      "inputs": [
        {
          "internalType": "uint256",
          "name": "game_id",
          "type": "uint256"
        },
        {
          "internalType": "address[]",
          "name": "user_accounts",
          "type": "address[]"
        },
        {
          "internalType": "uint256[]",
          "name": "positions",
          "type": "uint256[]"
        }
      ],
      "name": "batchSetPlayerPositions",
      "outputs": [],
      "stateMutability": "nonpayable",
      "type": "function"
    },
    {
      "inputs": [
        {
          "internalType": "address",
          "name": "player_address",
          "type": "address"
        },
        {
          "internalType": "address",
          "name": "token_address_1",
          "type": "address"
        },
        {
          "internalType": "address",
          "name": "token_address_2",
          "type": "address"
        },
        {
          "internalType": "address",
          "name": "token_address_3",
          "type": "address"
        },
        {
          "internalType": "address",
          "name": "token_address_4",
          "type": "address"
        }
      ],
      "name": "burnAllTokens",
      "outputs": [],
      "stateMutability": "nonpayable",
      "type": "function"
    },
    {
      "inputs": [
        {
          "internalType": "address",
          "name": "player_address",
          "type": "address"
        },
        {
          "internalType": "address",
          "name": "token_address",
          "type": "address"
        },
        {
          "internalType": "uint256",
          "name": "amount",
          "type": "uint256"
        }
      ],
      "name": "credit",
      "outputs": [],
      "stateMutability": "nonpayable",
      "type": "function"
    },
    {
      "inputs": [
        {
          "internalType": "address",
          "name": "player_address",
          "type": "address"
        },
        {
          "internalType": "address",
          "name": "token_address",
          "type": "address"
        },
        {
          "internalType": "uint256",
          "name": "amount",
          "type": "uint256"
        }
      ],
      "name": "debit",
      "outputs": [],
      "stateMutability": "nonpayable",
      "type": "function"
    },
    {
      "inputs": [
        {
          "internalType": "uint256",
          "name": "game_id",
          "type": "uint256"
        },
        {
          "internalType": "address",
          "name": "user_account",
          "type": "address"
        }
      ],
      "name": "deletePlayerPosition",
      "outputs": [],
      "stateMutability": "nonpayable",
      "type": "function"
    },
    {
      "inputs": [
        {
          "internalType": "address",
          "name": "user_account",
          "type": "address"
        },
        {
          "internalType": "uint256",
          "name": "game_id",
          "type": "uint256"
        }
      ],
      "name": "deletePlayerProperties",
      "outputs": [],
      "stateMutability": "nonpayable",
      "type": "function"
    },
    {
      "inputs": [
        {
          "internalType": "uint256",
          "name": "",
          "type": "uint256"
        },
        {
          "internalType": "uint256",
          "name": "",
          "type": "uint256"
        }
      ],
      "name": "gamePlayersList",
      "outputs": [
        {
          "internalType": "address",
          "name": "",
          "type": "address"
        }
      ],
      "stateMutability": "view",
      "type": "function"
    },
    {
      "inputs": [
        {
          "internalType": "uint256",
          "name": "game_id",
          "type": "uint256"
        }
      ],
      "name": "getAllPlayerPositionsInGame",
      "outputs": [
        {
          "components": [
            {
              "internalType": "address",
              "name": "user_account",
              "type": "address"
            },
            {
              "internalType": "uint256",
              "name": "game_id",
              "type": "uint256"
            },
            {
              "internalType": "uint256",
              "name": "position",
              "type": "uint256"
            }
          ],
          "internalType": "struct Multipoly.PlayerPos[]",
          "name": "",
          "type": "tuple[]"
        }
      ],
      "stateMutability": "view",
      "type": "function"
    },
    {
      "inputs": [
        {
          "internalType": "uint256",
          "name": "game_id",
          "type": "uint256"
        }
      ],
      "name": "getGamePlayers",
      "outputs": [
        {
          "internalType": "address[]",
          "name": "",
          "type": "address[]"
        }
      ],
      "stateMutability": "view",
      "type": "function"
    },
    {
      "inputs": [
        {
          "internalType": "uint256",
          "name": "game_id",
          "type": "uint256"
        }
      ],
      "name": "getPlayerCount",
      "outputs": [
        {
          "internalType": "uint256",
          "name": "",
          "type": "uint256"
        }
      ],
      "stateMutability": "view",
      "type": "function"
    },
    {
      "inputs": [
        {
          "internalType": "uint256",
          "name": "game_id",
          "type": "uint256"
        },
        {
          "internalType": "address",
          "name": "user_account",
          "type": "address"
        }
      ],
      "name": "getPlayerPosition",
      "outputs": [
        {
          "components": [
            {
              "internalType": "address",
              "name": "user_account",
              "type": "address"
            },
            {
              "internalType": "uint256",
              "name": "game_id",
              "type": "uint256"
            },
            {
              "internalType": "uint256",
              "name": "position",
              "type": "uint256"
            }
          ],
          "internalType": "struct Multipoly.PlayerPos",
          "name": "",
          "type": "tuple"
        }
      ],
      "stateMutability": "view",
      "type": "function"
    },
    {
      "inputs": [
        {
          "internalType": "address",
          "name": "user_account",
          "type": "address"
        },
        {
          "internalType": "uint256",
          "name": "game_id",
          "type": "uint256"
        }
      ],
      "name": "getPlayerProperties",
      "outputs": [
        {
          "components": [
            {
              "internalType": "address",
              "name": "user_account",
              "type": "address"
            },
            {
              "internalType": "uint256",
              "name": "game_id",
              "type": "uint256"
            },
            {
              "internalType": "uint256",
              "name": "nft_id",
              "type": "uint256"
            },
            {
              "internalType": "uint256",
              "name": "stake_amount",
              "type": "uint256"
            },
            {
              "internalType": "address",
              "name": "token",
              "type": "address"
            }
          ],
          "internalType": "struct Multipoly.PlayerProperties",
          "name": "",
          "type": "tuple"
        }
      ],
      "stateMutability": "view",
      "type": "function"
    },
    {
      "inputs": [
        {
          "internalType": "uint256",
          "name": "game_id",
          "type": "uint256"
        }
      ],
      "name": "getPlayerTurn",
      "outputs": [
        {
          "internalType": "address",
          "name": "",
          "type": "address"
        }
      ],
      "stateMutability": "view",
      "type": "function"
    },
    {
      "inputs": [
        {
          "internalType": "uint256",
          "name": "token_id",
          "type": "uint256"
        }
      ],
      "name": "getPropertyDetails",
      "outputs": [
        {
          "components": [
            {
              "internalType": "address",
              "name": "owner",
              "type": "address"
            },
            {
              "internalType": "string",
              "name": "name",
              "type": "string"
            },
            {
              "internalType": "uint256",
              "name": "position",
              "type": "uint256"
            },
            {
              "internalType": "address",
              "name": "tokenAddress",
              "type": "address"
            },
            {
              "internalType": "uint256",
              "name": "purchaseValue",
              "type": "uint256"
            },
            {
              "internalType": "uint256",
              "name": "rentAmount",
              "type": "uint256"
            }
          ],
          "internalType": "struct IPropertyNFT.Property",
          "name": "",
          "type": "tuple"
        }
      ],
      "stateMutability": "view",
      "type": "function"
    },
    {
      "inputs": [
        {
          "internalType": "address",
          "name": "user_account",
          "type": "address"
        }
      ],
      "name": "getUserGames",
      "outputs": [
        {
          "internalType": "uint256[]",
          "name": "",
          "type": "uint256[]"
        }
      ],
      "stateMutability": "view",
      "type": "function"
    },
    {
      "inputs": [
        {
          "internalType": "uint256",
          "name": "",
          "type": "uint256"
        },
        {
          "internalType": "address",
          "name": "",
          "type": "address"
        }
      ],
      "name": "isPlayerInGame",
      "outputs": [
        {
          "internalType": "bool",
          "name": "",
          "type": "bool"
        }
      ],
      "stateMutability": "view",
      "type": "function"
    },
    {
      "inputs": [
        {
          "internalType": "uint256",
          "name": "game_id",
          "type": "uint256"
        },
        {
          "internalType": "address",
          "name": "user_account",
          "type": "address"
        }
      ],
      "name": "isPlayerInGameView",
      "outputs": [
        {
          "internalType": "bool",
          "name": "",
          "type": "bool"
        }
      ],
      "stateMutability": "view",
      "type": "function"
    },
    {
      "inputs": [
        {
          "internalType": "address",
          "name": "player_address",
          "type": "address"
        },
        {
          "internalType": "address",
          "name": "token_address_1",
          "type": "address"
        },
        {
          "internalType": "address",
          "name": "token_address_2",
          "type": "address"
        },
        {
          "internalType": "address",
          "name": "token_address_3",
          "type": "address"
        },
        {
          "internalType": "address",
          "name": "token_address_4",
          "type": "address"
        }
      ],
      "name": "mintAllTokens",
      "outputs": [],
      "stateMutability": "nonpayable",
      "type": "function"
    },
    {
      "inputs": [
        {
          "internalType": "uint256",
          "name": "game_id",
          "type": "uint256"
        },
        {
          "internalType": "address",
          "name": "user_account",
          "type": "address"
        },
        {
          "internalType": "uint256",
          "name": "steps",
          "type": "uint256"
        },
        {
          "internalType": "bool",
          "name": "purchase",
          "type": "bool"
        },
        {
          "internalType": "string",
          "name": "name",
          "type": "string"
        },
        {
          "internalType": "address",
          "name": "token_address",
          "type": "address"
        },
        {
          "internalType": "uint256",
          "name": "purchase_value",
          "type": "uint256"
        },
        {
          "internalType": "address",
          "name": "next_player",
          "type": "address"
        }
      ],
      "name": "move",
      "outputs": [],
      "stateMutability": "nonpayable",
      "type": "function"
    },
    {
      "inputs": [
        {
          "internalType": "uint256",
          "name": "game_id",
          "type": "uint256"
        },
        {
          "internalType": "address",
          "name": "user_account",
          "type": "address"
        }
      ],
      "name": "onboardPlayer",
      "outputs": [],
      "stateMutability": "nonpayable",
      "type": "function"
    },
    {
      "inputs": [],
      "name": "owner",
      "outputs": [
        {
          "internalType": "address",
          "name": "",
          "type": "address"
        }
      ],
      "stateMutability": "view",
      "type": "function"
    },
    {
      "inputs": [
        {
          "internalType": "uint256",
          "name": "",
          "type": "uint256"
        },
        {
          "internalType": "address",
          "name": "",
          "type": "address"
        }
      ],
      "name": "playerPositions",
      "outputs": [
        {
          "internalType": "address",
          "name": "user_account",
          "type": "address"
        },
        {
          "internalType": "uint256",
          "name": "game_id",
          "type": "uint256"
        },
        {
          "internalType": "uint256",
          "name": "position",
          "type": "uint256"
        }
      ],
      "stateMutability": "view",
      "type": "function"
    },
    {
      "inputs": [
        {
          "internalType": "address",
          "name": "",
          "type": "address"
        },
        {
          "internalType": "uint256",
          "name": "",
          "type": "uint256"
        }
      ],
      "name": "playerProperties",
      "outputs": [
        {
          "internalType": "address",
          "name": "user_account",
          "type": "address"
        },
        {
          "internalType": "uint256",
          "name": "game_id",
          "type": "uint256"
        },
        {
          "internalType": "uint256",
          "name": "nft_id",
          "type": "uint256"
        },
        {
          "internalType": "uint256",
          "name": "stake_amount",
          "type": "uint256"
        },
        {
          "internalType": "address",
          "name": "token",
          "type": "address"
        }
      ],
      "stateMutability": "view",
      "type": "function"
    },
    {
      "inputs": [
        {
          "internalType": "uint256",
          "name": "",
          "type": "uint256"
        }
      ],
      "name": "playerTurns",
      "outputs": [
        {
          "internalType": "address",
          "name": "",
          "type": "address"
        }
      ],
      "stateMutability": "view",
      "type": "function"
    },
    {
      "inputs": [],
      "name": "renounceOwnership",
      "outputs": [],
      "stateMutability": "nonpayable",
      "type": "function"
    },
    {
      "inputs": [
        {
          "internalType": "address",
          "name": "newOwner",
          "type": "address"
        }
      ],
      "name": "transferOwnership",
      "outputs": [],
      "stateMutability": "nonpayable",
      "type": "function"
    },
    {
      "inputs": [
        {
          "internalType": "address",
          "name": "user_account",
          "type": "address"
        },
        {
          "internalType": "uint256",
          "name": "game_id",
          "type": "uint256"
        },
        {
          "internalType": "uint256",
          "name": "new_nft_id",
          "type": "uint256"
        },
        {
          "internalType": "address",
          "name": "nft_contract",
          "type": "address"
        }
      ],
      "name": "updatePlayerNFT",
      "outputs": [],
      "stateMutability": "nonpayable",
      "type": "function"
    },
    {
      "inputs": [
        {
          "internalType": "address",
          "name": "user_account",
          "type": "address"
        },
        {
          "internalType": "uint256",
          "name": "game_id",
          "type": "uint256"
        },
        {
          "internalType": "uint256",
          "name": "new_stake_amount",
          "type": "uint256"
        },
        {
          "internalType": "address",
          "name": "new_token_address",
          "type": "address"
        }
      ],
      "name": "updatePlayerStakeAmount",
      "outputs": [],
      "stateMutability": "nonpayable",
      "type": "function"
    },
    {
      "inputs": [
        {
          "internalType": "uint256",
          "name": "game_id",
          "type": "uint256"
        },
        {
          "internalType": "address",
          "name": "new_user_account",
          "type": "address"
        }
      ],
      "name": "updatePlayerTurn",
      "outputs": [],
      "stateMutability": "nonpayable",
      "type": "function"
    },
    {
      "inputs": [
        {
          "internalType": "address",
          "name": "",
          "type": "address"
        },
        {
          "internalType": "uint256",
          "name": "",
          "type": "uint256"
        }
      ],
      "name": "userGames",
      "outputs": [
        {
          "internalType": "uint256",
          "name": "",
          "type": "uint256"
        }
      ],
      "stateMutability": "view",
      "type": "function"
    }
  ],
  "bytecode": "0x60a060405234801561001057600080fd5b5060405161578338038061578383398181016040528101906100329190610217565b81600073ffffffffffffffffffffffffffffffffffffffff168173ffffffffffffffffffffffffffffffffffffffff16036100a55760006040517f1e4fbdf700000000000000000000000000000000000000000000000000000000815260040161009c9190610266565b60405180910390fd5b6100b4816100f060201b60201c565b508073ffffffffffffffffffffffffffffffffffffffff1660808173ffffffffffffffffffffffffffffffffffffffff16815250505050610281565b60008060009054906101000a900473ffffffffffffffffffffffffffffffffffffffff169050816000806101000a81548173ffffffffffffffffffffffffffffffffffffffff021916908373ffffffffffffffffffffffffffffffffffffffff1602179055508173ffffffffffffffffffffffffffffffffffffffff168173ffffffffffffffffffffffffffffffffffffffff167f8be0079c531659141344cd1fd0a4f28419497f9722a3daafe3b4186f6b6457e060405160405180910390a35050565b600080fd5b600073ffffffffffffffffffffffffffffffffffffffff82169050919050565b60006101e4826101b9565b9050919050565b6101f4816101d9565b81146101ff57600080fd5b50565b600081519050610211816101eb565b92915050565b6000806040838503121561022e5761022d6101b4565b5b600061023c85828601610202565b925050602061024d85828601610202565b9150509250929050565b610260816101d9565b82525050565b600060208201905061027b6000830184610257565b92915050565b6080516154d96102aa6000396000818161077501528181611917015261392d01526154d96000f3fe608060405234801561001057600080fd5b50600436106101e55760003560e01c80637cb0ec7e1161010f578063cce8328c116100a2578063ea40504f11610071578063ea40504f146105d8578063f2fde38b146105f4578063f5e9ca0814610610578063f7f281ce14610642576101e5565b8063cce8328c1461052c578063cf7b3a441461055c578063d75f35671461058c578063da9a9089146105a8576101e5565b8063a37774bd116100de578063a37774bd14610480578063a7010d931461049c578063ab1205e9146104cc578063bc0167cd146104fc576101e5565b80637cb0ec7e1461040e5780637de182c51461042a5780638c247b2a146104465780638da5cb5b14610462576101e5565b8063262709e61161018757806352fcbcbf1161015657806352fcbcbf146103965780635aabf202146103b2578063715018a6146103e657806373b1222a146103f0576101e5565b8063262709e614610312578063366adc601461032e5780634066a7651461035e5780634ed4c5b01461037a576101e5565b8063126dbe43116101c3578063126dbe431461027a5780631557d2a6146102aa57806315a40f49146102c657806318536540146102f6576101e5565b80630c7b7748146101ea5780630d3b404f1461021a578063120aace61461024a575b600080fd5b61020460048036038101906101ff9190613f3c565b610672565b6040516102119190613faa565b60405180910390f35b610234600480360381019061022f9190613ff1565b6106a5565b604051610241919061404c565b60405180910390f35b610264600480360381019061025f9190614067565b6106d4565b6040516102719190614152565b60405180910390f35b610294600480360381019061028f9190613f3c565b61076b565b6040516102a1919061429c565b60405180910390f35b6102c460048036038101906102bf91906142be565b610819565b005b6102e060048036038101906102db9190613f3c565b610bc3565b6040516102ed91906143d4565b60405180910390f35b610310600480360381019061030b9190613ff1565b610c64565b005b61032c600480360381019061032791906143f6565b610c88565b005b61034860048036038101906103439190613f3c565b610e2b565b604051610355919061453a565b60405180910390f35b61037860048036038101906103739190613ff1565b611043565b005b610394600480360381019061038f919061455c565b61126b565b005b6103b060048036038101906103ab9190614738565b61173d565b005b6103cc60048036038101906103c7919061480a565b61187e565b6040516103dd959493929190614859565b60405180910390f35b6103ee611901565b005b6103f8611915565b6040516104059190613faa565b60405180910390f35b61042860048036038101906104239190613ff1565b611939565b005b610444600480360381019061043f91906143f6565b611ae1565b005b610460600480360381019061045b919061455c565b611bc2565b005b61046a611e9c565b6040516104779190613faa565b60405180910390f35b61049a6004803603810190610495919061480a565b611ec5565b005b6104b660048036038101906104b19190613ff1565b6120ce565b6040516104c3919061404c565b60405180910390f35b6104e660048036038101906104e19190613f3c565b612136565b6040516104f391906148ac565b60405180910390f35b6105166004803603810190610511919061480a565b612156565b60405161052391906148ac565b60405180910390f35b610546600480360381019061054191906148c7565b612187565b6040516105539190613faa565b60405180910390f35b6105766004803603810190610571919061480a565b6121d5565b604051610583919061496f565b60405180910390f35b6105a660048036038101906105a19190614a40565b61230a565b005b6105c260048036038101906105bd9190613f3c565b612710565b6040516105cf9190613faa565b60405180910390f35b6105f260048036038101906105ed91906142be565b61274d565b005b61060e60048036038101906106099190614067565b612aa2565b005b61062a60048036038101906106259190613ff1565b612b28565b60405161063993929190614ad5565b60405180910390f35b61065c60048036038101906106579190613ff1565b612b7f565b6040516106699190614b4e565b60405180910390f35b60026020528060005260406000206000915054906101000a900473ffffffffffffffffffffffffffffffffffffffff1681565b60056020528160005260406000206020528060005260406000206000915091509054906101000a900460ff1681565b6060600660008373ffffffffffffffffffffffffffffffffffffffff1673ffffffffffffffffffffffffffffffffffffffff16815260200190815260200160002080548060200260200160405190810160405280929190818152602001828054801561075f57602002820191906000526020600020905b81548152602001906001019080831161074b575b50505050509050919050565b610773613dfe565b7f000000000000000000000000000000000000000000000000000000000000000073ffffffffffffffffffffffffffffffffffffffff166332665ffb836040518263ffffffff1660e01b81526004016107cc91906148ac565b600060405180830381865afa1580156107e9573d6000803e3d6000fd5b505050506040513d6000823e3d601f19601f820116820180604052508101906108129190614cc9565b9050919050565b82846005600083815260200190815260200160002060008273ffffffffffffffffffffffffffffffffffffffff1673ffffffffffffffffffffffffffffffffffffffff16815260200190815260200160002060009054906101000a900460ff166108b8576040517f08c379a00000000000000000000000000000000000000000000000000000000081526004016108af90614d6f565b60405180910390fd5b6108c0611e9c565b73ffffffffffffffffffffffffffffffffffffffff163373ffffffffffffffffffffffffffffffffffffffff16148061092457508573ffffffffffffffffffffffffffffffffffffffff163373ffffffffffffffffffffffffffffffffffffffff16145b610963576040517f08c379a000000000000000000000000000000000000000000000000000000000815260040161095a90614ddb565b60405180910390fd5b8573ffffffffffffffffffffffffffffffffffffffff168373ffffffffffffffffffffffffffffffffffffffff166338350541866040518263ffffffff1660e01b81526004016109b391906148ac565b602060405180830381865afa1580156109d0573d6000803e3d6000fd5b505050506040513d601f19601f820116820180604052508101906109f49190614dfb565b73ffffffffffffffffffffffffffffffffffffffff1614610a4a576040517f08c379a0000000000000000000000000000000000000000000000000000000008152600401610a4190614e74565b60405180910390fd5b83600360008873ffffffffffffffffffffffffffffffffffffffff1673ffffffffffffffffffffffffffffffffffffffff168152602001908152602001600020600087815260200190815260200160002060020181905550848673ffffffffffffffffffffffffffffffffffffffff167f87647481c12b66c23d22b6734b51050f0f6e5b2af709e567489a3e473e12044086600360008b73ffffffffffffffffffffffffffffffffffffffff1673ffffffffffffffffffffffffffffffffffffffff16815260200190815260200160002060008a815260200190815260200160002060030154600360008c73ffffffffffffffffffffffffffffffffffffffff1673ffffffffffffffffffffffffffffffffffffffff16815260200190815260200160002060008b815260200190815260200160002060040160009054906101000a900473ffffffffffffffffffffffffffffffffffffffff16604051610bb393929190614e94565b60405180910390a3505050505050565b606060046000838152602001908152602001600020805480602002602001604051908101604052809291908181526020018280548015610c5857602002820191906000526020600020905b8160009054906101000a900473ffffffffffffffffffffffffffffffffffffffff1673ffffffffffffffffffffffffffffffffffffffff1681526020019060010190808311610c0e575b50505050509050919050565b610c6e8282612c54565b610c7a82826000612e42565b610c8482826130fe565b5050565b600073ffffffffffffffffffffffffffffffffffffffff168273ffffffffffffffffffffffffffffffffffffffff1603610cf7576040517f08c379a0000000000000000000000000000000000000000000000000000000008152600401610cee90614f17565b60405180910390fd5b60008273ffffffffffffffffffffffffffffffffffffffff166370a08231856040518263ffffffff1660e01b8152600401610d329190613faa565b602060405180830381865afa158015610d4f573d6000803e3d6000fd5b505050506040513d601f19601f82011682018060405250810190610d739190614f37565b905081811015610db8576040517f08c379a0000000000000000000000000000000000000000000000000000000008152600401610daf90614fb0565b60405180910390fd5b8273ffffffffffffffffffffffffffffffffffffffff166379cc679085846040518363ffffffff1660e01b8152600401610df3929190614fd0565b600060405180830381600087803b158015610e0d57600080fd5b505af1158015610e21573d6000803e3d6000fd5b5050505050505050565b6060600060046000848152602001908152602001600020805480602002602001604051908101604052809291908181526020018280548015610ec257602002820191906000526020600020905b8160009054906101000a900473ffffffffffffffffffffffffffffffffffffffff1673ffffffffffffffffffffffffffffffffffffffff1681526020019060010190808311610e78575b505050505090506000815167ffffffffffffffff811115610ee657610ee561460d565b5b604051908082528060200260200182016040528015610f1f57816020015b610f0c613e60565b815260200190600190039081610f045790505b50905060005b825181101561103857600160008681526020019081526020016000206000848381518110610f5657610f55614ff9565b5b602002602001015173ffffffffffffffffffffffffffffffffffffffff1673ffffffffffffffffffffffffffffffffffffffff1681526020019081526020016000206040518060600160405290816000820160009054906101000a900473ffffffffffffffffffffffffffffffffffffffff1673ffffffffffffffffffffffffffffffffffffffff1673ffffffffffffffffffffffffffffffffffffffff168152602001600182015481526020016002820154815250508282815181106110205761101f614ff9565b5b60200260200101819052508080600101915050610f25565b508092505050919050565b81816005600083815260200190815260200160002060008273ffffffffffffffffffffffffffffffffffffffff1673ffffffffffffffffffffffffffffffffffffffff16815260200190815260200160002060009054906101000a900460ff166110e2576040517f08c379a00000000000000000000000000000000000000000000000000000000081526004016110d990614d6f565b60405180910390fd5b6110ea611e9c565b73ffffffffffffffffffffffffffffffffffffffff163373ffffffffffffffffffffffffffffffffffffffff16148061114e57508273ffffffffffffffffffffffffffffffffffffffff163373ffffffffffffffffffffffffffffffffffffffff16145b61118d576040517f08c379a000000000000000000000000000000000000000000000000000000000815260040161118490614ddb565b60405180910390fd5b6001600085815260200190815260200160002060008473ffffffffffffffffffffffffffffffffffffffff1673ffffffffffffffffffffffffffffffffffffffff168152602001908152602001600020600080820160006101000a81549073ffffffffffffffffffffffffffffffffffffffff0219169055600182016000905560028201600090555050611221848461331b565b8273ffffffffffffffffffffffffffffffffffffffff16847fd0fc34423e42892f3ede9e76219ff22569925f08fd41017ecef6652484f93cbb60405160405180910390a350505050565b600073ffffffffffffffffffffffffffffffffffffffff168473ffffffffffffffffffffffffffffffffffffffff16141580156112d55750600073ffffffffffffffffffffffffffffffffffffffff168373ffffffffffffffffffffffffffffffffffffffff1614155b801561130e5750600073ffffffffffffffffffffffffffffffffffffffff168273ffffffffffffffffffffffffffffffffffffffff1614155b80156113475750600073ffffffffffffffffffffffffffffffffffffffff168173ffffffffffffffffffffffffffffffffffffffff1614155b611386576040517f08c379a000000000000000000000000000000000000000000000000000000000815260040161137d90614f17565b60405180910390fd5b60008473ffffffffffffffffffffffffffffffffffffffff166370a08231876040518263ffffffff1660e01b81526004016113c19190613faa565b602060405180830381865afa1580156113de573d6000803e3d6000fd5b505050506040513d601f19601f820116820180604052508101906114029190614f37565b905060008473ffffffffffffffffffffffffffffffffffffffff166370a08231886040518263ffffffff1660e01b815260040161143f9190613faa565b602060405180830381865afa15801561145c573d6000803e3d6000fd5b505050506040513d601f19601f820116820180604052508101906114809190614f37565b905060008473ffffffffffffffffffffffffffffffffffffffff166370a08231896040518263ffffffff1660e01b81526004016114bd9190613faa565b602060405180830381865afa1580156114da573d6000803e3d6000fd5b505050506040513d601f19601f820116820180604052508101906114fe9190614f37565b905060008473ffffffffffffffffffffffffffffffffffffffff166370a082318a6040518263ffffffff1660e01b815260040161153b9190613faa565b602060405180830381865afa158015611558573d6000803e3d6000fd5b505050506040513d601f19601f8201168201806040525081019061157c9190614f37565b90508773ffffffffffffffffffffffffffffffffffffffff166379cc67908a866040518363ffffffff1660e01b81526004016115b9929190614fd0565b600060405180830381600087803b1580156115d357600080fd5b505af11580156115e7573d6000803e3d6000fd5b505050508673ffffffffffffffffffffffffffffffffffffffff166379cc67908a856040518363ffffffff1660e01b8152600401611626929190614fd0565b600060405180830381600087803b15801561164057600080fd5b505af1158015611654573d6000803e3d6000fd5b505050508573ffffffffffffffffffffffffffffffffffffffff166379cc67908a846040518363ffffffff1660e01b8152600401611693929190614fd0565b600060405180830381600087803b1580156116ad57600080fd5b505af11580156116c1573d6000803e3d6000fd5b505050508473ffffffffffffffffffffffffffffffffffffffff166379cc67908a836040518363ffffffff1660e01b8152600401611700929190614fd0565b600060405180830381600087803b15801561171a57600080fd5b505af115801561172e573d6000803e3d6000fd5b50505050505050505050505050565b6005600089815260200190815260200160002060008873ffffffffffffffffffffffffffffffffffffffff1673ffffffffffffffffffffffffffffffffffffffff16815260200190815260200160002060009054906101000a900460ff166117da576040517f08c379a00000000000000000000000000000000000000000000000000000000081526004016117d190614d6f565b60405180910390fd5b6000600160008a815260200190815260200160002060008973ffffffffffffffffffffffffffffffffffffffff1673ffffffffffffffffffffffffffffffffffffffff168152602001908152602001600020600201549050600087826118409190615057565b905061184d8a8a83613685565b86156118675761186289878388888f8961387d565b611872565b6118718a846130fe565b5b50505050505050505050565b6003602052816000526040600020602052806000526040600020600091509150508060000160009054906101000a900473ffffffffffffffffffffffffffffffffffffffff16908060010154908060020154908060030154908060040160009054906101000a900473ffffffffffffffffffffffffffffffffffffffff16905085565b6119096139f0565b6119136000613a77565b565b7f000000000000000000000000000000000000000000000000000000000000000081565b80600073ffffffffffffffffffffffffffffffffffffffff168173ffffffffffffffffffffffffffffffffffffffff16036119a9576040517f08c379a00000000000000000000000000000000000000000000000000000000081526004016119a0906150d7565b60405180910390fd5b6005600084815260200190815260200160002060008373ffffffffffffffffffffffffffffffffffffffff1673ffffffffffffffffffffffffffffffffffffffff16815260200190815260200160002060009054906101000a900460ff16611a46576040517f08c379a0000000000000000000000000000000000000000000000000000000008152600401611a3d90614d6f565b60405180910390fd5b816002600085815260200190815260200160002060006101000a81548173ffffffffffffffffffffffffffffffffffffffff021916908373ffffffffffffffffffffffffffffffffffffffff1602179055508173ffffffffffffffffffffffffffffffffffffffff16837f900138382a21b9499837672ce8cc6a4843799e62bcb2aa9880dda802a9a6903560405160405180910390a3505050565b600073ffffffffffffffffffffffffffffffffffffffff168273ffffffffffffffffffffffffffffffffffffffff1603611b50576040517f08c379a0000000000000000000000000000000000000000000000000000000008152600401611b4790614f17565b60405180910390fd5b8173ffffffffffffffffffffffffffffffffffffffff166340c10f1984836040518363ffffffff1660e01b8152600401611b8b929190614fd0565b600060405180830381600087803b158015611ba557600080fd5b505af1158015611bb9573d6000803e3d6000fd5b50505050505050565b600073ffffffffffffffffffffffffffffffffffffffff168473ffffffffffffffffffffffffffffffffffffffff1614158015611c2c5750600073ffffffffffffffffffffffffffffffffffffffff168373ffffffffffffffffffffffffffffffffffffffff1614155b8015611c655750600073ffffffffffffffffffffffffffffffffffffffff168273ffffffffffffffffffffffffffffffffffffffff1614155b8015611c9e5750600073ffffffffffffffffffffffffffffffffffffffff168173ffffffffffffffffffffffffffffffffffffffff1614155b611cdd576040517f08c379a0000000000000000000000000000000000000000000000000000000008152600401611cd490614f17565b60405180910390fd5b8373ffffffffffffffffffffffffffffffffffffffff166340c10f198660646040518363ffffffff1660e01b8152600401611d1992919061513c565b600060405180830381600087803b158015611d3357600080fd5b505af1158015611d47573d6000803e3d6000fd5b505050508273ffffffffffffffffffffffffffffffffffffffff166340c10f198660646040518363ffffffff1660e01b8152600401611d8792919061513c565b600060405180830381600087803b158015611da157600080fd5b505af1158015611db5573d6000803e3d6000fd5b505050508173ffffffffffffffffffffffffffffffffffffffff166340c10f198660646040518363ffffffff1660e01b8152600401611df592919061513c565b600060405180830381600087803b158015611e0f57600080fd5b505af1158015611e23573d6000803e3d6000fd5b505050508073ffffffffffffffffffffffffffffffffffffffff166340c10f198660646040518363ffffffff1660e01b8152600401611e6392919061513c565b600060405180830381600087803b158015611e7d57600080fd5b505af1158015611e91573d6000803e3d6000fd5b505050505050505050565b60008060009054906101000a900473ffffffffffffffffffffffffffffffffffffffff16905090565b80826005600083815260200190815260200160002060008273ffffffffffffffffffffffffffffffffffffffff1673ffffffffffffffffffffffffffffffffffffffff16815260200190815260200160002060009054906101000a900460ff16611f64576040517f08c379a0000000000000000000000000000000000000000000000000000000008152600401611f5b90614d6f565b60405180910390fd5b611f6c611e9c565b73ffffffffffffffffffffffffffffffffffffffff163373ffffffffffffffffffffffffffffffffffffffff161480611fd057508373ffffffffffffffffffffffffffffffffffffffff163373ffffffffffffffffffffffffffffffffffffffff16145b61200f576040517f08c379a000000000000000000000000000000000000000000000000000000000815260040161200690614ddb565b60405180910390fd5b600360008573ffffffffffffffffffffffffffffffffffffffff1673ffffffffffffffffffffffffffffffffffffffff1681526020019081526020016000206000848152602001908152602001600020600080820160006101000a81549073ffffffffffffffffffffffffffffffffffffffff02191690556001820160009055600282016000905560038201600090556004820160006101000a81549073ffffffffffffffffffffffffffffffffffffffff0219169055505050505050565b60006005600084815260200190815260200160002060008373ffffffffffffffffffffffffffffffffffffffff1673ffffffffffffffffffffffffffffffffffffffff16815260200190815260200160002060009054906101000a900460ff16905092915050565b600060046000838152602001908152602001600020805490509050919050565b6006602052816000526040600020818154811061217257600080fd5b90600052602060002001600091509150505481565b600460205281600052604060002081815481106121a357600080fd5b906000526020600020016000915091509054906101000a900473ffffffffffffffffffffffffffffffffffffffff1681565b6121dd613e97565b600360008473ffffffffffffffffffffffffffffffffffffffff1673ffffffffffffffffffffffffffffffffffffffff16815260200190815260200160002060008381526020019081526020016000206040518060a00160405290816000820160009054906101000a900473ffffffffffffffffffffffffffffffffffffffff1673ffffffffffffffffffffffffffffffffffffffff1673ffffffffffffffffffffffffffffffffffffffff1681526020016001820154815260200160028201548152602001600382015481526020016004820160009054906101000a900473ffffffffffffffffffffffffffffffffffffffff1673ffffffffffffffffffffffffffffffffffffffff1673ffffffffffffffffffffffffffffffffffffffff1681525050905092915050565b612312611e9c565b73ffffffffffffffffffffffffffffffffffffffff163373ffffffffffffffffffffffffffffffffffffffff161461237f576040517f08c379a0000000000000000000000000000000000000000000000000000000008152600401612376906151d7565b60405180910390fd5b8181905084849050146123c7576040517f08c379a00000000000000000000000000000000000000000000000000000000081526004016123be90615243565b60405180910390fd5b60005b8484905081101561270857600073ffffffffffffffffffffffffffffffffffffffff16858583818110612400576123ff614ff9565b5b90506020020160208101906124159190614067565b73ffffffffffffffffffffffffffffffffffffffff160361246b576040517f08c379a0000000000000000000000000000000000000000000000000000000008152600401612462906150d7565b60405180910390fd5b60056000878152602001908152602001600020600086868481811061249357612492614ff9565b5b90506020020160208101906124a89190614067565b73ffffffffffffffffffffffffffffffffffffffff1673ffffffffffffffffffffffffffffffffffffffff16815260200190815260200160002060009054906101000a900460ff16612526576125258686868481811061250b5761250a614ff9565b5b90506020020160208101906125209190614067565b612c54565b5b604051806060016040528086868481811061254457612543614ff9565b5b90506020020160208101906125599190614067565b73ffffffffffffffffffffffffffffffffffffffff16815260200187815260200184848481811061258d5761258c614ff9565b5b905060200201358152506001600088815260200190815260200160002060008787858181106125bf576125be614ff9565b5b90506020020160208101906125d49190614067565b73ffffffffffffffffffffffffffffffffffffffff1673ffffffffffffffffffffffffffffffffffffffff16815260200190815260200160002060008201518160000160006101000a81548173ffffffffffffffffffffffffffffffffffffffff021916908373ffffffffffffffffffffffffffffffffffffffff160217905550602082015181600101556040820151816002015590505084848281811061267f5761267e614ff9565b5b90506020020160208101906126949190614067565b73ffffffffffffffffffffffffffffffffffffffff16867fca15e30f8364a782f08c5f2fbc1d498daca1910d21d967d8b23ba8b596452c1a8585858181106126df576126de614ff9565b5b905060200201356040516126f391906148ac565b60405180910390a380806001019150506123ca565b505050505050565b60006002600083815260200190815260200160002060009054906101000a900473ffffffffffffffffffffffffffffffffffffffff169050919050565b82846005600083815260200190815260200160002060008273ffffffffffffffffffffffffffffffffffffffff1673ffffffffffffffffffffffffffffffffffffffff16815260200190815260200160002060009054906101000a900460ff166127ec576040517f08c379a00000000000000000000000000000000000000000000000000000000081526004016127e390614d6f565b60405180910390fd5b6127f4611e9c565b73ffffffffffffffffffffffffffffffffffffffff163373ffffffffffffffffffffffffffffffffffffffff16148061285857508573ffffffffffffffffffffffffffffffffffffffff163373ffffffffffffffffffffffffffffffffffffffff16145b612897576040517f08c379a000000000000000000000000000000000000000000000000000000000815260040161288e90614ddb565b60405180910390fd5b83600360008873ffffffffffffffffffffffffffffffffffffffff1673ffffffffffffffffffffffffffffffffffffffff16815260200190815260200160002060008781526020019081526020016000206003018190555082600360008873ffffffffffffffffffffffffffffffffffffffff1673ffffffffffffffffffffffffffffffffffffffff168152602001908152602001600020600087815260200190815260200160002060040160006101000a81548173ffffffffffffffffffffffffffffffffffffffff021916908373ffffffffffffffffffffffffffffffffffffffff160217905550848673ffffffffffffffffffffffffffffffffffffffff167f87647481c12b66c23d22b6734b51050f0f6e5b2af709e567489a3e473e120440600360008a73ffffffffffffffffffffffffffffffffffffffff1673ffffffffffffffffffffffffffffffffffffffff16815260200190815260200160002060008981526020019081526020016000206002015487600360008c73ffffffffffffffffffffffffffffffffffffffff1673ffffffffffffffffffffffffffffffffffffffff16815260200190815260200160002060008b815260200190815260200160002060040160009054906101000a900473ffffffffffffffffffffffffffffffffffffffff16604051612a9293929190614e94565b60405180910390a3505050505050565b612aaa6139f0565b600073ffffffffffffffffffffffffffffffffffffffff168173ffffffffffffffffffffffffffffffffffffffff1603612b1c5760006040517f1e4fbdf7000000000000000000000000000000000000000000000000000000008152600401612b139190613faa565b60405180910390fd5b612b2581613a77565b50565b6001602052816000526040600020602052806000526040600020600091509150508060000160009054906101000a900473ffffffffffffffffffffffffffffffffffffffff16908060010154908060020154905083565b612b87613e60565b6001600084815260200190815260200160002060008373ffffffffffffffffffffffffffffffffffffffff1673ffffffffffffffffffffffffffffffffffffffff1681526020019081526020016000206040518060600160405290816000820160009054906101000a900473ffffffffffffffffffffffffffffffffffffffff1673ffffffffffffffffffffffffffffffffffffffff1673ffffffffffffffffffffffffffffffffffffffff16815260200160018201548152602001600282015481525050905092915050565b6005600083815260200190815260200160002060008273ffffffffffffffffffffffffffffffffffffffff1673ffffffffffffffffffffffffffffffffffffffff16815260200190815260200160002060009054906101000a900460ff16612e3e5760046000838152602001908152602001600020819080600181540180825580915050600190039060005260206000200160009091909190916101000a81548173ffffffffffffffffffffffffffffffffffffffff021916908373ffffffffffffffffffffffffffffffffffffffff16021790555060016005600084815260200190815260200160002060008373ffffffffffffffffffffffffffffffffffffffff1673ffffffffffffffffffffffffffffffffffffffff16815260200190815260200160002060006101000a81548160ff021916908315150217905550600660008273ffffffffffffffffffffffffffffffffffffffff1673ffffffffffffffffffffffffffffffffffffffff1681526020019081526020016000208290806001815401808255809150506001900390600052602060002001600090919091909150558073ffffffffffffffffffffffffffffffffffffffff16827fe52d81459d9994c73740ea14247d27531f0f00be7c54bc1b8b759df2feda9fe760405160405180910390a35b5050565b81600073ffffffffffffffffffffffffffffffffffffffff168173ffffffffffffffffffffffffffffffffffffffff1603612eb2576040517f08c379a0000000000000000000000000000000000000000000000000000000008152600401612ea9906150d7565b60405180910390fd5b612eba611e9c565b73ffffffffffffffffffffffffffffffffffffffff163373ffffffffffffffffffffffffffffffffffffffff161480612f1e57508273ffffffffffffffffffffffffffffffffffffffff163373ffffffffffffffffffffffffffffffffffffffff16145b612f5d576040517f08c379a0000000000000000000000000000000000000000000000000000000008152600401612f5490614ddb565b60405180910390fd5b6005600085815260200190815260200160002060008473ffffffffffffffffffffffffffffffffffffffff1673ffffffffffffffffffffffffffffffffffffffff16815260200190815260200160002060009054906101000a900460ff16612fca57612fc98484612c54565b5b60405180606001604052808473ffffffffffffffffffffffffffffffffffffffff168152602001858152602001838152506001600086815260200190815260200160002060008573ffffffffffffffffffffffffffffffffffffffff1673ffffffffffffffffffffffffffffffffffffffff16815260200190815260200160002060008201518160000160006101000a81548173ffffffffffffffffffffffffffffffffffffffff021916908373ffffffffffffffffffffffffffffffffffffffff16021790555060208201518160010155604082015181600201559050508273ffffffffffffffffffffffffffffffffffffffff16847fca15e30f8364a782f08c5f2fbc1d498daca1910d21d967d8b23ba8b596452c1a846040516130f091906148ac565b60405180910390a350505050565b80600073ffffffffffffffffffffffffffffffffffffffff168173ffffffffffffffffffffffffffffffffffffffff160361316e576040517f08c379a0000000000000000000000000000000000000000000000000000000008152600401613165906150d7565b60405180910390fd5b613176611e9c565b73ffffffffffffffffffffffffffffffffffffffff163373ffffffffffffffffffffffffffffffffffffffff16146131e3576040517f08c379a00000000000000000000000000000000000000000000000000000000081526004016131da906152af565b60405180910390fd5b6005600084815260200190815260200160002060008373ffffffffffffffffffffffffffffffffffffffff1673ffffffffffffffffffffffffffffffffffffffff16815260200190815260200160002060009054906101000a900460ff16613280576040517f08c379a000000000000000000000000000000000000000000000000000000000815260040161327790614d6f565b60405180910390fd5b816002600085815260200190815260200160002060006101000a81548173ffffffffffffffffffffffffffffffffffffffff021916908373ffffffffffffffffffffffffffffffffffffffff1602179055508173ffffffffffffffffffffffffffffffffffffffff16837f900138382a21b9499837672ce8cc6a4843799e62bcb2aa9880dda802a9a6903560405160405180910390a3505050565b6005600083815260200190815260200160002060008273ffffffffffffffffffffffffffffffffffffffff1673ffffffffffffffffffffffffffffffffffffffff16815260200190815260200160002060009054906101000a900460ff16156136815760006005600084815260200190815260200160002060008373ffffffffffffffffffffffffffffffffffffffff1673ffffffffffffffffffffffffffffffffffffffff16815260200190815260200160002060006101000a81548160ff021916908315150217905550600060046000848152602001908152602001600020905060005b818054905081101561357e578273ffffffffffffffffffffffffffffffffffffffff1682828154811061343757613436614ff9565b5b9060005260206000200160009054906101000a900473ffffffffffffffffffffffffffffffffffffffff1673ffffffffffffffffffffffffffffffffffffffff160361357157816001838054905061348f91906152cf565b815481106134a05761349f614ff9565b5b9060005260206000200160009054906101000a900473ffffffffffffffffffffffffffffffffffffffff168282815481106134de576134dd614ff9565b5b9060005260206000200160006101000a81548173ffffffffffffffffffffffffffffffffffffffff021916908373ffffffffffffffffffffffffffffffffffffffff1602179055508180548061353757613536615303565b5b6001900381819060005260206000200160006101000a81549073ffffffffffffffffffffffffffffffffffffffff0219169055905561357e565b8080600101915050613401565b506000600660008473ffffffffffffffffffffffffffffffffffffffff1673ffffffffffffffffffffffffffffffffffffffff168152602001908152602001600020905060005b818054905081101561367d57848282815481106135e5576135e4614ff9565b5b90600052602060002001540361367057816001838054905061360791906152cf565b8154811061361857613617614ff9565b5b906000526020600020015482828154811061363657613635614ff9565b5b90600052602060002001819055508180548061365557613654615303565b5b6001900381819060005260206000200160009055905561367d565b80806001019150506135c5565b5050505b5050565b82826005600083815260200190815260200160002060008273ffffffffffffffffffffffffffffffffffffffff1673ffffffffffffffffffffffffffffffffffffffff16815260200190815260200160002060009054906101000a900460ff16613724576040517f08c379a000000000000000000000000000000000000000000000000000000000815260040161371b90614d6f565b60405180910390fd5b61372c611e9c565b73ffffffffffffffffffffffffffffffffffffffff163373ffffffffffffffffffffffffffffffffffffffff16148061379057508373ffffffffffffffffffffffffffffffffffffffff163373ffffffffffffffffffffffffffffffffffffffff16145b6137cf576040517f08c379a00000000000000000000000000000000000000000000000000000000081526004016137c690614ddb565b60405180910390fd5b826001600087815260200190815260200160002060008673ffffffffffffffffffffffffffffffffffffffff1673ffffffffffffffffffffffffffffffffffffffff168152602001908152602001600020600201819055508373ffffffffffffffffffffffffffffffffffffffff16857fca15e30f8364a782f08c5f2fbc1d498daca1910d21d967d8b23ba8b596452c1a8560405161386e91906148ac565b60405180910390a35050505050565b8673ffffffffffffffffffffffffffffffffffffffff166002600084815260200190815260200160002060009054906101000a900473ffffffffffffffffffffffffffffffffffffffff1673ffffffffffffffffffffffffffffffffffffffff161461391e576040517f08c379a00000000000000000000000000000000000000000000000000000000081526004016139159061537e565b60405180910390fd5b613929878585610c88565b60007f000000000000000000000000000000000000000000000000000000000000000073ffffffffffffffffffffffffffffffffffffffff16635d94337f89898989896040518663ffffffff1660e01b815260040161398c9594939291906153d7565b6020604051808303816000875af11580156139ab573d6000803e3d6000fd5b505050506040513d601f19601f820116820180604052508101906139cf9190614f37565b90506139dc888483613b3b565b6139e683836130fe565b5050505050505050565b6139f8613df6565b73ffffffffffffffffffffffffffffffffffffffff16613a16611e9c565b73ffffffffffffffffffffffffffffffffffffffff1614613a7557613a39613df6565b6040517f118cdaa7000000000000000000000000000000000000000000000000000000008152600401613a6c9190613faa565b60405180910390fd5b565b60008060009054906101000a900473ffffffffffffffffffffffffffffffffffffffff169050816000806101000a81548173ffffffffffffffffffffffffffffffffffffffff021916908373ffffffffffffffffffffffffffffffffffffffff1602179055508173ffffffffffffffffffffffffffffffffffffffff168173ffffffffffffffffffffffffffffffffffffffff167f8be0079c531659141344cd1fd0a4f28419497f9722a3daafe3b4186f6b6457e060405160405180910390a35050565b82600073ffffffffffffffffffffffffffffffffffffffff168173ffffffffffffffffffffffffffffffffffffffff1603613bab576040517f08c379a0000000000000000000000000000000000000000000000000000000008152600401613ba2906150d7565b60405180910390fd5b6005600084815260200190815260200160002060008573ffffffffffffffffffffffffffffffffffffffff1673ffffffffffffffffffffffffffffffffffffffff16815260200190815260200160002060009054906101000a900460ff16613c48576040517f08c379a0000000000000000000000000000000000000000000000000000000008152600401613c3f90614d6f565b60405180910390fd5b6040518060a001604052808573ffffffffffffffffffffffffffffffffffffffff16815260200184815260200183815260200160008152602001600073ffffffffffffffffffffffffffffffffffffffff16815250600360008673ffffffffffffffffffffffffffffffffffffffff1673ffffffffffffffffffffffffffffffffffffffff168152602001908152602001600020600085815260200190815260200160002060008201518160000160006101000a81548173ffffffffffffffffffffffffffffffffffffffff021916908373ffffffffffffffffffffffffffffffffffffffff16021790555060208201518160010155604082015181600201556060820151816003015560808201518160040160006101000a81548173ffffffffffffffffffffffffffffffffffffffff021916908373ffffffffffffffffffffffffffffffffffffffff160217905550905050828473ffffffffffffffffffffffffffffffffffffffff167f87647481c12b66c23d22b6734b51050f0f6e5b2af709e567489a3e473e12044084600080604051613de89392919061546c565b60405180910390a350505050565b600033905090565b6040518060c00160405280600073ffffffffffffffffffffffffffffffffffffffff1681526020016060815260200160008152602001600073ffffffffffffffffffffffffffffffffffffffff16815260200160008152602001600081525090565b6040518060600160405280600073ffffffffffffffffffffffffffffffffffffffff16815260200160008152602001600081525090565b6040518060a00160405280600073ffffffffffffffffffffffffffffffffffffffff168152602001600081526020016000815260200160008152602001600073ffffffffffffffffffffffffffffffffffffffff1681525090565b6000604051905090565b600080fd5b600080fd5b6000819050919050565b613f1981613f06565b8114613f2457600080fd5b50565b600081359050613f3681613f10565b92915050565b600060208284031215613f5257613f51613efc565b5b6000613f6084828501613f27565b91505092915050565b600073ffffffffffffffffffffffffffffffffffffffff82169050919050565b6000613f9482613f69565b9050919050565b613fa481613f89565b82525050565b6000602082019050613fbf6000830184613f9b565b92915050565b613fce81613f89565b8114613fd957600080fd5b50565b600081359050613feb81613fc5565b92915050565b6000806040838503121561400857614007613efc565b5b600061401685828601613f27565b925050602061402785828601613fdc565b9150509250929050565b60008115159050919050565b61404681614031565b82525050565b6000602082019050614061600083018461403d565b92915050565b60006020828403121561407d5761407c613efc565b5b600061408b84828501613fdc565b91505092915050565b600081519050919050565b600082825260208201905092915050565b6000819050602082019050919050565b6140c981613f06565b82525050565b60006140db83836140c0565b60208301905092915050565b6000602082019050919050565b60006140ff82614094565b614109818561409f565b9350614114836140b0565b8060005b8381101561414557815161412c88826140cf565b9750614137836140e7565b925050600181019050614118565b5085935050505092915050565b6000602082019050818103600083015261416c81846140f4565b905092915050565b61417d81613f89565b82525050565b600081519050919050565b600082825260208201905092915050565b60005b838110156141bd5780820151818401526020810190506141a2565b60008484015250505050565b6000601f19601f8301169050919050565b60006141e582614183565b6141ef818561418e565b93506141ff81856020860161419f565b614208816141c9565b840191505092915050565b600060c08301600083015161422b6000860182614174565b506020830151848203602086015261424382826141da565b915050604083015161425860408601826140c0565b50606083015161426b6060860182614174565b50608083015161427e60808601826140c0565b5060a083015161429160a08601826140c0565b508091505092915050565b600060208201905081810360008301526142b68184614213565b905092915050565b600080600080608085870312156142d8576142d7613efc565b5b60006142e687828801613fdc565b94505060206142f787828801613f27565b935050604061430887828801613f27565b925050606061431987828801613fdc565b91505092959194509250565b600081519050919050565b600082825260208201905092915050565b6000819050602082019050919050565b600061435d8383614174565b60208301905092915050565b6000602082019050919050565b600061438182614325565b61438b8185614330565b935061439683614341565b8060005b838110156143c75781516143ae8882614351565b97506143b983614369565b92505060018101905061439a565b5085935050505092915050565b600060208201905081810360008301526143ee8184614376565b905092915050565b60008060006060848603121561440f5761440e613efc565b5b600061441d86828701613fdc565b935050602061442e86828701613fdc565b925050604061443f86828701613f27565b9150509250925092565b600081519050919050565b600082825260208201905092915050565b6000819050602082019050919050565b60608201600082015161448b6000850182614174565b50602082015161449e60208501826140c0565b5060408201516144b160408501826140c0565b50505050565b60006144c38383614475565b60608301905092915050565b6000602082019050919050565b60006144e782614449565b6144f18185614454565b93506144fc83614465565b8060005b8381101561452d57815161451488826144b7565b975061451f836144cf565b925050600181019050614500565b5085935050505092915050565b6000602082019050818103600083015261455481846144dc565b905092915050565b600080600080600060a0868803121561457857614577613efc565b5b600061458688828901613fdc565b955050602061459788828901613fdc565b94505060406145a888828901613fdc565b93505060606145b988828901613fdc565b92505060806145ca88828901613fdc565b9150509295509295909350565b6145e081614031565b81146145eb57600080fd5b50565b6000813590506145fd816145d7565b92915050565b600080fd5b600080fd5b7f4e487b7100000000000000000000000000000000000000000000000000000000600052604160045260246000fd5b614645826141c9565b810181811067ffffffffffffffff821117156146645761466361460d565b5b80604052505050565b6000614677613ef2565b9050614683828261463c565b919050565b600067ffffffffffffffff8211156146a3576146a261460d565b5b6146ac826141c9565b9050602081019050919050565b82818337600083830152505050565b60006146db6146d684614688565b61466d565b9050828152602081018484840111156146f7576146f6614608565b5b6147028482856146b9565b509392505050565b600082601f83011261471f5761471e614603565b5b813561472f8482602086016146c8565b91505092915050565b600080600080600080600080610100898b03121561475957614758613efc565b5b60006147678b828c01613f27565b98505060206147788b828c01613fdc565b97505060406147898b828c01613f27565b965050606061479a8b828c016145ee565b955050608089013567ffffffffffffffff8111156147bb576147ba613f01565b5b6147c78b828c0161470a565b94505060a06147d88b828c01613fdc565b93505060c06147e98b828c01613f27565b92505060e06147fa8b828c01613fdc565b9150509295985092959890939650565b6000806040838503121561482157614820613efc565b5b600061482f85828601613fdc565b925050602061484085828601613f27565b9150509250929050565b61485381613f06565b82525050565b600060a08201905061486e6000830188613f9b565b61487b602083018761484a565b614888604083018661484a565b614895606083018561484a565b6148a26080830184613f9b565b9695505050505050565b60006020820190506148c1600083018461484a565b92915050565b600080604083850312156148de576148dd613efc565b5b60006148ec85828601613f27565b92505060206148fd85828601613f27565b9150509250929050565b60a08201600082015161491d6000850182614174565b50602082015161493060208501826140c0565b50604082015161494360408501826140c0565b50606082015161495660608501826140c0565b5060808201516149696080850182614174565b50505050565b600060a0820190506149846000830184614907565b92915050565b600080fd5b600080fd5b60008083601f8401126149aa576149a9614603565b5b8235905067ffffffffffffffff8111156149c7576149c661498a565b5b6020830191508360208202830111156149e3576149e261498f565b5b9250929050565b60008083601f840112614a00576149ff614603565b5b8235905067ffffffffffffffff811115614a1d57614a1c61498a565b5b602083019150836020820283011115614a3957614a3861498f565b5b9250929050565b600080600080600060608688031215614a5c57614a5b613efc565b5b6000614a6a88828901613f27565b955050602086013567ffffffffffffffff811115614a8b57614a8a613f01565b5b614a9788828901614994565b9450945050604086013567ffffffffffffffff811115614aba57614ab9613f01565b5b614ac6888289016149ea565b92509250509295509295909350565b6000606082019050614aea6000830186613f9b565b614af7602083018561484a565b614b04604083018461484a565b949350505050565b606082016000820151614b226000850182614174565b506020820151614b3560208501826140c0565b506040820151614b4860408501826140c0565b50505050565b6000606082019050614b636000830184614b0c565b92915050565b600080fd5b600080fd5b600081519050614b8281613fc5565b92915050565b6000614b9b614b9684614688565b61466d565b905082815260208101848484011115614bb757614bb6614608565b5b614bc284828561419f565b509392505050565b600082601f830112614bdf57614bde614603565b5b8151614bef848260208601614b88565b91505092915050565b600081519050614c0781613f10565b92915050565b600060c08284031215614c2357614c22614b69565b5b614c2d60c061466d565b90506000614c3d84828501614b73565b600083015250602082015167ffffffffffffffff811115614c6157614c60614b6e565b5b614c6d84828501614bca565b6020830152506040614c8184828501614bf8565b6040830152506060614c9584828501614b73565b6060830152506080614ca984828501614bf8565b60808301525060a0614cbd84828501614bf8565b60a08301525092915050565b600060208284031215614cdf57614cde613efc565b5b600082015167ffffffffffffffff811115614cfd57614cfc613f01565b5b614d0984828501614c0d565b91505092915050565b600082825260208201905092915050565b7f506c61796572206e6f7420696e2067616d650000000000000000000000000000600082015250565b6000614d59601283614d12565b9150614d6482614d23565b602082019050919050565b60006020820190508181036000830152614d8881614d4c565b9050919050565b7f556e617574686f72697a65640000000000000000000000000000000000000000600082015250565b6000614dc5600c83614d12565b9150614dd082614d8f565b602082019050919050565b60006020820190508181036000830152614df481614db8565b9050919050565b600060208284031215614e1157614e10613efc565b5b6000614e1f84828501614b73565b91505092915050565b7f5573657220646f6573206e6f74206f776e204e46540000000000000000000000600082015250565b6000614e5e601583614d12565b9150614e6982614e28565b602082019050919050565b60006020820190508181036000830152614e8d81614e51565b9050919050565b6000606082019050614ea9600083018661484a565b614eb6602083018561484a565b614ec36040830184613f9b565b949350505050565b7f496e76616c696420746f6b656e20616464726573730000000000000000000000600082015250565b6000614f01601583614d12565b9150614f0c82614ecb565b602082019050919050565b60006020820190508181036000830152614f3081614ef4565b9050919050565b600060208284031215614f4d57614f4c613efc565b5b6000614f5b84828501614bf8565b91505092915050565b7f496e73756666696369656e742062616c616e6365000000000000000000000000600082015250565b6000614f9a601483614d12565b9150614fa582614f64565b602082019050919050565b60006020820190508181036000830152614fc981614f8d565b9050919050565b6000604082019050614fe56000830185613f9b565b614ff2602083018461484a565b9392505050565b7f4e487b7100000000000000000000000000000000000000000000000000000000600052603260045260246000fd5b7f4e487b7100000000000000000000000000000000000000000000000000000000600052601160045260246000fd5b600061506282613f06565b915061506d83613f06565b925082820190508082111561508557615084615028565b5b92915050565b7f496e76616c696420616464726573730000000000000000000000000000000000600082015250565b60006150c1600f83614d12565b91506150cc8261508b565b602082019050919050565b600060208201905081810360008301526150f0816150b4565b9050919050565b6000819050919050565b6000819050919050565b600061512661512161511c846150f7565b615101565b613f06565b9050919050565b6151368161510b565b82525050565b60006040820190506151516000830185613f9b565b61515e602083018461512d565b9392505050565b7f4f6e6c79206f776e65722063616e2062617463682073657420706f736974696f60008201527f6e73000000000000000000000000000000000000000000000000000000000000602082015250565b60006151c1602283614d12565b91506151cc82615165565b604082019050919050565b600060208201905081810360008301526151f0816151b4565b9050919050565b7f417272617973206c656e677468206d69736d6174636800000000000000000000600082015250565b600061522d601683614d12565b9150615238826151f7565b602082019050919050565b6000602082019050818103600083015261525c81615220565b9050919050565b7f4f6e6c79206f776e65722063616e20736574207475726e730000000000000000600082015250565b6000615299601883614d12565b91506152a482615263565b602082019050919050565b600060208201905081810360008301526152c88161528c565b9050919050565b60006152da82613f06565b91506152e583613f06565b92508282039050818111156152fd576152fc615028565b5b92915050565b7f4e487b7100000000000000000000000000000000000000000000000000000000600052603160045260246000fd5b7f4e6f7420796f7572207475726e00000000000000000000000000000000000000600082015250565b6000615368600d83614d12565b915061537382615332565b602082019050919050565b600060208201905081810360008301526153978161535b565b9050919050565b60006153a982614183565b6153b38185614d12565b93506153c381856020860161419f565b6153cc816141c9565b840191505092915050565b600060a0820190506153ec6000830188613f9b565b81810360208301526153fe818761539e565b905061540d604083018661484a565b61541a6060830185613f9b565b615427608083018461484a565b9695505050505050565b6000819050919050565b600061545661545161544c84615431565b615101565b613f06565b9050919050565b6154668161543b565b82525050565b6000606082019050615481600083018661484a565b61548e602083018561545d565b61549b6040830184613f9b565b94935050505056fea2646970667358221220c62e9aef7d34d055c1836abcf0d4e54455ae9efd4891ac42e863d416f11cb8f964736f6c634300081c0033",
  "linkReferences": {},
  "deployedLinkReferences": {}
}