{
  "_format": "hh-sol-artifact-1",
  "contractName": "PropertyNFT",
  "sourceName": "contracts/PropertyNFT.sol",
  "abi": [
    {
      "inputs": [],
      "stateMutability": "nonpayable",
      "type": "constructor"
    },
    {
      "inputs": [
        {
          "internalType": "address",
          "name": "sender",
          "type": "address"
        },
        {
          "internalType": "uint256",
          "name": "tokenId",
          "type": "uint256"
        },
        {
          "internalType": "address",
          "name": "owner",
          "type": "address"
        }
      ],
      "name": "ERC721IncorrectOwner",
      "type": "error"
    },
    {
      "inputs": [
        {
          "internalType": "address",
          "name": "operator",
          "type": "address"
        },
        {
          "internalType": "uint256",
          "name": "tokenId",
          "type": "uint256"
        }
      ],
      "name": "ERC721InsufficientApproval",
      "type": "error"
    },
    {
      "inputs": [
        {
          "internalType": "address",
          "name": "approver",
          "type": "address"
        }
      ],
      "name": "ERC721InvalidApprover",
      "type": "error"
    },
    {
      "inputs": [
        {
          "internalType": "address",
          "name": "operator",
          "type": "address"
        }
      ],
      "name": "ERC721InvalidOperator",
      "type": "error"
    },
    {
      "inputs": [
        {
          "internalType": "address",
          "name": "owner",
          "type": "address"
        }
      ],
      "name": "ERC721InvalidOwner",
      "type": "error"
    },
    {
      "inputs": [
        {
          "internalType": "address",
          "name": "receiver",
          "type": "address"
        }
      ],
      "name": "ERC721InvalidReceiver",
      "type": "error"
    },
    {
      "inputs": [
        {
          "internalType": "address",
          "name": "sender",
          "type": "address"
        }
      ],
      "name": "ERC721InvalidSender",
      "type": "error"
    },
    {
      "inputs": [
        {
          "internalType": "uint256",
          "name": "tokenId",
          "type": "uint256"
        }
      ],
      "name": "ERC721NonexistentToken",
      "type": "error"
    },
    {
      "inputs": [
        {
          "internalType": "address",
          "name": "owner",
          "type": "address"
        }
      ],
      "name": "OwnableInvalidOwner",
      "type": "error"
    },
    {
      "inputs": [
        {
          "internalType": "address",
          "name": "account",
          "type": "address"
        }
      ],
      "name": "OwnableUnauthorizedAccount",
      "type": "error"
    },
    {
      "anonymous": false,
      "inputs": [
        {
          "indexed": true,
          "internalType": "address",
          "name": "owner",
          "type": "address"
        },
        {
          "indexed": true,
          "internalType": "address",
          "name": "approved",
          "type": "address"
        },
        {
          "indexed": true,
          "internalType": "uint256",
          "name": "tokenId",
          "type": "uint256"
        }
      ],
      "name": "Approval",
      "type": "event"
    },
    {
      "anonymous": false,
      "inputs": [
        {
          "indexed": true,
          "internalType": "address",
          "name": "owner",
          "type": "address"
        },
        {
          "indexed": true,
          "internalType": "address",
          "name": "operator",
          "type": "address"
        },
        {
          "indexed": false,
          "internalType": "bool",
          "name": "approved",
          "type": "bool"
        }
      ],
      "name": "ApprovalForAll",
      "type": "event"
    },
    {
      "anonymous": false,
      "inputs": [
        {
          "indexed": true,
          "internalType": "address",
          "name": "previousOwner",
          "type": "address"
        },
        {
          "indexed": true,
          "internalType": "address",
          "name": "newOwner",
          "type": "address"
        }
      ],
      "name": "OwnershipTransferred",
      "type": "event"
    },
    {
      "anonymous": false,
      "inputs": [
        {
          "indexed": true,
          "internalType": "address",
          "name": "from",
          "type": "address"
        },
        {
          "indexed": true,
          "internalType": "address",
          "name": "to",
          "type": "address"
        },
        {
          "indexed": true,
          "internalType": "uint256",
          "name": "tokenId",
          "type": "uint256"
        }
      ],
      "name": "Transfer",
      "type": "event"
    },
    {
      "inputs": [
        {
          "internalType": "address",
          "name": "to",
          "type": "address"
        },
        {
          "internalType": "uint256",
          "name": "tokenId",
          "type": "uint256"
        }
      ],
      "name": "approve",
      "outputs": [],
      "stateMutability": "nonpayable",
      "type": "function"
    },
    {
      "inputs": [
        {
          "internalType": "address",
          "name": "owner",
          "type": "address"
        }
      ],
      "name": "balanceOf",
      "outputs": [
        {
          "internalType": "uint256",
          "name": "",
          "type": "uint256"
        }
      ],
      "stateMutability": "view",
      "type": "function"
    },
    {
      "inputs": [
        {
          "internalType": "uint256",
          "name": "tokenId",
          "type": "uint256"
        }
      ],
      "name": "getApproved",
      "outputs": [
        {
          "internalType": "address",
          "name": "",
          "type": "address"
        }
      ],
      "stateMutability": "view",
      "type": "function"
    },
    {
      "inputs": [
        {
          "internalType": "uint256",
          "name": "tokenId",
          "type": "uint256"
        }
      ],
      "name": "getProperty",
      "outputs": [
        {
          "components": [
            {
              "internalType": "address",
              "name": "owner",
              "type": "address"
            },
            {
              "internalType": "string",
              "name": "name",
              "type": "string"
            },
            {
              "internalType": "uint256",
              "name": "position",
              "type": "uint256"
            },
            {
              "internalType": "address",
              "name": "tokenAddress",
              "type": "address"
            },
            {
              "internalType": "uint256",
              "name": "purchaseValue",
              "type": "uint256"
            },
            {
              "internalType": "uint256",
              "name": "rentAmount",
              "type": "uint256"
            }
          ],
          "internalType": "struct PropertyNFT.Property",
          "name": "",
          "type": "tuple"
        }
      ],
      "stateMutability": "view",
      "type": "function"
    },
    {
      "inputs": [
        {
          "internalType": "address",
          "name": "owner",
          "type": "address"
        },
        {
          "internalType": "address",
          "name": "operator",
          "type": "address"
        }
      ],
      "name": "isApprovedForAll",
      "outputs": [
        {
          "internalType": "bool",
          "name": "",
          "type": "bool"
        }
      ],
      "stateMutability": "view",
      "type": "function"
    },
    {
      "inputs": [
        {
          "internalType": "address",
          "name": "to",
          "type": "address"
        },
        {
          "internalType": "string",
          "name": "name",
          "type": "string"
        },
        {
          "internalType": "uint256",
          "name": "position",
          "type": "uint256"
        },
        {
          "internalType": "address",
          "name": "tokenAddress",
          "type": "address"
        },
        {
          "internalType": "uint256",
          "name": "purchaseValue",
          "type": "uint256"
        }
      ],
      "name": "mint",
      "outputs": [
        {
          "internalType": "uint256",
          "name": "",
          "type": "uint256"
        }
      ],
      "stateMutability": "nonpayable",
      "type": "function"
    },
    {
      "inputs": [],
      "name": "name",
      "outputs": [
        {
          "internalType": "string",
          "name": "",
          "type": "string"
        }
      ],
      "stateMutability": "view",
      "type": "function"
    },
    {
      "inputs": [],
      "name": "owner",
      "outputs": [
        {
          "internalType": "address",
          "name": "",
          "type": "address"
        }
      ],
      "stateMutability": "view",
      "type": "function"
    },
    {
      "inputs": [
        {
          "internalType": "uint256",
          "name": "tokenId",
          "type": "uint256"
        }
      ],
      "name": "ownerOf",
      "outputs": [
        {
          "internalType": "address",
          "name": "",
          "type": "address"
        }
      ],
      "stateMutability": "view",
      "type": "function"
    },
    {
      "inputs": [],
      "name": "renounceOwnership",
      "outputs": [],
      "stateMutability": "nonpayable",
      "type": "function"
    },
    {
      "inputs": [
        {
          "internalType": "address",
          "name": "from",
          "type": "address"
        },
        {
          "internalType": "address",
          "name": "to",
          "type": "address"
        },
        {
          "internalType": "uint256",
          "name": "tokenId",
          "type": "uint256"
        }
      ],
      "name": "safeTransferFrom",
      "outputs": [],
      "stateMutability": "nonpayable",
      "type": "function"
    },
    {
      "inputs": [
        {
          "internalType": "address",
          "name": "from",
          "type": "address"
        },
        {
          "internalType": "address",
          "name": "to",
          "type": "address"
        },
        {
          "internalType": "uint256",
          "name": "tokenId",
          "type": "uint256"
        },
        {
          "internalType": "bytes",
          "name": "data",
          "type": "bytes"
        }
      ],
      "name": "safeTransferFrom",
      "outputs": [],
      "stateMutability": "nonpayable",
      "type": "function"
    },
    {
      "inputs": [
        {
          "internalType": "address",
          "name": "operator",
          "type": "address"
        },
        {
          "internalType": "bool",
          "name": "approved",
          "type": "bool"
        }
      ],
      "name": "setApprovalForAll",
      "outputs": [],
      "stateMutability": "nonpayable",
      "type": "function"
    },
    {
      "inputs": [
        {
          "internalType": "bytes4",
          "name": "interfaceId",
          "type": "bytes4"
        }
      ],
      "name": "supportsInterface",
      "outputs": [
        {
          "internalType": "bool",
          "name": "",
          "type": "bool"
        }
      ],
      "stateMutability": "view",
      "type": "function"
    },
    {
      "inputs": [],
      "name": "symbol",
      "outputs": [
        {
          "internalType": "string",
          "name": "",
          "type": "string"
        }
      ],
      "stateMutability": "view",
      "type": "function"
    },
    {
      "inputs": [
        {
          "internalType": "uint256",
          "name": "tokenId",
          "type": "uint256"
        }
      ],
      "name": "tokenURI",
      "outputs": [
        {
          "internalType": "string",
          "name": "",
          "type": "string"
        }
      ],
      "stateMutability": "view",
      "type": "function"
    },
    {
      "inputs": [
        {
          "internalType": "address",
          "name": "from",
          "type": "address"
        },
        {
          "internalType": "address",
          "name": "to",
          "type": "address"
        },
        {
          "internalType": "uint256",
          "name": "tokenId",
          "type": "uint256"
        }
      ],
      "name": "transferFrom",
      "outputs": [],
      "stateMutability": "nonpayable",
      "type": "function"
    },
    {
      "inputs": [
        {
          "internalType": "address",
          "name": "newOwner",
          "type": "address"
        }
      ],
      "name": "transferOwnership",
      "outputs": [],
      "stateMutability": "nonpayable",
      "type": "function"
    }
  ],
  "bytecode": "0x6080604052600160075534801561001557600080fd5b50336040518060400160405280600881526020017f50726f70657274790000000000000000000000000000000000000000000000008152506040518060400160405280600381526020017f4d4e50000000000000000000000000000000000000000000000000000000000081525081600090816100929190610442565b5080600190816100a29190610442565b505050600073ffffffffffffffffffffffffffffffffffffffff168173ffffffffffffffffffffffffffffffffffffffff16036101175760006040517f1e4fbdf700000000000000000000000000000000000000000000000000000000815260040161010e9190610555565b60405180910390fd5b6101268161012c60201b60201c565b50610570565b6000600660009054906101000a900473ffffffffffffffffffffffffffffffffffffffff16905081600660006101000a81548173ffffffffffffffffffffffffffffffffffffffff021916908373ffffffffffffffffffffffffffffffffffffffff1602179055508173ffffffffffffffffffffffffffffffffffffffff168173ffffffffffffffffffffffffffffffffffffffff167f8be0079c531659141344cd1fd0a4f28419497f9722a3daafe3b4186f6b6457e060405160405180910390a35050565b600081519050919050565b7f4e487b7100000000000000000000000000000000000000000000000000000000600052604160045260246000fd5b7f4e487b7100000000000000000000000000000000000000000000000000000000600052602260045260246000fd5b6000600282049050600182168061027357607f821691505b6020821081036102865761028561022c565b5b50919050565b60008190508160005260206000209050919050565b60006020601f8301049050919050565b600082821b905092915050565b6000600883026102ee7fffffffffffffffffffffffffffffffffffffffffffffffffffffffffffffffff826102b1565b6102f886836102b1565b95508019841693508086168417925050509392505050565b6000819050919050565b6000819050919050565b600061033f61033a61033584610310565b61031a565b610310565b9050919050565b6000819050919050565b61035983610324565b61036d61036582610346565b8484546102be565b825550505050565b600090565b610382610375565b61038d818484610350565b505050565b5b818110156103b1576103a660008261037a565b600181019050610393565b5050565b601f8211156103f6576103c78161028c565b6103d0846102a1565b810160208510156103df578190505b6103f36103eb856102a1565b830182610392565b50505b505050565b600082821c905092915050565b6000610419600019846008026103fb565b1980831691505092915050565b60006104328383610408565b9150826002028217905092915050565b61044b826101f2565b67ffffffffffffffff811115610464576104636101fd565b5b61046e825461025b565b6104798282856103b5565b600060209050601f8311600181146104ac576000841561049a578287015190505b6104a48582610426565b86555061050c565b601f1984166104ba8661028c565b60005b828110156104e2578489015182556001820191506020850194506020810190506104bd565b868310156104ff57848901516104fb601f891682610408565b8355505b6001600288020188555050505b505050505050565b600073ffffffffffffffffffffffffffffffffffffffff82169050919050565b600061053f82610514565b9050919050565b61054f81610534565b82525050565b600060208201905061056a6000830184610546565b92915050565b612a2c8061057f6000396000f3fe608060405234801561001057600080fd5b50600436106101165760003560e01c806370a08231116100a2578063a22cb46511610071578063a22cb465146102f3578063b88d4fde1461030f578063c87b56dd1461032b578063e985e9c51461035b578063f2fde38b1461038b57610116565b806370a082311461027d578063715018a6146102ad5780638da5cb5b146102b757806395d89b41146102d557610116565b806323b872dd116100e957806323b872dd146101b557806332665ffb146101d157806342842e0e146102015780635d94337f1461021d5780636352211e1461024d57610116565b806301ffc9a71461011b57806306fdde031461014b578063081812fc14610169578063095ea7b314610199575b600080fd5b61013560048036038101906101309190611cca565b6103a7565b6040516101429190611d12565b60405180910390f35b610153610489565b6040516101609190611dbd565b60405180910390f35b610183600480360381019061017e9190611e15565b61051b565b6040516101909190611e83565b60405180910390f35b6101b360048036038101906101ae9190611eca565b610537565b005b6101cf60048036038101906101ca9190611f0a565b61054d565b005b6101eb60048036038101906101e69190611e15565b61064f565b6040516101f8919061204e565b60405180910390f35b61021b60048036038101906102169190611f0a565b61084f565b005b610237600480360381019061023291906121a5565b61086f565b604051610244919061224b565b60405180910390f35b61026760048036038101906102629190611e15565b6109d8565b6040516102749190611e83565b60405180910390f35b61029760048036038101906102929190612266565b6109ea565b6040516102a4919061224b565b60405180910390f35b6102b5610aa4565b005b6102bf610ab8565b6040516102cc9190611e83565b60405180910390f35b6102dd610ae2565b6040516102ea9190611dbd565b60405180910390f35b61030d600480360381019061030891906122bf565b610b74565b005b610329600480360381019061032491906123a0565b610b8a565b005b61034560048036038101906103409190611e15565b610baf565b6040516103529190611dbd565b60405180910390f35b61037560048036038101906103709190612423565b610c18565b6040516103829190611d12565b60405180910390f35b6103a560048036038101906103a09190612266565b610cac565b005b60007f80ac58cd000000000000000000000000000000000000000000000000000000007bffffffffffffffffffffffffffffffffffffffffffffffffffffffff1916827bffffffffffffffffffffffffffffffffffffffffffffffffffffffff1916148061047257507f5b5e139f000000000000000000000000000000000000000000000000000000007bffffffffffffffffffffffffffffffffffffffffffffffffffffffff1916827bffffffffffffffffffffffffffffffffffffffffffffffffffffffff1916145b80610482575061048182610d32565b5b9050919050565b60606000805461049890612492565b80601f01602080910402602001604051908101604052809291908181526020018280546104c490612492565b80156105115780601f106104e657610100808354040283529160200191610511565b820191906000526020600020905b8154815290600101906020018083116104f457829003601f168201915b5050505050905090565b600061052682610d9c565b5061053082610e24565b9050919050565b6105498282610544610e61565b610e69565b5050565b600073ffffffffffffffffffffffffffffffffffffffff168273ffffffffffffffffffffffffffffffffffffffff16036105bf5760006040517f64a0ae920000000000000000000000000000000000000000000000000000000081526004016105b69190611e83565b60405180910390fd5b60006105d383836105ce610e61565b610e7b565b90508373ffffffffffffffffffffffffffffffffffffffff168173ffffffffffffffffffffffffffffffffffffffff1614610649578382826040517f64283d7b000000000000000000000000000000000000000000000000000000008152600401610640939291906124c3565b60405180910390fd5b50505050565b610657611bfc565b600073ffffffffffffffffffffffffffffffffffffffff1661067883611095565b73ffffffffffffffffffffffffffffffffffffffff16036106ce576040517f08c379a00000000000000000000000000000000000000000000000000000000081526004016106c590612546565b60405180910390fd5b600860008381526020019081526020016000206040518060c00160405290816000820160009054906101000a900473ffffffffffffffffffffffffffffffffffffffff1673ffffffffffffffffffffffffffffffffffffffff1673ffffffffffffffffffffffffffffffffffffffff16815260200160018201805461075290612492565b80601f016020809104026020016040519081016040528092919081815260200182805461077e90612492565b80156107cb5780601f106107a0576101008083540402835291602001916107cb565b820191906000526020600020905b8154815290600101906020018083116107ae57829003601f168201915b50505050508152602001600282015481526020016003820160009054906101000a900473ffffffffffffffffffffffffffffffffffffffff1673ffffffffffffffffffffffffffffffffffffffff1673ffffffffffffffffffffffffffffffffffffffff168152602001600482015481526020016005820154815250509050919050565b61086a83838360405180602001604052806000815250610b8a565b505050565b600080600754905061088187826110d2565b6040518060c001604052803373ffffffffffffffffffffffffffffffffffffffff1681526020018781526020018681526020018573ffffffffffffffffffffffffffffffffffffffff16815260200184815260200160058152506008600083815260200190815260200160002060008201518160000160006101000a81548173ffffffffffffffffffffffffffffffffffffffff021916908373ffffffffffffffffffffffffffffffffffffffff160217905550602082015181600101908161094a9190612712565b506040820151816002015560608201518160030160006101000a81548173ffffffffffffffffffffffffffffffffffffffff021916908373ffffffffffffffffffffffffffffffffffffffff1602179055506080820151816004015560a08201518160050155905050600760008154809291906109c690612813565b91905055508091505095945050505050565b60006109e382610d9c565b9050919050565b60008073ffffffffffffffffffffffffffffffffffffffff168273ffffffffffffffffffffffffffffffffffffffff1603610a5d5760006040517f89c62b64000000000000000000000000000000000000000000000000000000008152600401610a549190611e83565b60405180910390fd5b600360008373ffffffffffffffffffffffffffffffffffffffff1673ffffffffffffffffffffffffffffffffffffffff168152602001908152602001600020549050919050565b610aac6110f0565b610ab66000611177565b565b6000600660009054906101000a900473ffffffffffffffffffffffffffffffffffffffff16905090565b606060018054610af190612492565b80601f0160208091040260200160405190810160405280929190818152602001828054610b1d90612492565b8015610b6a5780601f10610b3f57610100808354040283529160200191610b6a565b820191906000526020600020905b815481529060010190602001808311610b4d57829003601f168201915b5050505050905090565b610b86610b7f610e61565b838361123d565b5050565b610b9584848461054d565b610ba9610ba0610e61565b858585856113ac565b50505050565b6060610bba82610d9c565b506000610bc561155d565b90506000815111610be55760405180602001604052806000815250610c10565b80610bef84611574565b604051602001610c00929190612897565b6040516020818303038152906040525b915050919050565b6000600560008473ffffffffffffffffffffffffffffffffffffffff1673ffffffffffffffffffffffffffffffffffffffff16815260200190815260200160002060008373ffffffffffffffffffffffffffffffffffffffff1673ffffffffffffffffffffffffffffffffffffffff16815260200190815260200160002060009054906101000a900460ff16905092915050565b610cb46110f0565b600073ffffffffffffffffffffffffffffffffffffffff168173ffffffffffffffffffffffffffffffffffffffff1603610d265760006040517f1e4fbdf7000000000000000000000000000000000000000000000000000000008152600401610d1d9190611e83565b60405180910390fd5b610d2f81611177565b50565b60007f01ffc9a7000000000000000000000000000000000000000000000000000000007bffffffffffffffffffffffffffffffffffffffffffffffffffffffff1916827bffffffffffffffffffffffffffffffffffffffffffffffffffffffff1916149050919050565b600080610da883611095565b9050600073ffffffffffffffffffffffffffffffffffffffff168173ffffffffffffffffffffffffffffffffffffffff1603610e1b57826040517f7e273289000000000000000000000000000000000000000000000000000000008152600401610e12919061224b565b60405180910390fd5b80915050919050565b60006004600083815260200190815260200160002060009054906101000a900473ffffffffffffffffffffffffffffffffffffffff169050919050565b600033905090565b610e768383836001611642565b505050565b600080610e8784611095565b9050600073ffffffffffffffffffffffffffffffffffffffff168373ffffffffffffffffffffffffffffffffffffffff1614610ec957610ec8818486611807565b5b600073ffffffffffffffffffffffffffffffffffffffff168173ffffffffffffffffffffffffffffffffffffffff1614610f5a57610f0b600085600080611642565b6001600360008373ffffffffffffffffffffffffffffffffffffffff1673ffffffffffffffffffffffffffffffffffffffff168152602001908152602001600020600082825403925050819055505b600073ffffffffffffffffffffffffffffffffffffffff168573ffffffffffffffffffffffffffffffffffffffff1614610fdd576001600360008773ffffffffffffffffffffffffffffffffffffffff1673ffffffffffffffffffffffffffffffffffffffff168152602001908152602001600020600082825401925050819055505b846002600086815260200190815260200160002060006101000a81548173ffffffffffffffffffffffffffffffffffffffff021916908373ffffffffffffffffffffffffffffffffffffffff160217905550838573ffffffffffffffffffffffffffffffffffffffff168273ffffffffffffffffffffffffffffffffffffffff167fddf252ad1be2c89b69c2b068fc378daa952ba7f163c4a11628f55a4df523b3ef60405160405180910390a4809150509392505050565b60006002600083815260200190815260200160002060009054906101000a900473ffffffffffffffffffffffffffffffffffffffff169050919050565b6110ec8282604051806020016040528060008152506118cb565b5050565b6110f8610e61565b73ffffffffffffffffffffffffffffffffffffffff16611116610ab8565b73ffffffffffffffffffffffffffffffffffffffff161461117557611139610e61565b6040517f118cdaa700000000000000000000000000000000000000000000000000000000815260040161116c9190611e83565b60405180910390fd5b565b6000600660009054906101000a900473ffffffffffffffffffffffffffffffffffffffff16905081600660006101000a81548173ffffffffffffffffffffffffffffffffffffffff021916908373ffffffffffffffffffffffffffffffffffffffff1602179055508173ffffffffffffffffffffffffffffffffffffffff168173ffffffffffffffffffffffffffffffffffffffff167f8be0079c531659141344cd1fd0a4f28419497f9722a3daafe3b4186f6b6457e060405160405180910390a35050565b600073ffffffffffffffffffffffffffffffffffffffff168273ffffffffffffffffffffffffffffffffffffffff16036112ae57816040517f5b08ba180000000000000000000000000000000000000000000000000000000081526004016112a59190611e83565b60405180910390fd5b80600560008573ffffffffffffffffffffffffffffffffffffffff1673ffffffffffffffffffffffffffffffffffffffff16815260200190815260200160002060008473ffffffffffffffffffffffffffffffffffffffff1673ffffffffffffffffffffffffffffffffffffffff16815260200190815260200160002060006101000a81548160ff0219169083151502179055508173ffffffffffffffffffffffffffffffffffffffff168373ffffffffffffffffffffffffffffffffffffffff167f17307eab39ab6107e8899845ad3d59bd9653f200f220920489ca2b5937696c318360405161139f9190611d12565b60405180910390a3505050565b60008373ffffffffffffffffffffffffffffffffffffffff163b1115611556578273ffffffffffffffffffffffffffffffffffffffff1663150b7a02868685856040518563ffffffff1660e01b815260040161140b9493929190612910565b6020604051808303816000875af192505050801561144757506040513d601f19601f820116820180604052508101906114449190612971565b60015b6114cb573d8060008114611477576040519150601f19603f3d011682016040523d82523d6000602084013e61147c565b606091505b5060008151036114c357836040517f64a0ae920000000000000000000000000000000000000000000000000000000081526004016114ba9190611e83565b60405180910390fd5b805160208201fd5b63150b7a0260e01b7bffffffffffffffffffffffffffffffffffffffffffffffffffffffff1916817bffffffffffffffffffffffffffffffffffffffffffffffffffffffff19161461155457836040517f64a0ae9200000000000000000000000000000000000000000000000000000000815260040161154b9190611e83565b60405180910390fd5b505b5050505050565b606060405180602001604052806000815250905090565b606060006001611583846118ef565b01905060008167ffffffffffffffff8111156115a2576115a161207a565b5b6040519080825280601f01601f1916602001820160405280156115d45781602001600182028036833780820191505090505b509050600082602083010190505b600115611637578080600190039150507f3031323334353637383961626364656600000000000000000000000000000000600a86061a8153600a858161162b5761162a61299e565b5b049450600085036115e2575b819350505050919050565b808061167b5750600073ffffffffffffffffffffffffffffffffffffffff168273ffffffffffffffffffffffffffffffffffffffff1614155b156117af57600061168b84610d9c565b9050600073ffffffffffffffffffffffffffffffffffffffff168373ffffffffffffffffffffffffffffffffffffffff16141580156116f657508273ffffffffffffffffffffffffffffffffffffffff168173ffffffffffffffffffffffffffffffffffffffff1614155b801561170957506117078184610c18565b155b1561174b57826040517fa9fbf51f0000000000000000000000000000000000000000000000000000000081526004016117429190611e83565b60405180910390fd5b81156117ad57838573ffffffffffffffffffffffffffffffffffffffff168273ffffffffffffffffffffffffffffffffffffffff167f8c5be1e5ebec7d5bd14f71427d1e84f3dd0314c0f7b2291e5b200ac8c7c3b92560405160405180910390a45b505b836004600085815260200190815260200160002060006101000a81548173ffffffffffffffffffffffffffffffffffffffff021916908373ffffffffffffffffffffffffffffffffffffffff16021790555050505050565b611812838383611a42565b6118c657600073ffffffffffffffffffffffffffffffffffffffff168373ffffffffffffffffffffffffffffffffffffffff160361188757806040517f7e27328900000000000000000000000000000000000000000000000000000000815260040161187e919061224b565b60405180910390fd5b81816040517f177e802f0000000000000000000000000000000000000000000000000000000081526004016118bd9291906129cd565b60405180910390fd5b505050565b6118d58383611b03565b6118ea6118e0610e61565b60008585856113ac565b505050565b600080600090507a184f03e93ff9f4daa797ed6e38ed64bf6a1f010000000000000000831061194d577a184f03e93ff9f4daa797ed6e38ed64bf6a1f01000000000000000083816119435761194261299e565b5b0492506040810190505b6d04ee2d6d415b85acef8100000000831061198a576d04ee2d6d415b85acef810000000083816119805761197f61299e565b5b0492506020810190505b662386f26fc1000083106119b957662386f26fc1000083816119af576119ae61299e565b5b0492506010810190505b6305f5e10083106119e2576305f5e10083816119d8576119d761299e565b5b0492506008810190505b6127108310611a075761271083816119fd576119fc61299e565b5b0492506004810190505b60648310611a2a5760648381611a2057611a1f61299e565b5b0492506002810190505b600a8310611a39576001810190505b80915050919050565b60008073ffffffffffffffffffffffffffffffffffffffff168373ffffffffffffffffffffffffffffffffffffffff1614158015611afa57508273ffffffffffffffffffffffffffffffffffffffff168473ffffffffffffffffffffffffffffffffffffffff161480611abb5750611aba8484610c18565b5b80611af957508273ffffffffffffffffffffffffffffffffffffffff16611ae183610e24565b73ffffffffffffffffffffffffffffffffffffffff16145b5b90509392505050565b600073ffffffffffffffffffffffffffffffffffffffff168273ffffffffffffffffffffffffffffffffffffffff1603611b755760006040517f64a0ae92000000000000000000000000000000000000000000000000000000008152600401611b6c9190611e83565b60405180910390fd5b6000611b8383836000610e7b565b9050600073ffffffffffffffffffffffffffffffffffffffff168173ffffffffffffffffffffffffffffffffffffffff1614611bf75760006040517f73c6ac6e000000000000000000000000000000000000000000000000000000008152600401611bee9190611e83565b60405180910390fd5b505050565b6040518060c00160405280600073ffffffffffffffffffffffffffffffffffffffff1681526020016060815260200160008152602001600073ffffffffffffffffffffffffffffffffffffffff16815260200160008152602001600081525090565b6000604051905090565b600080fd5b600080fd5b60007fffffffff0000000000000000000000000000000000000000000000000000000082169050919050565b611ca781611c72565b8114611cb257600080fd5b50565b600081359050611cc481611c9e565b92915050565b600060208284031215611ce057611cdf611c68565b5b6000611cee84828501611cb5565b91505092915050565b60008115159050919050565b611d0c81611cf7565b82525050565b6000602082019050611d276000830184611d03565b92915050565b600081519050919050565b600082825260208201905092915050565b60005b83811015611d67578082015181840152602081019050611d4c565b60008484015250505050565b6000601f19601f8301169050919050565b6000611d8f82611d2d565b611d998185611d38565b9350611da9818560208601611d49565b611db281611d73565b840191505092915050565b60006020820190508181036000830152611dd78184611d84565b905092915050565b6000819050919050565b611df281611ddf565b8114611dfd57600080fd5b50565b600081359050611e0f81611de9565b92915050565b600060208284031215611e2b57611e2a611c68565b5b6000611e3984828501611e00565b91505092915050565b600073ffffffffffffffffffffffffffffffffffffffff82169050919050565b6000611e6d82611e42565b9050919050565b611e7d81611e62565b82525050565b6000602082019050611e986000830184611e74565b92915050565b611ea781611e62565b8114611eb257600080fd5b50565b600081359050611ec481611e9e565b92915050565b60008060408385031215611ee157611ee0611c68565b5b6000611eef85828601611eb5565b9250506020611f0085828601611e00565b9150509250929050565b600080600060608486031215611f2357611f22611c68565b5b6000611f3186828701611eb5565b9350506020611f4286828701611eb5565b9250506040611f5386828701611e00565b9150509250925092565b611f6681611e62565b82525050565b600082825260208201905092915050565b6000611f8882611d2d565b611f928185611f6c565b9350611fa2818560208601611d49565b611fab81611d73565b840191505092915050565b611fbf81611ddf565b82525050565b600060c083016000830151611fdd6000860182611f5d565b5060208301518482036020860152611ff58282611f7d565b915050604083015161200a6040860182611fb6565b50606083015161201d6060860182611f5d565b5060808301516120306080860182611fb6565b5060a083015161204360a0860182611fb6565b508091505092915050565b600060208201905081810360008301526120688184611fc5565b905092915050565b600080fd5b600080fd5b7f4e487b7100000000000000000000000000000000000000000000000000000000600052604160045260246000fd5b6120b282611d73565b810181811067ffffffffffffffff821117156120d1576120d061207a565b5b80604052505050565b60006120e4611c5e565b90506120f082826120a9565b919050565b600067ffffffffffffffff8211156121105761210f61207a565b5b61211982611d73565b9050602081019050919050565b82818337600083830152505050565b6000612148612143846120f5565b6120da565b90508281526020810184848401111561216457612163612075565b5b61216f848285612126565b509392505050565b600082601f83011261218c5761218b612070565b5b813561219c848260208601612135565b91505092915050565b600080600080600060a086880312156121c1576121c0611c68565b5b60006121cf88828901611eb5565b955050602086013567ffffffffffffffff8111156121f0576121ef611c6d565b5b6121fc88828901612177565b945050604061220d88828901611e00565b935050606061221e88828901611eb5565b925050608061222f88828901611e00565b9150509295509295909350565b61224581611ddf565b82525050565b6000602082019050612260600083018461223c565b92915050565b60006020828403121561227c5761227b611c68565b5b600061228a84828501611eb5565b91505092915050565b61229c81611cf7565b81146122a757600080fd5b50565b6000813590506122b981612293565b92915050565b600080604083850312156122d6576122d5611c68565b5b60006122e485828601611eb5565b92505060206122f5858286016122aa565b9150509250929050565b600067ffffffffffffffff82111561231a5761231961207a565b5b61232382611d73565b9050602081019050919050565b600061234361233e846122ff565b6120da565b90508281526020810184848401111561235f5761235e612075565b5b61236a848285612126565b509392505050565b600082601f83011261238757612386612070565b5b8135612397848260208601612330565b91505092915050565b600080600080608085870312156123ba576123b9611c68565b5b60006123c887828801611eb5565b94505060206123d987828801611eb5565b93505060406123ea87828801611e00565b925050606085013567ffffffffffffffff81111561240b5761240a611c6d565b5b61241787828801612372565b91505092959194509250565b6000806040838503121561243a57612439611c68565b5b600061244885828601611eb5565b925050602061245985828601611eb5565b9150509250929050565b7f4e487b7100000000000000000000000000000000000000000000000000000000600052602260045260246000fd5b600060028204905060018216806124aa57607f821691505b6020821081036124bd576124bc612463565b5b50919050565b60006060820190506124d86000830186611e74565b6124e5602083018561223c565b6124f26040830184611e74565b949350505050565b7f517565727920666f72206e6f6e6578697374656e7420746f6b656e0000000000600082015250565b6000612530601b83611d38565b915061253b826124fa565b602082019050919050565b6000602082019050818103600083015261255f81612523565b9050919050565b60008190508160005260206000209050919050565b60006020601f8301049050919050565b600082821b905092915050565b6000600883026125c87fffffffffffffffffffffffffffffffffffffffffffffffffffffffffffffffff8261258b565b6125d2868361258b565b95508019841693508086168417925050509392505050565b6000819050919050565b600061260f61260a61260584611ddf565b6125ea565b611ddf565b9050919050565b6000819050919050565b612629836125f4565b61263d61263582612616565b848454612598565b825550505050565b600090565b612652612645565b61265d818484612620565b505050565b5b818110156126815761267660008261264a565b600181019050612663565b5050565b601f8211156126c65761269781612566565b6126a08461257b565b810160208510156126af578190505b6126c36126bb8561257b565b830182612662565b50505b505050565b600082821c905092915050565b60006126e9600019846008026126cb565b1980831691505092915050565b600061270283836126d8565b9150826002028217905092915050565b61271b82611d2d565b67ffffffffffffffff8111156127345761273361207a565b5b61273e8254612492565b612749828285612685565b600060209050601f83116001811461277c576000841561276a578287015190505b61277485826126f6565b8655506127dc565b601f19841661278a86612566565b60005b828110156127b25784890151825560018201915060208501945060208101905061278d565b868310156127cf57848901516127cb601f8916826126d8565b8355505b6001600288020188555050505b505050505050565b7f4e487b7100000000000000000000000000000000000000000000000000000000600052601160045260246000fd5b600061281e82611ddf565b91507fffffffffffffffffffffffffffffffffffffffffffffffffffffffffffffffff82036128505761284f6127e4565b5b600182019050919050565b600081905092915050565b600061287182611d2d565b61287b818561285b565b935061288b818560208601611d49565b80840191505092915050565b60006128a38285612866565b91506128af8284612866565b91508190509392505050565b600081519050919050565b600082825260208201905092915050565b60006128e2826128bb565b6128ec81856128c6565b93506128fc818560208601611d49565b61290581611d73565b840191505092915050565b60006080820190506129256000830187611e74565b6129326020830186611e74565b61293f604083018561223c565b818103606083015261295181846128d7565b905095945050505050565b60008151905061296b81611c9e565b92915050565b60006020828403121561298757612986611c68565b5b60006129958482850161295c565b91505092915050565b7f4e487b7100000000000000000000000000000000000000000000000000000000600052601260045260246000fd5b60006040820190506129e26000830185611e74565b6129ef602083018461223c565b939250505056fea2646970667358221220c586a4ffab2e4e331c5c4ae85e6a60eb5ef01e95b4bf37ba9f1ec41c9b8ea0bf64736f6c634300081c0033",
  "linkReferences": {},
  "deployedLinkReferences": {}
}