{
  "_format": "hh-sol-artifact-1",
  "contractName": "Multipoly",
  "sourceName": "contracts/Multipoly.sol",
  "abi": [
    {
      "inputs": [
        {
          "internalType": "address",
          "name": "initialOwner",
          "type": "address"
        },
        {
          "internalType": "address",
          "name": "_property_nft",
          "type": "address"
        }
      ],
      "stateMutability": "nonpayable",
      "type": "constructor"
    },
    {
      "inputs": [
        {
          "internalType": "address",
          "name": "owner",
          "type": "address"
        }
      ],
      "name": "OwnableInvalidOwner",
      "type": "error"
    },
    {
      "inputs": [
        {
          "internalType": "address",
          "name": "account",
          "type": "address"
        }
      ],
      "name": "OwnableUnauthorizedAccount",
      "type": "error"
    },
    {
      "anonymous": false,
      "inputs": [
        {
          "indexed": true,
          "internalType": "uint256",
          "name": "game_id",
          "type": "uint256"
        }
      ],
      "name": "GameCreated",
      "type": "event"
    },
    {
      "anonymous": false,
      "inputs": [
        {
          "indexed": true,
          "internalType": "address",
          "name": "previousOwner",
          "type": "address"
        },
        {
          "indexed": true,
          "internalType": "address",
          "name": "newOwner",
          "type": "address"
        }
      ],
      "name": "OwnershipTransferred",
      "type": "event"
    },
    {
      "anonymous": false,
      "inputs": [
        {
          "indexed": true,
          "internalType": "uint256",
          "name": "game_id",
          "type": "uint256"
        },
        {
          "indexed": true,
          "internalType": "address",
          "name": "user_account",
          "type": "address"
        }
      ],
      "name": "PlayerJoinedGame",
      "type": "event"
    },
    {
      "anonymous": false,
      "inputs": [
        {
          "indexed": true,
          "internalType": "uint256",
          "name": "game_id",
          "type": "uint256"
        },
        {
          "indexed": true,
          "internalType": "address",
          "name": "user_account",
          "type": "address"
        }
      ],
      "name": "PlayerLeftGame",
      "type": "event"
    },
    {
      "anonymous": false,
      "inputs": [
        {
          "indexed": true,
          "internalType": "uint256",
          "name": "game_id",
          "type": "uint256"
        },
        {
          "indexed": true,
          "internalType": "address",
          "name": "user_account",
          "type": "address"
        },
        {
          "indexed": false,
          "internalType": "uint256",
          "name": "position",
          "type": "uint256"
        }
      ],
      "name": "PlayerPositionUpdated",
      "type": "event"
    },
    {
      "anonymous": false,
      "inputs": [
        {
          "indexed": true,
          "internalType": "address",
          "name": "user_account",
          "type": "address"
        },
        {
          "indexed": true,
          "internalType": "uint256",
          "name": "game_id",
          "type": "uint256"
        },
        {
          "indexed": false,
          "internalType": "uint256",
          "name": "nft_id",
          "type": "uint256"
        },
        {
          "indexed": false,
          "internalType": "uint256",
          "name": "stake_amount",
          "type": "uint256"
        },
        {
          "indexed": false,
          "internalType": "address",
          "name": "token",
          "type": "address"
        }
      ],
      "name": "PlayerPropertiesSet",
      "type": "event"
    },
    {
      "anonymous": false,
      "inputs": [
        {
          "indexed": true,
          "internalType": "uint256",
          "name": "game_id",
          "type": "uint256"
        },
        {
          "indexed": true,
          "internalType": "address",
          "name": "user_account",
          "type": "address"
        }
      ],
      "name": "PlayerTurnSet",
      "type": "event"
    },
    {
      "inputs": [],
      "name": "PROPERTY_NFT",
      "outputs": [
        {
          "internalType": "address",
          "name": "",
          "type": "address"
        }
      ],
      "stateMutability": "view",
      "type": "function"
    },
    {
      "inputs": [
        {
          "internalType": "uint256",
          "name": "game_id",
          "type": "uint256"
        },
        {
          "internalType": "address[]",
          "name": "user_accounts",
          "type": "address[]"
        },
        {
          "internalType": "uint256[]",
          "name": "positions",
          "type": "uint256[]"
        }
      ],
      "name": "batchSetPlayerPositions",
      "outputs": [],
      "stateMutability": "nonpayable",
      "type": "function"
    },
    {
      "inputs": [
        {
          "internalType": "address",
          "name": "player_address",
          "type": "address"
        },
        {
          "internalType": "address",
          "name": "token_address_1",
          "type": "address"
        },
        {
          "internalType": "address",
          "name": "token_address_2",
          "type": "address"
        },
        {
          "internalType": "address",
          "name": "token_address_3",
          "type": "address"
        },
        {
          "internalType": "address",
          "name": "token_address_4",
          "type": "address"
        }
      ],
      "name": "burnAllTokens",
      "outputs": [],
      "stateMutability": "nonpayable",
      "type": "function"
    },
    {
      "inputs": [
        {
          "internalType": "address",
          "name": "player_address",
          "type": "address"
        },
        {
          "internalType": "address",
          "name": "token_address",
          "type": "address"
        },
        {
          "internalType": "uint256",
          "name": "amount",
          "type": "uint256"
        }
      ],
      "name": "credit",
      "outputs": [],
      "stateMutability": "nonpayable",
      "type": "function"
    },
    {
      "inputs": [
        {
          "internalType": "address",
          "name": "player_address",
          "type": "address"
        },
        {
          "internalType": "address",
          "name": "token_address",
          "type": "address"
        },
        {
          "internalType": "uint256",
          "name": "amount",
          "type": "uint256"
        }
      ],
      "name": "debit",
      "outputs": [],
      "stateMutability": "nonpayable",
      "type": "function"
    },
    {
      "inputs": [
        {
          "internalType": "uint256",
          "name": "game_id",
          "type": "uint256"
        },
        {
          "internalType": "address",
          "name": "user_account",
          "type": "address"
        }
      ],
      "name": "deletePlayerPosition",
      "outputs": [],
      "stateMutability": "nonpayable",
      "type": "function"
    },
    {
      "inputs": [
        {
          "internalType": "uint256",
          "name": "game_id",
          "type": "uint256"
        },
        {
          "internalType": "address",
          "name": "user_account",
          "type": "address"
        },
        {
          "internalType": "uint256",
          "name": "nft_id",
          "type": "uint256"
        }
      ],
      "name": "deletePlayerProperty",
      "outputs": [],
      "stateMutability": "nonpayable",
      "type": "function"
    },
    {
      "inputs": [
        {
          "internalType": "uint256",
          "name": "",
          "type": "uint256"
        },
        {
          "internalType": "uint256",
          "name": "",
          "type": "uint256"
        }
      ],
      "name": "gamePlayersList",
      "outputs": [
        {
          "internalType": "address",
          "name": "",
          "type": "address"
        }
      ],
      "stateMutability": "view",
      "type": "function"
    },
    {
      "inputs": [
        {
          "internalType": "uint256",
          "name": "game_id",
          "type": "uint256"
        }
      ],
      "name": "getAllPlayerPositionsInGame",
      "outputs": [
        {
          "components": [
            {
              "internalType": "address",
              "name": "user_account",
              "type": "address"
            },
            {
              "internalType": "uint256",
              "name": "game_id",
              "type": "uint256"
            },
            {
              "internalType": "uint256",
              "name": "position",
              "type": "uint256"
            }
          ],
          "internalType": "struct Multipoly.PlayerPos[]",
          "name": "",
          "type": "tuple[]"
        }
      ],
      "stateMutability": "view",
      "type": "function"
    },
    {
      "inputs": [
        {
          "internalType": "uint256",
          "name": "game_id",
          "type": "uint256"
        },
        {
          "internalType": "address",
          "name": "user_account",
          "type": "address"
        }
      ],
      "name": "getAllPlayerProperties",
      "outputs": [
        {
          "components": [
            {
              "internalType": "uint256",
              "name": "nft_id",
              "type": "uint256"
            },
            {
              "internalType": "uint256",
              "name": "stake_amount",
              "type": "uint256"
            },
            {
              "internalType": "address",
              "name": "token",
              "type": "address"
            },
            {
              "internalType": "bool",
              "name": "exists",
              "type": "bool"
            }
          ],
          "internalType": "struct Multipoly.PlayerProperties[]",
          "name": "",
          "type": "tuple[]"
        }
      ],
      "stateMutability": "view",
      "type": "function"
    },
    {
      "inputs": [
        {
          "internalType": "uint256",
          "name": "game_id",
          "type": "uint256"
        }
      ],
      "name": "getGamePlayers",
      "outputs": [
        {
          "internalType": "address[]",
          "name": "",
          "type": "address[]"
        }
      ],
      "stateMutability": "view",
      "type": "function"
    },
    {
      "inputs": [
        {
          "internalType": "uint256",
          "name": "game_id",
          "type": "uint256"
        },
        {
          "internalType": "address",
          "name": "user_account",
          "type": "address"
        }
      ],
      "name": "getGameState",
      "outputs": [
        {
          "components": [
            {
              "internalType": "address",
              "name": "user_account",
              "type": "address"
            },
            {
              "internalType": "uint256",
              "name": "game_id",
              "type": "uint256"
            },
            {
              "internalType": "uint256",
              "name": "position",
              "type": "uint256"
            }
          ],
          "internalType": "struct Multipoly.PlayerPos[]",
          "name": "",
          "type": "tuple[]"
        },
        {
          "components": [
            {
              "internalType": "uint256",
              "name": "nft_id",
              "type": "uint256"
            },
            {
              "internalType": "uint256",
              "name": "stake_amount",
              "type": "uint256"
            },
            {
              "internalType": "address",
              "name": "token",
              "type": "address"
            },
            {
              "internalType": "bool",
              "name": "exists",
              "type": "bool"
            }
          ],
          "internalType": "struct Multipoly.PlayerProperties[]",
          "name": "",
          "type": "tuple[]"
        }
      ],
      "stateMutability": "view",
      "type": "function"
    },
    {
      "inputs": [
        {
          "internalType": "uint256",
          "name": "game_id",
          "type": "uint256"
        }
      ],
      "name": "getPlayerCount",
      "outputs": [
        {
          "internalType": "uint256",
          "name": "",
          "type": "uint256"
        }
      ],
      "stateMutability": "view",
      "type": "function"
    },
    {
      "inputs": [
        {
          "internalType": "uint256",
          "name": "game_id",
          "type": "uint256"
        },
        {
          "internalType": "address",
          "name": "user_account",
          "type": "address"
        }
      ],
      "name": "getPlayerPosition",
      "outputs": [
        {
          "components": [
            {
              "internalType": "address",
              "name": "user_account",
              "type": "address"
            },
            {
              "internalType": "uint256",
              "name": "game_id",
              "type": "uint256"
            },
            {
              "internalType": "uint256",
              "name": "position",
              "type": "uint256"
            }
          ],
          "internalType": "struct Multipoly.PlayerPos",
          "name": "",
          "type": "tuple"
        }
      ],
      "stateMutability": "view",
      "type": "function"
    },
    {
      "inputs": [
        {
          "internalType": "uint256",
          "name": "game_id",
          "type": "uint256"
        },
        {
          "internalType": "address",
          "name": "user_account",
          "type": "address"
        },
        {
          "internalType": "uint256",
          "name": "nft_id",
          "type": "uint256"
        }
      ],
      "name": "getPlayerProperty",
      "outputs": [
        {
          "components": [
            {
              "internalType": "uint256",
              "name": "nft_id",
              "type": "uint256"
            },
            {
              "internalType": "uint256",
              "name": "stake_amount",
              "type": "uint256"
            },
            {
              "internalType": "address",
              "name": "token",
              "type": "address"
            },
            {
              "internalType": "bool",
              "name": "exists",
              "type": "bool"
            }
          ],
          "internalType": "struct Multipoly.PlayerProperties",
          "name": "",
          "type": "tuple"
        }
      ],
      "stateMutability": "view",
      "type": "function"
    },
    {
      "inputs": [
        {
          "internalType": "uint256",
          "name": "game_id",
          "type": "uint256"
        }
      ],
      "name": "getPlayerTurn",
      "outputs": [
        {
          "internalType": "address",
          "name": "",
          "type": "address"
        }
      ],
      "stateMutability": "view",
      "type": "function"
    },
    {
      "inputs": [
        {
          "internalType": "uint256",
          "name": "token_id",
          "type": "uint256"
        }
      ],
      "name": "getPropertyDetails",
      "outputs": [
        {
          "components": [
            {
              "internalType": "address",
              "name": "owner",
              "type": "address"
            },
            {
              "internalType": "string",
              "name": "name",
              "type": "string"
            },
            {
              "internalType": "uint256",
              "name": "position",
              "type": "uint256"
            },
            {
              "internalType": "address",
              "name": "tokenAddress",
              "type": "address"
            },
            {
              "internalType": "uint256",
              "name": "purchaseValue",
              "type": "uint256"
            },
            {
              "internalType": "uint256",
              "name": "rentAmount",
              "type": "uint256"
            }
          ],
          "internalType": "struct IPropertyNFT.Property",
          "name": "",
          "type": "tuple"
        }
      ],
      "stateMutability": "view",
      "type": "function"
    },
    {
      "inputs": [
        {
          "internalType": "address",
          "name": "user_account",
          "type": "address"
        }
      ],
      "name": "getUserGames",
      "outputs": [
        {
          "internalType": "uint256[]",
          "name": "",
          "type": "uint256[]"
        }
      ],
      "stateMutability": "view",
      "type": "function"
    },
    {
      "inputs": [
        {
          "internalType": "uint256",
          "name": "",
          "type": "uint256"
        },
        {
          "internalType": "address",
          "name": "",
          "type": "address"
        }
      ],
      "name": "isPlayerInGame",
      "outputs": [
        {
          "internalType": "bool",
          "name": "",
          "type": "bool"
        }
      ],
      "stateMutability": "view",
      "type": "function"
    },
    {
      "inputs": [
        {
          "internalType": "uint256",
          "name": "game_id",
          "type": "uint256"
        },
        {
          "internalType": "address",
          "name": "user_account",
          "type": "address"
        }
      ],
      "name": "isPlayerInGameView",
      "outputs": [
        {
          "internalType": "bool",
          "name": "",
          "type": "bool"
        }
      ],
      "stateMutability": "view",
      "type": "function"
    },
    {
      "inputs": [
        {
          "internalType": "address",
          "name": "player_address",
          "type": "address"
        },
        {
          "internalType": "address",
          "name": "token_address_1",
          "type": "address"
        },
        {
          "internalType": "address",
          "name": "token_address_2",
          "type": "address"
        },
        {
          "internalType": "address",
          "name": "token_address_3",
          "type": "address"
        },
        {
          "internalType": "address",
          "name": "token_address_4",
          "type": "address"
        }
      ],
      "name": "mintAllTokens",
      "outputs": [],
      "stateMutability": "nonpayable",
      "type": "function"
    },
    {
      "inputs": [
        {
          "internalType": "uint256",
          "name": "game_id",
          "type": "uint256"
        },
        {
          "internalType": "address",
          "name": "user_account",
          "type": "address"
        },
        {
          "internalType": "uint256",
          "name": "steps",
          "type": "uint256"
        },
        {
          "internalType": "bool",
          "name": "purchase",
          "type": "bool"
        },
        {
          "internalType": "string",
          "name": "name",
          "type": "string"
        },
        {
          "internalType": "address",
          "name": "token_address",
          "type": "address"
        },
        {
          "internalType": "uint256",
          "name": "purchase_value",
          "type": "uint256"
        },
        {
          "internalType": "address",
          "name": "next_player",
          "type": "address"
        }
      ],
      "name": "move",
      "outputs": [],
      "stateMutability": "nonpayable",
      "type": "function"
    },
    {
      "inputs": [
        {
          "internalType": "uint256",
          "name": "game_id",
          "type": "uint256"
        },
        {
          "internalType": "address",
          "name": "user_account",
          "type": "address"
        }
      ],
      "name": "onboardPlayer",
      "outputs": [],
      "stateMutability": "nonpayable",
      "type": "function"
    },
    {
      "inputs": [],
      "name": "owner",
      "outputs": [
        {
          "internalType": "address",
          "name": "",
          "type": "address"
        }
      ],
      "stateMutability": "view",
      "type": "function"
    },
    {
      "inputs": [
        {
          "internalType": "uint256",
          "name": "",
          "type": "uint256"
        },
        {
          "internalType": "address",
          "name": "",
          "type": "address"
        }
      ],
      "name": "playerPositions",
      "outputs": [
        {
          "internalType": "address",
          "name": "user_account",
          "type": "address"
        },
        {
          "internalType": "uint256",
          "name": "game_id",
          "type": "uint256"
        },
        {
          "internalType": "uint256",
          "name": "position",
          "type": "uint256"
        }
      ],
      "stateMutability": "view",
      "type": "function"
    },
    {
      "inputs": [
        {
          "internalType": "uint256",
          "name": "",
          "type": "uint256"
        },
        {
          "internalType": "address",
          "name": "",
          "type": "address"
        },
        {
          "internalType": "uint256",
          "name": "",
          "type": "uint256"
        }
      ],
      "name": "playerProperties",
      "outputs": [
        {
          "internalType": "uint256",
          "name": "nft_id",
          "type": "uint256"
        },
        {
          "internalType": "uint256",
          "name": "stake_amount",
          "type": "uint256"
        },
        {
          "internalType": "address",
          "name": "token",
          "type": "address"
        },
        {
          "internalType": "bool",
          "name": "exists",
          "type": "bool"
        }
      ],
      "stateMutability": "view",
      "type": "function"
    },
    {
      "inputs": [
        {
          "internalType": "uint256",
          "name": "",
          "type": "uint256"
        }
      ],
      "name": "playerTurns",
      "outputs": [
        {
          "internalType": "address",
          "name": "",
          "type": "address"
        }
      ],
      "stateMutability": "view",
      "type": "function"
    },
    {
      "inputs": [],
      "name": "renounceOwnership",
      "outputs": [],
      "stateMutability": "nonpayable",
      "type": "function"
    },
    {
      "inputs": [
        {
          "internalType": "address",
          "name": "newOwner",
          "type": "address"
        }
      ],
      "name": "transferOwnership",
      "outputs": [],
      "stateMutability": "nonpayable",
      "type": "function"
    },
    {
      "inputs": [
        {
          "internalType": "uint256",
          "name": "game_id",
          "type": "uint256"
        },
        {
          "internalType": "address",
          "name": "user_account",
          "type": "address"
        },
        {
          "internalType": "uint256",
          "name": "nft_id",
          "type": "uint256"
        },
        {
          "internalType": "uint256",
          "name": "new_stake_amount",
          "type": "uint256"
        },
        {
          "internalType": "address",
          "name": "new_token_address",
          "type": "address"
        }
      ],
      "name": "updatePlayerStakeAmount",
      "outputs": [],
      "stateMutability": "nonpayable",
      "type": "function"
    },
    {
      "inputs": [
        {
          "internalType": "uint256",
          "name": "game_id",
          "type": "uint256"
        },
        {
          "internalType": "address",
          "name": "new_user_account",
          "type": "address"
        }
      ],
      "name": "updatePlayerTurn",
      "outputs": [],
      "stateMutability": "nonpayable",
      "type": "function"
    },
    {
      "inputs": [
        {
          "internalType": "address",
          "name": "",
          "type": "address"
        },
        {
          "internalType": "uint256",
          "name": "",
          "type": "uint256"
        }
      ],
      "name": "userGames",
      "outputs": [
        {
          "internalType": "uint256",
          "name": "",
          "type": "uint256"
        }
      ],
      "stateMutability": "view",
      "type": "function"
    }
  ],
  "bytecode": "0x60a060405234801561001057600080fd5b50604051615a9f380380615a9f83398181016040528101906100329190610217565b81600073ffffffffffffffffffffffffffffffffffffffff168173ffffffffffffffffffffffffffffffffffffffff16036100a55760006040517f1e4fbdf700000000000000000000000000000000000000000000000000000000815260040161009c9190610266565b60405180910390fd5b6100b4816100f060201b60201c565b508073ffffffffffffffffffffffffffffffffffffffff1660808173ffffffffffffffffffffffffffffffffffffffff16815250505050610281565b60008060009054906101000a900473ffffffffffffffffffffffffffffffffffffffff169050816000806101000a81548173ffffffffffffffffffffffffffffffffffffffff021916908373ffffffffffffffffffffffffffffffffffffffff1602179055508173ffffffffffffffffffffffffffffffffffffffff168173ffffffffffffffffffffffffffffffffffffffff167f8be0079c531659141344cd1fd0a4f28419497f9722a3daafe3b4186f6b6457e060405160405180910390a35050565b600080fd5b600073ffffffffffffffffffffffffffffffffffffffff82169050919050565b60006101e4826101b9565b9050919050565b6101f4816101d9565b81146101ff57600080fd5b50565b600081519050610211816101eb565b92915050565b6000806040838503121561022e5761022d6101b4565b5b600061023c85828601610202565b925050602061024d85828601610202565b9150509250929050565b610260816101d9565b82525050565b600060208201905061027b6000830184610257565b92915050565b6080516157f56102aa600039600081816107c401528181611b0a0152613a2a01526157f56000f3fe608060405234801561001057600080fd5b50600436106101f05760003560e01c80637cb0ec7e1161010f578063cce8328c116100a2578063f0da2a1d11610071578063f0da2a1d14610612578063f2fde38b14610643578063f5e9ca081461065f578063f7f281ce14610691576101f0565b8063cce8328c14610566578063d75f356714610596578063da9a9089146105b2578063e319bc10146105e2576101f0565b8063a7010d93116100de578063a7010d93146104a6578063ab1205e9146104d6578063bc0167cd14610506578063c02a8e4314610536576101f0565b80637cb0ec7e146104345780637de182c5146104505780638c247b2a1461046c5780638da5cb5b14610488576101f0565b80633d85ed611161018757806352fcbcbf1161015657806352fcbcbf146103bd578063715018a6146103d957806372e1ca50146103e357806373b1222a14610416576101f0565b80633d85ed611461034d5780634066a76514610369578063497eed80146103855780634ed4c5b0146103a1576101f0565b806315a40f49116101c357806315a40f49146102b557806318536540146102e5578063262709e614610301578063366adc601461031d576101f0565b80630c7b7748146101f55780630d3b404f14610225578063120aace614610255578063126dbe4314610285575b600080fd5b61020f600480360381019061020a91906140d3565b6106c1565b60405161021c9190614141565b60405180910390f35b61023f600480360381019061023a9190614188565b6106f4565b60405161024c91906141e3565b60405180910390f35b61026f600480360381019061026a91906141fe565b610723565b60405161027c91906142e9565b60405180910390f35b61029f600480360381019061029a91906140d3565b6107ba565b6040516102ac9190614433565b60405180910390f35b6102cf60048036038101906102ca91906140d3565b610868565b6040516102dc9190614504565b60405180910390f35b6102ff60048036038101906102fa9190614188565b610909565b005b61031b60048036038101906103169190614526565b61092d565b005b610337600480360381019061033291906140d3565b610ad0565b604051610344919061466a565b60405180910390f35b6103676004803603810190610362919061468c565b610ce8565b005b610383600480360381019061037e9190614188565b610f91565b005b61039f600480360381019061039a9190614707565b6111b9565b005b6103bb60048036038101906103b6919061475a565b61146a565b005b6103d760048036038101906103d29190614936565b61193c565b005b6103e1611a7d565b005b6103fd60048036038101906103f89190614707565b611a91565b60405161040d9493929190614a17565b60405180910390f35b61041e611b08565b60405161042b9190614141565b60405180910390f35b61044e60048036038101906104499190614188565b611b2c565b005b61046a60048036038101906104659190614526565b611cd4565b005b6104866004803603810190610481919061475a565b611db5565b005b61049061208f565b60405161049d9190614141565b60405180910390f35b6104c060048036038101906104bb9190614188565b6120b8565b6040516104cd91906141e3565b60405180910390f35b6104f060048036038101906104eb91906140d3565b612120565b6040516104fd9190614a5c565b60405180910390f35b610520600480360381019061051b9190614a77565b612140565b60405161052d9190614a5c565b60405180910390f35b610550600480360381019061054b9190614188565b612171565b60405161055d9190614bca565b60405180910390f35b610580600480360381019061057b9190614bec565b6123bd565b60405161058d9190614141565b60405180910390f35b6105b060048036038101906105ab9190614ce2565b61240b565b005b6105cc60048036038101906105c791906140d3565b612811565b6040516105d99190614141565b60405180910390f35b6105fc60048036038101906105f79190614707565b61284e565b6040516106099190614dcc565b60405180910390f35b61062c60048036038101906106279190614188565b612a01565b60405161063a929190614de7565b60405180910390f35b61065d600480360381019061065891906141fe565b612b9f565b005b61067960048036038101906106749190614188565b612c25565b60405161068893929190614e1e565b60405180910390f35b6106ab60048036038101906106a69190614188565b612c7c565b6040516106b89190614e97565b60405180910390f35b60046020528060005260406000206000915054906101000a900473ffffffffffffffffffffffffffffffffffffffff1681565b60066020528160005260406000206020528060005260406000206000915091509054906101000a900460ff1681565b6060600760008373ffffffffffffffffffffffffffffffffffffffff1673ffffffffffffffffffffffffffffffffffffffff1681526020019081526020016000208054806020026020016040519081016040528092919081815260200182805480156107ae57602002820191906000526020600020905b81548152602001906001019080831161079a575b50505050509050919050565b6107c2613fb0565b7f000000000000000000000000000000000000000000000000000000000000000073ffffffffffffffffffffffffffffffffffffffff166332665ffb836040518263ffffffff1660e01b815260040161081b9190614a5c565b600060405180830381865afa158015610838573d6000803e3d6000fd5b505050506040513d6000823e3d601f19601f820116820180604052508101906108619190615012565b9050919050565b6060600560008381526020019081526020016000208054806020026020016040519081016040528092919081815260200182805480156108fd57602002820191906000526020600020905b8160009054906101000a900473ffffffffffffffffffffffffffffffffffffffff1673ffffffffffffffffffffffffffffffffffffffff16815260200190600101908083116108b3575b50505050509050919050565b6109138282612d51565b61091f82826000612f3f565b61092982826131fb565b5050565b600073ffffffffffffffffffffffffffffffffffffffff168273ffffffffffffffffffffffffffffffffffffffff160361099c576040517f08c379a0000000000000000000000000000000000000000000000000000000008152600401610993906150b8565b60405180910390fd5b60008273ffffffffffffffffffffffffffffffffffffffff166370a08231856040518263ffffffff1660e01b81526004016109d79190614141565b602060405180830381865afa1580156109f4573d6000803e3d6000fd5b505050506040513d601f19601f82011682018060405250810190610a1891906150d8565b905081811015610a5d576040517f08c379a0000000000000000000000000000000000000000000000000000000008152600401610a5490615151565b60405180910390fd5b8273ffffffffffffffffffffffffffffffffffffffff166379cc679085846040518363ffffffff1660e01b8152600401610a98929190615171565b600060405180830381600087803b158015610ab257600080fd5b505af1158015610ac6573d6000803e3d6000fd5b5050505050505050565b6060600060056000848152602001908152602001600020805480602002602001604051908101604052809291908181526020018280548015610b6757602002820191906000526020600020905b8160009054906101000a900473ffffffffffffffffffffffffffffffffffffffff1673ffffffffffffffffffffffffffffffffffffffff1681526020019060010190808311610b1d575b505050505090506000815167ffffffffffffffff811115610b8b57610b8a61480b565b5b604051908082528060200260200182016040528015610bc457816020015b610bb1614012565b815260200190600190039081610ba95790505b50905060005b8251811015610cdd57600360008681526020019081526020016000206000848381518110610bfb57610bfa61519a565b5b602002602001015173ffffffffffffffffffffffffffffffffffffffff1673ffffffffffffffffffffffffffffffffffffffff1681526020019081526020016000206040518060600160405290816000820160009054906101000a900473ffffffffffffffffffffffffffffffffffffffff1673ffffffffffffffffffffffffffffffffffffffff1673ffffffffffffffffffffffffffffffffffffffff16815260200160018201548152602001600282015481525050828281518110610cc557610cc461519a565b5b60200260200101819052508080600101915050610bca565b508092505050919050565b84846006600083815260200190815260200160002060008273ffffffffffffffffffffffffffffffffffffffff1673ffffffffffffffffffffffffffffffffffffffff16815260200190815260200160002060009054906101000a900460ff16610d87576040517f08c379a0000000000000000000000000000000000000000000000000000000008152600401610d7e90615215565b60405180910390fd5b610d8f61208f565b73ffffffffffffffffffffffffffffffffffffffff163373ffffffffffffffffffffffffffffffffffffffff161480610df357508573ffffffffffffffffffffffffffffffffffffffff163373ffffffffffffffffffffffffffffffffffffffff16145b610e32576040517f08c379a0000000000000000000000000000000000000000000000000000000008152600401610e2990615281565b60405180910390fd5b60006001600089815260200190815260200160002060008873ffffffffffffffffffffffffffffffffffffffff1673ffffffffffffffffffffffffffffffffffffffff168152602001908152602001600020600087815260200190815260200160002090508060020160149054906101000a900460ff16610ee8576040517f08c379a0000000000000000000000000000000000000000000000000000000008152600401610edf906152ed565b60405180910390fd5b848160010181905550838160020160006101000a81548173ffffffffffffffffffffffffffffffffffffffff021916908373ffffffffffffffffffffffffffffffffffffffff160217905550878773ffffffffffffffffffffffffffffffffffffffff167f87647481c12b66c23d22b6734b51050f0f6e5b2af709e567489a3e473e120440888888604051610f7f9392919061530d565b60405180910390a35050505050505050565b81816006600083815260200190815260200160002060008273ffffffffffffffffffffffffffffffffffffffff1673ffffffffffffffffffffffffffffffffffffffff16815260200190815260200160002060009054906101000a900460ff16611030576040517f08c379a000000000000000000000000000000000000000000000000000000000815260040161102790615215565b60405180910390fd5b61103861208f565b73ffffffffffffffffffffffffffffffffffffffff163373ffffffffffffffffffffffffffffffffffffffff16148061109c57508273ffffffffffffffffffffffffffffffffffffffff163373ffffffffffffffffffffffffffffffffffffffff16145b6110db576040517f08c379a00000000000000000000000000000000000000000000000000000000081526004016110d290615281565b60405180910390fd5b6003600085815260200190815260200160002060008473ffffffffffffffffffffffffffffffffffffffff1673ffffffffffffffffffffffffffffffffffffffff168152602001908152602001600020600080820160006101000a81549073ffffffffffffffffffffffffffffffffffffffff021916905560018201600090556002820160009055505061116f8484613418565b8273ffffffffffffffffffffffffffffffffffffffff16847fd0fc34423e42892f3ede9e76219ff22569925f08fd41017ecef6652484f93cbb60405160405180910390a350505050565b82826006600083815260200190815260200160002060008273ffffffffffffffffffffffffffffffffffffffff1673ffffffffffffffffffffffffffffffffffffffff16815260200190815260200160002060009054906101000a900460ff16611258576040517f08c379a000000000000000000000000000000000000000000000000000000000815260040161124f90615215565b60405180910390fd5b61126061208f565b73ffffffffffffffffffffffffffffffffffffffff163373ffffffffffffffffffffffffffffffffffffffff1614806112c457508373ffffffffffffffffffffffffffffffffffffffff163373ffffffffffffffffffffffffffffffffffffffff16145b611303576040517f08c379a00000000000000000000000000000000000000000000000000000000081526004016112fa90615281565b60405180910390fd5b6001600086815260200190815260200160002060008573ffffffffffffffffffffffffffffffffffffffff1673ffffffffffffffffffffffffffffffffffffffff168152602001908152602001600020600084815260200190815260200160002060020160149054906101000a900460ff166113b4576040517f08c379a00000000000000000000000000000000000000000000000000000000081526004016113ab906152ed565b60405180910390fd5b6001600086815260200190815260200160002060008573ffffffffffffffffffffffffffffffffffffffff1673ffffffffffffffffffffffffffffffffffffffff168152602001908152602001600020600084815260200190815260200160002060008082016000905560018201600090556002820160006101000a81549073ffffffffffffffffffffffffffffffffffffffff02191690556002820160146101000a81549060ff021916905550505050505050565b600073ffffffffffffffffffffffffffffffffffffffff168473ffffffffffffffffffffffffffffffffffffffff16141580156114d45750600073ffffffffffffffffffffffffffffffffffffffff168373ffffffffffffffffffffffffffffffffffffffff1614155b801561150d5750600073ffffffffffffffffffffffffffffffffffffffff168273ffffffffffffffffffffffffffffffffffffffff1614155b80156115465750600073ffffffffffffffffffffffffffffffffffffffff168173ffffffffffffffffffffffffffffffffffffffff1614155b611585576040517f08c379a000000000000000000000000000000000000000000000000000000000815260040161157c906150b8565b60405180910390fd5b60008473ffffffffffffffffffffffffffffffffffffffff166370a08231876040518263ffffffff1660e01b81526004016115c09190614141565b602060405180830381865afa1580156115dd573d6000803e3d6000fd5b505050506040513d601f19601f8201168201806040525081019061160191906150d8565b905060008473ffffffffffffffffffffffffffffffffffffffff166370a08231886040518263ffffffff1660e01b815260040161163e9190614141565b602060405180830381865afa15801561165b573d6000803e3d6000fd5b505050506040513d601f19601f8201168201806040525081019061167f91906150d8565b905060008473ffffffffffffffffffffffffffffffffffffffff166370a08231896040518263ffffffff1660e01b81526004016116bc9190614141565b602060405180830381865afa1580156116d9573d6000803e3d6000fd5b505050506040513d601f19601f820116820180604052508101906116fd91906150d8565b905060008473ffffffffffffffffffffffffffffffffffffffff166370a082318a6040518263ffffffff1660e01b815260040161173a9190614141565b602060405180830381865afa158015611757573d6000803e3d6000fd5b505050506040513d601f19601f8201168201806040525081019061177b91906150d8565b90508773ffffffffffffffffffffffffffffffffffffffff166379cc67908a866040518363ffffffff1660e01b81526004016117b8929190615171565b600060405180830381600087803b1580156117d257600080fd5b505af11580156117e6573d6000803e3d6000fd5b505050508673ffffffffffffffffffffffffffffffffffffffff166379cc67908a856040518363ffffffff1660e01b8152600401611825929190615171565b600060405180830381600087803b15801561183f57600080fd5b505af1158015611853573d6000803e3d6000fd5b505050508573ffffffffffffffffffffffffffffffffffffffff166379cc67908a846040518363ffffffff1660e01b8152600401611892929190615171565b600060405180830381600087803b1580156118ac57600080fd5b505af11580156118c0573d6000803e3d6000fd5b505050508473ffffffffffffffffffffffffffffffffffffffff166379cc67908a836040518363ffffffff1660e01b81526004016118ff929190615171565b600060405180830381600087803b15801561191957600080fd5b505af115801561192d573d6000803e3d6000fd5b50505050505050505050505050565b6006600089815260200190815260200160002060008873ffffffffffffffffffffffffffffffffffffffff1673ffffffffffffffffffffffffffffffffffffffff16815260200190815260200160002060009054906101000a900460ff166119d9576040517f08c379a00000000000000000000000000000000000000000000000000000000081526004016119d090615215565b60405180910390fd5b6000600360008a815260200190815260200160002060008973ffffffffffffffffffffffffffffffffffffffff1673ffffffffffffffffffffffffffffffffffffffff16815260200190815260200160002060020154905060008782611a3f9190615373565b9050611a4c8a8a83613782565b8615611a6657611a6189878388888f8961397a565b611a71565b611a708a846131fb565b5b50505050505050505050565b611a85613aed565b611a8f6000613b74565b565b600160205282600052604060002060205281600052604060002060205280600052604060002060009250925050508060000154908060010154908060020160009054906101000a900473ffffffffffffffffffffffffffffffffffffffff16908060020160149054906101000a900460ff16905084565b7f000000000000000000000000000000000000000000000000000000000000000081565b80600073ffffffffffffffffffffffffffffffffffffffff168173ffffffffffffffffffffffffffffffffffffffff1603611b9c576040517f08c379a0000000000000000000000000000000000000000000000000000000008152600401611b93906153f3565b60405180910390fd5b6006600084815260200190815260200160002060008373ffffffffffffffffffffffffffffffffffffffff1673ffffffffffffffffffffffffffffffffffffffff16815260200190815260200160002060009054906101000a900460ff16611c39576040517f08c379a0000000000000000000000000000000000000000000000000000000008152600401611c3090615215565b60405180910390fd5b816004600085815260200190815260200160002060006101000a81548173ffffffffffffffffffffffffffffffffffffffff021916908373ffffffffffffffffffffffffffffffffffffffff1602179055508173ffffffffffffffffffffffffffffffffffffffff16837f900138382a21b9499837672ce8cc6a4843799e62bcb2aa9880dda802a9a6903560405160405180910390a3505050565b600073ffffffffffffffffffffffffffffffffffffffff168273ffffffffffffffffffffffffffffffffffffffff1603611d43576040517f08c379a0000000000000000000000000000000000000000000000000000000008152600401611d3a906150b8565b60405180910390fd5b8173ffffffffffffffffffffffffffffffffffffffff166340c10f1984836040518363ffffffff1660e01b8152600401611d7e929190615171565b600060405180830381600087803b158015611d9857600080fd5b505af1158015611dac573d6000803e3d6000fd5b50505050505050565b600073ffffffffffffffffffffffffffffffffffffffff168473ffffffffffffffffffffffffffffffffffffffff1614158015611e1f5750600073ffffffffffffffffffffffffffffffffffffffff168373ffffffffffffffffffffffffffffffffffffffff1614155b8015611e585750600073ffffffffffffffffffffffffffffffffffffffff168273ffffffffffffffffffffffffffffffffffffffff1614155b8015611e915750600073ffffffffffffffffffffffffffffffffffffffff168173ffffffffffffffffffffffffffffffffffffffff1614155b611ed0576040517f08c379a0000000000000000000000000000000000000000000000000000000008152600401611ec7906150b8565b60405180910390fd5b8373ffffffffffffffffffffffffffffffffffffffff166340c10f198660646040518363ffffffff1660e01b8152600401611f0c929190615458565b600060405180830381600087803b158015611f2657600080fd5b505af1158015611f3a573d6000803e3d6000fd5b505050508273ffffffffffffffffffffffffffffffffffffffff166340c10f198660646040518363ffffffff1660e01b8152600401611f7a929190615458565b600060405180830381600087803b158015611f9457600080fd5b505af1158015611fa8573d6000803e3d6000fd5b505050508173ffffffffffffffffffffffffffffffffffffffff166340c10f198660646040518363ffffffff1660e01b8152600401611fe8929190615458565b600060405180830381600087803b15801561200257600080fd5b505af1158015612016573d6000803e3d6000fd5b505050508073ffffffffffffffffffffffffffffffffffffffff166340c10f198660646040518363ffffffff1660e01b8152600401612056929190615458565b600060405180830381600087803b15801561207057600080fd5b505af1158015612084573d6000803e3d6000fd5b505050505050505050565b60008060009054906101000a900473ffffffffffffffffffffffffffffffffffffffff16905090565b60006006600084815260200190815260200160002060008373ffffffffffffffffffffffffffffffffffffffff1673ffffffffffffffffffffffffffffffffffffffff16815260200190815260200160002060009054906101000a900460ff16905092915050565b600060056000838152602001908152602001600020805490509050919050565b6007602052816000526040600020818154811061215c57600080fd5b90600052602060002001600091509150505481565b606060006002600085815260200190815260200160002060008473ffffffffffffffffffffffffffffffffffffffff1673ffffffffffffffffffffffffffffffffffffffff16815260200190815260200160002080548060200260200160405190810160405280929190818152602001828054801561220f57602002820191906000526020600020905b8154815260200190600101908083116121fb575b505050505090506000815167ffffffffffffffff8111156122335761223261480b565b5b60405190808252806020026020018201604052801561226c57816020015b612259614049565b8152602001906001900390816122515790505b50905060005b82518110156123b1576001600087815260200190815260200160002060008673ffffffffffffffffffffffffffffffffffffffff1673ffffffffffffffffffffffffffffffffffffffff16815260200190815260200160002060008483815181106122e0576122df61519a565b5b6020026020010151815260200190815260200160002060405180608001604052908160008201548152602001600182015481526020016002820160009054906101000a900473ffffffffffffffffffffffffffffffffffffffff1673ffffffffffffffffffffffffffffffffffffffff1673ffffffffffffffffffffffffffffffffffffffff1681526020016002820160149054906101000a900460ff1615151515815250508282815181106123995761239861519a565b5b60200260200101819052508080600101915050612272565b50809250505092915050565b600560205281600052604060002081815481106123d957600080fd5b906000526020600020016000915091509054906101000a900473ffffffffffffffffffffffffffffffffffffffff1681565b61241361208f565b73ffffffffffffffffffffffffffffffffffffffff163373ffffffffffffffffffffffffffffffffffffffff1614612480576040517f08c379a0000000000000000000000000000000000000000000000000000000008152600401612477906154f3565b60405180910390fd5b8181905084849050146124c8576040517f08c379a00000000000000000000000000000000000000000000000000000000081526004016124bf9061555f565b60405180910390fd5b60005b8484905081101561280957600073ffffffffffffffffffffffffffffffffffffffff168585838181106125015761250061519a565b5b905060200201602081019061251691906141fe565b73ffffffffffffffffffffffffffffffffffffffff160361256c576040517f08c379a0000000000000000000000000000000000000000000000000000000008152600401612563906153f3565b60405180910390fd5b6006600087815260200190815260200160002060008686848181106125945761259361519a565b5b90506020020160208101906125a991906141fe565b73ffffffffffffffffffffffffffffffffffffffff1673ffffffffffffffffffffffffffffffffffffffff16815260200190815260200160002060009054906101000a900460ff16612627576126268686868481811061260c5761260b61519a565b5b905060200201602081019061262191906141fe565b612d51565b5b60405180606001604052808686848181106126455761264461519a565b5b905060200201602081019061265a91906141fe565b73ffffffffffffffffffffffffffffffffffffffff16815260200187815260200184848481811061268e5761268d61519a565b5b905060200201358152506003600088815260200190815260200160002060008787858181106126c0576126bf61519a565b5b90506020020160208101906126d591906141fe565b73ffffffffffffffffffffffffffffffffffffffff1673ffffffffffffffffffffffffffffffffffffffff16815260200190815260200160002060008201518160000160006101000a81548173ffffffffffffffffffffffffffffffffffffffff021916908373ffffffffffffffffffffffffffffffffffffffff16021790555060208201518160010155604082015181600201559050508484828181106127805761277f61519a565b5b905060200201602081019061279591906141fe565b73ffffffffffffffffffffffffffffffffffffffff16867fca15e30f8364a782f08c5f2fbc1d498daca1910d21d967d8b23ba8b596452c1a8585858181106127e0576127df61519a565b5b905060200201356040516127f49190614a5c565b60405180910390a380806001019150506124cb565b505050505050565b60006004600083815260200190815260200160002060009054906101000a900473ffffffffffffffffffffffffffffffffffffffff169050919050565b612856614049565b6001600085815260200190815260200160002060008473ffffffffffffffffffffffffffffffffffffffff1673ffffffffffffffffffffffffffffffffffffffff168152602001908152602001600020600083815260200190815260200160002060020160149054906101000a900460ff16612907576040517f08c379a00000000000000000000000000000000000000000000000000000000081526004016128fe906152ed565b60405180910390fd5b6001600085815260200190815260200160002060008473ffffffffffffffffffffffffffffffffffffffff1673ffffffffffffffffffffffffffffffffffffffff168152602001908152602001600020600083815260200190815260200160002060405180608001604052908160008201548152602001600182015481526020016002820160009054906101000a900473ffffffffffffffffffffffffffffffffffffffff1673ffffffffffffffffffffffffffffffffffffffff1673ffffffffffffffffffffffffffffffffffffffff1681526020016002820160149054906101000a900460ff16151515158152505090509392505050565b6060806000612a0f85610868565b90506000815167ffffffffffffffff811115612a2e57612a2d61480b565b5b604051908082528060200260200182016040528015612a6757816020015b612a54614012565b815260200190600190039081612a4c5790505b50905060005b8251811015612b8057600360008881526020019081526020016000206000848381518110612a9e57612a9d61519a565b5b602002602001015173ffffffffffffffffffffffffffffffffffffffff1673ffffffffffffffffffffffffffffffffffffffff1681526020019081526020016000206040518060600160405290816000820160009054906101000a900473ffffffffffffffffffffffffffffffffffffffff1673ffffffffffffffffffffffffffffffffffffffff1673ffffffffffffffffffffffffffffffffffffffff16815260200160018201548152602001600282015481525050828281518110612b6857612b6761519a565b5b60200260200101819052508080600101915050612a6d565b506000612b8d8787612171565b90508181945094505050509250929050565b612ba7613aed565b600073ffffffffffffffffffffffffffffffffffffffff168173ffffffffffffffffffffffffffffffffffffffff1603612c195760006040517f1e4fbdf7000000000000000000000000000000000000000000000000000000008152600401612c109190614141565b60405180910390fd5b612c2281613b74565b50565b6003602052816000526040600020602052806000526040600020600091509150508060000160009054906101000a900473ffffffffffffffffffffffffffffffffffffffff16908060010154908060020154905083565b612c84614012565b6003600084815260200190815260200160002060008373ffffffffffffffffffffffffffffffffffffffff1673ffffffffffffffffffffffffffffffffffffffff1681526020019081526020016000206040518060600160405290816000820160009054906101000a900473ffffffffffffffffffffffffffffffffffffffff1673ffffffffffffffffffffffffffffffffffffffff1673ffffffffffffffffffffffffffffffffffffffff16815260200160018201548152602001600282015481525050905092915050565b6006600083815260200190815260200160002060008273ffffffffffffffffffffffffffffffffffffffff1673ffffffffffffffffffffffffffffffffffffffff16815260200190815260200160002060009054906101000a900460ff16612f3b5760056000838152602001908152602001600020819080600181540180825580915050600190039060005260206000200160009091909190916101000a81548173ffffffffffffffffffffffffffffffffffffffff021916908373ffffffffffffffffffffffffffffffffffffffff16021790555060016006600084815260200190815260200160002060008373ffffffffffffffffffffffffffffffffffffffff1673ffffffffffffffffffffffffffffffffffffffff16815260200190815260200160002060006101000a81548160ff021916908315150217905550600760008273ffffffffffffffffffffffffffffffffffffffff1673ffffffffffffffffffffffffffffffffffffffff1681526020019081526020016000208290806001815401808255809150506001900390600052602060002001600090919091909150558073ffffffffffffffffffffffffffffffffffffffff16827fe52d81459d9994c73740ea14247d27531f0f00be7c54bc1b8b759df2feda9fe760405160405180910390a35b5050565b81600073ffffffffffffffffffffffffffffffffffffffff168173ffffffffffffffffffffffffffffffffffffffff1603612faf576040517f08c379a0000000000000000000000000000000000000000000000000000000008152600401612fa6906153f3565b60405180910390fd5b612fb761208f565b73ffffffffffffffffffffffffffffffffffffffff163373ffffffffffffffffffffffffffffffffffffffff16148061301b57508273ffffffffffffffffffffffffffffffffffffffff163373ffffffffffffffffffffffffffffffffffffffff16145b61305a576040517f08c379a000000000000000000000000000000000000000000000000000000000815260040161305190615281565b60405180910390fd5b6006600085815260200190815260200160002060008473ffffffffffffffffffffffffffffffffffffffff1673ffffffffffffffffffffffffffffffffffffffff16815260200190815260200160002060009054906101000a900460ff166130c7576130c68484612d51565b5b60405180606001604052808473ffffffffffffffffffffffffffffffffffffffff168152602001858152602001838152506003600086815260200190815260200160002060008573ffffffffffffffffffffffffffffffffffffffff1673ffffffffffffffffffffffffffffffffffffffff16815260200190815260200160002060008201518160000160006101000a81548173ffffffffffffffffffffffffffffffffffffffff021916908373ffffffffffffffffffffffffffffffffffffffff16021790555060208201518160010155604082015181600201559050508273ffffffffffffffffffffffffffffffffffffffff16847fca15e30f8364a782f08c5f2fbc1d498daca1910d21d967d8b23ba8b596452c1a846040516131ed9190614a5c565b60405180910390a350505050565b80600073ffffffffffffffffffffffffffffffffffffffff168173ffffffffffffffffffffffffffffffffffffffff160361326b576040517f08c379a0000000000000000000000000000000000000000000000000000000008152600401613262906153f3565b60405180910390fd5b61327361208f565b73ffffffffffffffffffffffffffffffffffffffff163373ffffffffffffffffffffffffffffffffffffffff16146132e0576040517f08c379a00000000000000000000000000000000000000000000000000000000081526004016132d7906155cb565b60405180910390fd5b6006600084815260200190815260200160002060008373ffffffffffffffffffffffffffffffffffffffff1673ffffffffffffffffffffffffffffffffffffffff16815260200190815260200160002060009054906101000a900460ff1661337d576040517f08c379a000000000000000000000000000000000000000000000000000000000815260040161337490615215565b60405180910390fd5b816004600085815260200190815260200160002060006101000a81548173ffffffffffffffffffffffffffffffffffffffff021916908373ffffffffffffffffffffffffffffffffffffffff1602179055508173ffffffffffffffffffffffffffffffffffffffff16837f900138382a21b9499837672ce8cc6a4843799e62bcb2aa9880dda802a9a6903560405160405180910390a3505050565b6006600083815260200190815260200160002060008273ffffffffffffffffffffffffffffffffffffffff1673ffffffffffffffffffffffffffffffffffffffff16815260200190815260200160002060009054906101000a900460ff161561377e5760006006600084815260200190815260200160002060008373ffffffffffffffffffffffffffffffffffffffff1673ffffffffffffffffffffffffffffffffffffffff16815260200190815260200160002060006101000a81548160ff021916908315150217905550600060056000848152602001908152602001600020905060005b818054905081101561367b578273ffffffffffffffffffffffffffffffffffffffff168282815481106135345761353361519a565b5b9060005260206000200160009054906101000a900473ffffffffffffffffffffffffffffffffffffffff1673ffffffffffffffffffffffffffffffffffffffff160361366e57816001838054905061358c91906155eb565b8154811061359d5761359c61519a565b5b9060005260206000200160009054906101000a900473ffffffffffffffffffffffffffffffffffffffff168282815481106135db576135da61519a565b5b9060005260206000200160006101000a81548173ffffffffffffffffffffffffffffffffffffffff021916908373ffffffffffffffffffffffffffffffffffffffff160217905550818054806136345761363361561f565b5b6001900381819060005260206000200160006101000a81549073ffffffffffffffffffffffffffffffffffffffff0219169055905561367b565b80806001019150506134fe565b506000600760008473ffffffffffffffffffffffffffffffffffffffff1673ffffffffffffffffffffffffffffffffffffffff168152602001908152602001600020905060005b818054905081101561377a57848282815481106136e2576136e161519a565b5b90600052602060002001540361376d57816001838054905061370491906155eb565b815481106137155761371461519a565b5b90600052602060002001548282815481106137335761373261519a565b5b9060005260206000200181905550818054806137525761375161561f565b5b6001900381819060005260206000200160009055905561377a565b80806001019150506136c2565b5050505b5050565b82826006600083815260200190815260200160002060008273ffffffffffffffffffffffffffffffffffffffff1673ffffffffffffffffffffffffffffffffffffffff16815260200190815260200160002060009054906101000a900460ff16613821576040517f08c379a000000000000000000000000000000000000000000000000000000000815260040161381890615215565b60405180910390fd5b61382961208f565b73ffffffffffffffffffffffffffffffffffffffff163373ffffffffffffffffffffffffffffffffffffffff16148061388d57508373ffffffffffffffffffffffffffffffffffffffff163373ffffffffffffffffffffffffffffffffffffffff16145b6138cc576040517f08c379a00000000000000000000000000000000000000000000000000000000081526004016138c390615281565b60405180910390fd5b826003600087815260200190815260200160002060008673ffffffffffffffffffffffffffffffffffffffff1673ffffffffffffffffffffffffffffffffffffffff168152602001908152602001600020600201819055508373ffffffffffffffffffffffffffffffffffffffff16857fca15e30f8364a782f08c5f2fbc1d498daca1910d21d967d8b23ba8b596452c1a8560405161396b9190614a5c565b60405180910390a35050505050565b8673ffffffffffffffffffffffffffffffffffffffff166004600084815260200190815260200160002060009054906101000a900473ffffffffffffffffffffffffffffffffffffffff1673ffffffffffffffffffffffffffffffffffffffff1614613a1b576040517f08c379a0000000000000000000000000000000000000000000000000000000008152600401613a129061569a565b60405180910390fd5b613a2687858561092d565b60007f000000000000000000000000000000000000000000000000000000000000000073ffffffffffffffffffffffffffffffffffffffff16635d94337f89898989896040518663ffffffff1660e01b8152600401613a899594939291906156f3565b6020604051808303816000875af1158015613aa8573d6000803e3d6000fd5b505050506040513d601f19601f82011682018060405250810190613acc91906150d8565b9050613ad9838983613c38565b613ae383836131fb565b5050505050505050565b613af5613fa8565b73ffffffffffffffffffffffffffffffffffffffff16613b1361208f565b73ffffffffffffffffffffffffffffffffffffffff1614613b7257613b36613fa8565b6040517f118cdaa7000000000000000000000000000000000000000000000000000000008152600401613b699190614141565b60405180910390fd5b565b60008060009054906101000a900473ffffffffffffffffffffffffffffffffffffffff169050816000806101000a81548173ffffffffffffffffffffffffffffffffffffffff021916908373ffffffffffffffffffffffffffffffffffffffff1602179055508173ffffffffffffffffffffffffffffffffffffffff168173ffffffffffffffffffffffffffffffffffffffff167f8be0079c531659141344cd1fd0a4f28419497f9722a3daafe3b4186f6b6457e060405160405180910390a35050565b81600073ffffffffffffffffffffffffffffffffffffffff168173ffffffffffffffffffffffffffffffffffffffff1603613ca8576040517f08c379a0000000000000000000000000000000000000000000000000000000008152600401613c9f906153f3565b60405180910390fd5b6006600085815260200190815260200160002060008473ffffffffffffffffffffffffffffffffffffffff1673ffffffffffffffffffffffffffffffffffffffff16815260200190815260200160002060009054906101000a900460ff16613d45576040517f08c379a0000000000000000000000000000000000000000000000000000000008152600401613d3c90615215565b60405180910390fd5b6001600085815260200190815260200160002060008473ffffffffffffffffffffffffffffffffffffffff1673ffffffffffffffffffffffffffffffffffffffff168152602001908152602001600020600083815260200190815260200160002060020160149054906101000a900460ff16613e33576002600085815260200190815260200160002060008473ffffffffffffffffffffffffffffffffffffffff1673ffffffffffffffffffffffffffffffffffffffff1681526020019081526020016000208290806001815401808255809150506001900390600052602060002001600090919091909150555b604051806080016040528083815260200160008152602001600073ffffffffffffffffffffffffffffffffffffffff168152602001600115158152506001600086815260200190815260200160002060008573ffffffffffffffffffffffffffffffffffffffff1673ffffffffffffffffffffffffffffffffffffffff1681526020019081526020016000206000848152602001908152602001600020600082015181600001556020820151816001015560408201518160020160006101000a81548173ffffffffffffffffffffffffffffffffffffffff021916908373ffffffffffffffffffffffffffffffffffffffff16021790555060608201518160020160146101000a81548160ff021916908315150217905550905050838373ffffffffffffffffffffffffffffffffffffffff167f87647481c12b66c23d22b6734b51050f0f6e5b2af709e567489a3e473e12044084600080604051613f9a93929190615788565b60405180910390a350505050565b600033905090565b6040518060c00160405280600073ffffffffffffffffffffffffffffffffffffffff1681526020016060815260200160008152602001600073ffffffffffffffffffffffffffffffffffffffff16815260200160008152602001600081525090565b6040518060600160405280600073ffffffffffffffffffffffffffffffffffffffff16815260200160008152602001600081525090565b60405180608001604052806000815260200160008152602001600073ffffffffffffffffffffffffffffffffffffffff1681526020016000151581525090565b6000604051905090565b600080fd5b600080fd5b6000819050919050565b6140b08161409d565b81146140bb57600080fd5b50565b6000813590506140cd816140a7565b92915050565b6000602082840312156140e9576140e8614093565b5b60006140f7848285016140be565b91505092915050565b600073ffffffffffffffffffffffffffffffffffffffff82169050919050565b600061412b82614100565b9050919050565b61413b81614120565b82525050565b60006020820190506141566000830184614132565b92915050565b61416581614120565b811461417057600080fd5b50565b6000813590506141828161415c565b92915050565b6000806040838503121561419f5761419e614093565b5b60006141ad858286016140be565b92505060206141be85828601614173565b9150509250929050565b60008115159050919050565b6141dd816141c8565b82525050565b60006020820190506141f860008301846141d4565b92915050565b60006020828403121561421457614213614093565b5b600061422284828501614173565b91505092915050565b600081519050919050565b600082825260208201905092915050565b6000819050602082019050919050565b6142608161409d565b82525050565b60006142728383614257565b60208301905092915050565b6000602082019050919050565b60006142968261422b565b6142a08185614236565b93506142ab83614247565b8060005b838110156142dc5781516142c38882614266565b97506142ce8361427e565b9250506001810190506142af565b5085935050505092915050565b60006020820190508181036000830152614303818461428b565b905092915050565b61431481614120565b82525050565b600081519050919050565b600082825260208201905092915050565b60005b83811015614354578082015181840152602081019050614339565b60008484015250505050565b6000601f19601f8301169050919050565b600061437c8261431a565b6143868185614325565b9350614396818560208601614336565b61439f81614360565b840191505092915050565b600060c0830160008301516143c2600086018261430b565b50602083015184820360208601526143da8282614371565b91505060408301516143ef6040860182614257565b506060830151614402606086018261430b565b5060808301516144156080860182614257565b5060a083015161442860a0860182614257565b508091505092915050565b6000602082019050818103600083015261444d81846143aa565b905092915050565b600081519050919050565b600082825260208201905092915050565b6000819050602082019050919050565b600061448d838361430b565b60208301905092915050565b6000602082019050919050565b60006144b182614455565b6144bb8185614460565b93506144c683614471565b8060005b838110156144f75781516144de8882614481565b97506144e983614499565b9250506001810190506144ca565b5085935050505092915050565b6000602082019050818103600083015261451e81846144a6565b905092915050565b60008060006060848603121561453f5761453e614093565b5b600061454d86828701614173565b935050602061455e86828701614173565b925050604061456f868287016140be565b9150509250925092565b600081519050919050565b600082825260208201905092915050565b6000819050602082019050919050565b6060820160008201516145bb600085018261430b565b5060208201516145ce6020850182614257565b5060408201516145e16040850182614257565b50505050565b60006145f383836145a5565b60608301905092915050565b6000602082019050919050565b600061461782614579565b6146218185614584565b935061462c83614595565b8060005b8381101561465d57815161464488826145e7565b975061464f836145ff565b925050600181019050614630565b5085935050505092915050565b60006020820190508181036000830152614684818461460c565b905092915050565b600080600080600060a086880312156146a8576146a7614093565b5b60006146b6888289016140be565b95505060206146c788828901614173565b94505060406146d8888289016140be565b93505060606146e9888289016140be565b92505060806146fa88828901614173565b9150509295509295909350565b6000806000606084860312156147205761471f614093565b5b600061472e868287016140be565b935050602061473f86828701614173565b9250506040614750868287016140be565b9150509250925092565b600080600080600060a0868803121561477657614775614093565b5b600061478488828901614173565b955050602061479588828901614173565b94505060406147a688828901614173565b93505060606147b788828901614173565b92505060806147c888828901614173565b9150509295509295909350565b6147de816141c8565b81146147e957600080fd5b50565b6000813590506147fb816147d5565b92915050565b600080fd5b600080fd5b7f4e487b7100000000000000000000000000000000000000000000000000000000600052604160045260246000fd5b61484382614360565b810181811067ffffffffffffffff821117156148625761486161480b565b5b80604052505050565b6000614875614089565b9050614881828261483a565b919050565b600067ffffffffffffffff8211156148a1576148a061480b565b5b6148aa82614360565b9050602081019050919050565b82818337600083830152505050565b60006148d96148d484614886565b61486b565b9050828152602081018484840111156148f5576148f4614806565b5b6149008482856148b7565b509392505050565b600082601f83011261491d5761491c614801565b5b813561492d8482602086016148c6565b91505092915050565b600080600080600080600080610100898b03121561495757614956614093565b5b60006149658b828c016140be565b98505060206149768b828c01614173565b97505060406149878b828c016140be565b96505060606149988b828c016147ec565b955050608089013567ffffffffffffffff8111156149b9576149b8614098565b5b6149c58b828c01614908565b94505060a06149d68b828c01614173565b93505060c06149e78b828c016140be565b92505060e06149f88b828c01614173565b9150509295985092959890939650565b614a118161409d565b82525050565b6000608082019050614a2c6000830187614a08565b614a396020830186614a08565b614a466040830185614132565b614a5360608301846141d4565b95945050505050565b6000602082019050614a716000830184614a08565b92915050565b60008060408385031215614a8e57614a8d614093565b5b6000614a9c85828601614173565b9250506020614aad858286016140be565b9150509250929050565b600081519050919050565b600082825260208201905092915050565b6000819050602082019050919050565b614aec816141c8565b82525050565b608082016000820151614b086000850182614257565b506020820151614b1b6020850182614257565b506040820151614b2e604085018261430b565b506060820151614b416060850182614ae3565b50505050565b6000614b538383614af2565b60808301905092915050565b6000602082019050919050565b6000614b7782614ab7565b614b818185614ac2565b9350614b8c83614ad3565b8060005b83811015614bbd578151614ba48882614b47565b9750614baf83614b5f565b925050600181019050614b90565b5085935050505092915050565b60006020820190508181036000830152614be48184614b6c565b905092915050565b60008060408385031215614c0357614c02614093565b5b6000614c11858286016140be565b9250506020614c22858286016140be565b9150509250929050565b600080fd5b600080fd5b60008083601f840112614c4c57614c4b614801565b5b8235905067ffffffffffffffff811115614c6957614c68614c2c565b5b602083019150836020820283011115614c8557614c84614c31565b5b9250929050565b60008083601f840112614ca257614ca1614801565b5b8235905067ffffffffffffffff811115614cbf57614cbe614c2c565b5b602083019150836020820283011115614cdb57614cda614c31565b5b9250929050565b600080600080600060608688031215614cfe57614cfd614093565b5b6000614d0c888289016140be565b955050602086013567ffffffffffffffff811115614d2d57614d2c614098565b5b614d3988828901614c36565b9450945050604086013567ffffffffffffffff811115614d5c57614d5b614098565b5b614d6888828901614c8c565b92509250509295509295909350565b608082016000820151614d8d6000850182614257565b506020820151614da06020850182614257565b506040820151614db3604085018261430b565b506060820151614dc66060850182614ae3565b50505050565b6000608082019050614de16000830184614d77565b92915050565b60006040820190508181036000830152614e01818561460c565b90508181036020830152614e158184614b6c565b90509392505050565b6000606082019050614e336000830186614132565b614e406020830185614a08565b614e4d6040830184614a08565b949350505050565b606082016000820151614e6b600085018261430b565b506020820151614e7e6020850182614257565b506040820151614e916040850182614257565b50505050565b6000606082019050614eac6000830184614e55565b92915050565b600080fd5b600080fd5b600081519050614ecb8161415c565b92915050565b6000614ee4614edf84614886565b61486b565b905082815260208101848484011115614f0057614eff614806565b5b614f0b848285614336565b509392505050565b600082601f830112614f2857614f27614801565b5b8151614f38848260208601614ed1565b91505092915050565b600081519050614f50816140a7565b92915050565b600060c08284031215614f6c57614f6b614eb2565b5b614f7660c061486b565b90506000614f8684828501614ebc565b600083015250602082015167ffffffffffffffff811115614faa57614fa9614eb7565b5b614fb684828501614f13565b6020830152506040614fca84828501614f41565b6040830152506060614fde84828501614ebc565b6060830152506080614ff284828501614f41565b60808301525060a061500684828501614f41565b60a08301525092915050565b60006020828403121561502857615027614093565b5b600082015167ffffffffffffffff81111561504657615045614098565b5b61505284828501614f56565b91505092915050565b600082825260208201905092915050565b7f496e76616c696420746f6b656e20616464726573730000000000000000000000600082015250565b60006150a260158361505b565b91506150ad8261506c565b602082019050919050565b600060208201905081810360008301526150d181615095565b9050919050565b6000602082840312156150ee576150ed614093565b5b60006150fc84828501614f41565b91505092915050565b7f496e73756666696369656e742062616c616e6365000000000000000000000000600082015250565b600061513b60148361505b565b915061514682615105565b602082019050919050565b6000602082019050818103600083015261516a8161512e565b9050919050565b60006040820190506151866000830185614132565b6151936020830184614a08565b9392505050565b7f4e487b7100000000000000000000000000000000000000000000000000000000600052603260045260246000fd5b7f506c61796572206e6f7420696e2067616d650000000000000000000000000000600082015250565b60006151ff60128361505b565b915061520a826151c9565b602082019050919050565b6000602082019050818103600083015261522e816151f2565b9050919050565b7f556e617574686f72697a65640000000000000000000000000000000000000000600082015250565b600061526b600c8361505b565b915061527682615235565b602082019050919050565b6000602082019050818103600083015261529a8161525e565b9050919050565b7f50726f7065727479206e6f7420666f756e640000000000000000000000000000600082015250565b60006152d760128361505b565b91506152e2826152a1565b602082019050919050565b60006020820190508181036000830152615306816152ca565b9050919050565b60006060820190506153226000830186614a08565b61532f6020830185614a08565b61533c6040830184614132565b949350505050565b7f4e487b7100000000000000000000000000000000000000000000000000000000600052601160045260246000fd5b600061537e8261409d565b91506153898361409d565b92508282019050808211156153a1576153a0615344565b5b92915050565b7f496e76616c696420616464726573730000000000000000000000000000000000600082015250565b60006153dd600f8361505b565b91506153e8826153a7565b602082019050919050565b6000602082019050818103600083015261540c816153d0565b9050919050565b6000819050919050565b6000819050919050565b600061544261543d61543884615413565b61541d565b61409d565b9050919050565b61545281615427565b82525050565b600060408201905061546d6000830185614132565b61547a6020830184615449565b9392505050565b7f4f6e6c79206f776e65722063616e2062617463682073657420706f736974696f60008201527f6e73000000000000000000000000000000000000000000000000000000000000602082015250565b60006154dd60228361505b565b91506154e882615481565b604082019050919050565b6000602082019050818103600083015261550c816154d0565b9050919050565b7f417272617973206c656e677468206d69736d6174636800000000000000000000600082015250565b600061554960168361505b565b915061555482615513565b602082019050919050565b600060208201905081810360008301526155788161553c565b9050919050565b7f4f6e6c79206f776e65722063616e20736574207475726e730000000000000000600082015250565b60006155b560188361505b565b91506155c08261557f565b602082019050919050565b600060208201905081810360008301526155e4816155a8565b9050919050565b60006155f68261409d565b91506156018361409d565b925082820390508181111561561957615618615344565b5b92915050565b7f4e487b7100000000000000000000000000000000000000000000000000000000600052603160045260246000fd5b7f4e6f7420796f7572207475726e00000000000000000000000000000000000000600082015250565b6000615684600d8361505b565b915061568f8261564e565b602082019050919050565b600060208201905081810360008301526156b381615677565b9050919050565b60006156c58261431a565b6156cf818561505b565b93506156df818560208601614336565b6156e881614360565b840191505092915050565b600060a0820190506157086000830188614132565b818103602083015261571a81876156ba565b90506157296040830186614a08565b6157366060830185614132565b6157436080830184614a08565b9695505050505050565b6000819050919050565b600061577261576d6157688461574d565b61541d565b61409d565b9050919050565b61578281615757565b82525050565b600060608201905061579d6000830186614a08565b6157aa6020830185615779565b6157b76040830184614132565b94935050505056fea2646970667358221220552b9e57cfdb3f2b0be2debfccc5c061c7404d39e4a7d955b98fa05118cbc17864736f6c634300081c0033",
  "linkReferences": {},
  "deployedLinkReferences": {}
}